{
	"data": {
		"bytecode": {
			"linkReferences": {},
			"object": "608060405234801561001057600080fd5b506111ac806100206000396000f3fe6080604052600436106100345760003560e01c8063092d0afc14610039578063452407e21461007b578063e7fb74c7146100b8575b600080fd5b34801561004557600080fd5b50610060600480360381019061005b9190610c4f565b6100d4565b60405161007296959493929190610d08565b60405180910390f35b34801561008757600080fd5b506100a2600480360381019061009d9190610d95565b61016d565b6040516100af9190610de8565b60405180910390f35b6100d260048036038101906100cd9190610c4f565b6105ea565b005b600081815481106100e457600080fd5b90600052602060002090600602016000915090508060000154908060010160009054906101000a900473ffffffffffffffffffffffffffffffffffffffff16908060020154908060030160009054906101000a900473ffffffffffffffffffffffffffffffffffffffff16908060040154908060050160009054906101000a900460ff16905086565b6000828460008290503373ffffffffffffffffffffffffffffffffffffffff168173ffffffffffffffffffffffffffffffffffffffff16636352211e846040518263ffffffff1660e01b81526004016101c69190610de8565b60206040518083038186803b1580156101de57600080fd5b505afa1580156101f2573d6000803e3d6000fd5b505050506040513d601f19601f820116820180604052508101906102169190610e18565b73ffffffffffffffffffffffffffffffffffffffff161461023657600080fd5b858760008290503073ffffffffffffffffffffffffffffffffffffffff168173ffffffffffffffffffffffffffffffffffffffff1663081812fc846040518263ffffffff1660e01b815260040161028d9190610de8565b60206040518083038186803b1580156102a557600080fd5b505afa1580156102b9573d6000803e3d6000fd5b505050506040513d601f19601f820116820180604052508101906102dd9190610e18565b73ffffffffffffffffffffffffffffffffffffffff16146102fd57600080fd5b60001515600160008b73ffffffffffffffffffffffffffffffffffffffff1673ffffffffffffffffffffffffffffffffffffffff16815260200190815260200160002060008c815260200190815260200160002060009054906101000a900460ff161515146103a1576040517f08c379a000000000000000000000000000000000000000000000000000000000815260040161039890610ea2565b60405180910390fd5b60008080549050905060006040518060c001604052808381526020018c73ffffffffffffffffffffffffffffffffffffffff1681526020018d81526020013373ffffffffffffffffffffffffffffffffffffffff1681526020018b81526020016000151581525090806001815401808255809150506001900390600052602060002090600602016000909190919091506000820151816000015560208201518160010160006101000a81548173ffffffffffffffffffffffffffffffffffffffff021916908373ffffffffffffffffffffffffffffffffffffffff1602179055506040820151816002015560608201518160030160006101000a81548173ffffffffffffffffffffffffffffffffffffffff021916908373ffffffffffffffffffffffffffffffffffffffff1602179055506080820151816004015560a08201518160050160006101000a81548160ff021916908315150217905550505060018060008c73ffffffffffffffffffffffffffffffffffffffff1673ffffffffffffffffffffffffffffffffffffffff16815260200190815260200160002060008d815260200190815260200160002060006101000a81548160ff021916908315150217905550806000828154811061057c5761057b610ec2565b5b9060005260206000209060060201600001541461059c5761059b610ef1565b5b7fd3742413e0092c98517699ed9f8567218c740a5a265a7a986d9430d597937522818c8c8c6040516105d19493929190610f20565b60405180910390a1809750505050505050509392505050565b80600080549050811080156106235750806000828154811061060f5761060e610ec2565b5b906000526020600020906006020160000154145b610662576040517f08c379a000000000000000000000000000000000000000000000000000000000815260040161065990610fb1565b60405180910390fd5b81600015156000828154811061067b5761067a610ec2565b5b906000526020600020906006020160050160009054906101000a900460ff161515146106dc576040517f08c379a00000000000000000000000000000000000000000000000000000000081526004016106d39061101d565b60405180910390fd5b600083815481106106f0576106ef610ec2565b5b906000526020600020906006020160010160009054906101000a900473ffffffffffffffffffffffffffffffffffffffff166000848154811061073657610735610ec2565b5b90600052602060002090600602016002015460008290503073ffffffffffffffffffffffffffffffffffffffff168173ffffffffffffffffffffffffffffffffffffffff1663081812fc846040518263ffffffff1660e01b815260040161079d9190610de8565b60206040518083038186803b1580156107b557600080fd5b505afa1580156107c9573d6000803e3d6000fd5b505050506040513d601f19601f820116820180604052508101906107ed9190610e18565b73ffffffffffffffffffffffffffffffffffffffff161461080d57600080fd5b6000868154811061082157610820610ec2565b5b906000526020600020906006020160040154341015610875576040517f08c379a000000000000000000000000000000000000000000000000000000000815260040161086c90611089565b60405180910390fd5b6000868154811061088957610888610ec2565b5b906000526020600020906006020160030160009054906101000a900473ffffffffffffffffffffffffffffffffffffffff1673ffffffffffffffffffffffffffffffffffffffff163373ffffffffffffffffffffffffffffffffffffffff1614156108f357600080fd5b60016000878154811061090957610908610ec2565b5b906000526020600020906006020160050160006101000a81548160ff02191690831515021790555060006001600080898154811061094a57610949610ec2565b5b906000526020600020906006020160010160009054906101000a900473ffffffffffffffffffffffffffffffffffffffff1673ffffffffffffffffffffffffffffffffffffffff1673ffffffffffffffffffffffffffffffffffffffff16815260200190815260200160002060008089815481106109cb576109ca610ec2565b5b906000526020600020906006020160020154815260200190815260200160002060006101000a81548160ff02191690831515021790555060008681548110610a1657610a15610ec2565b5b906000526020600020906006020160010160009054906101000a900473ffffffffffffffffffffffffffffffffffffffff1673ffffffffffffffffffffffffffffffffffffffff166342842e0e60008881548110610a7757610a76610ec2565b5b906000526020600020906006020160030160009054906101000a900473ffffffffffffffffffffffffffffffffffffffff163360008a81548110610abe57610abd610ec2565b5b9060005260206000209060060201600201546040518463ffffffff1660e01b8152600401610aee93929190611108565b600060405180830381600087803b158015610b0857600080fd5b505af1158015610b1c573d6000803e3d6000fd5b5050505060008681548110610b3457610b33610ec2565b5b906000526020600020906006020160030160009054906101000a900473ffffffffffffffffffffffffffffffffffffffff1673ffffffffffffffffffffffffffffffffffffffff166108fc349081150290604051600060405180830381858888f19350505050158015610bab573d6000803e3d6000fd5b507f8164c6f8917e418c49813e4586897c7067de5a886aa1bea980cd11fa57d48264863360008981548110610be357610be2610ec2565b5b906000526020600020906006020160040154604051610c049392919061113f565b60405180910390a1505050505050565b600080fd5b6000819050919050565b610c2c81610c19565b8114610c3757600080fd5b50565b600081359050610c4981610c23565b92915050565b600060208284031215610c6557610c64610c14565b5b6000610c7384828501610c3a565b91505092915050565b610c8581610c19565b82525050565b600073ffffffffffffffffffffffffffffffffffffffff82169050919050565b6000610cb682610c8b565b9050919050565b610cc681610cab565b82525050565b6000610cd782610c8b565b9050919050565b610ce781610ccc565b82525050565b60008115159050919050565b610d0281610ced565b82525050565b600060c082019050610d1d6000830189610c7c565b610d2a6020830188610cbd565b610d376040830187610c7c565b610d446060830186610cde565b610d516080830185610c7c565b610d5e60a0830184610cf9565b979650505050505050565b610d7281610cab565b8114610d7d57600080fd5b50565b600081359050610d8f81610d69565b92915050565b600080600060608486031215610dae57610dad610c14565b5b6000610dbc86828701610c3a565b9350506020610dcd86828701610d80565b9250506040610dde86828701610c3a565b9150509250925092565b6000602082019050610dfd6000830184610c7c565b92915050565b600081519050610e1281610d69565b92915050565b600060208284031215610e2e57610e2d610c14565b5b6000610e3c84828501610e03565b91505092915050565b600082825260208201905092915050565b7f6954656d20697320416c726561647920757020666f722053616c650000000000600082015250565b6000610e8c601b83610e45565b9150610e9782610e56565b602082019050919050565b60006020820190508181036000830152610ebb81610e7f565b9050919050565b7f4e487b7100000000000000000000000000000000000000000000000000000000600052603260045260246000fd5b7f4e487b7100000000000000000000000000000000000000000000000000000000600052600160045260246000fd5b6000608082019050610f356000830187610c7c565b610f426020830186610c7c565b610f4f6040830185610cbd565b610f5c6060830184610c7c565b95945050505050565b7f436f756c64204e6f742046696e64204974656d73000000000000000000000000600082015250565b6000610f9b601483610e45565b9150610fa682610f65565b602082019050919050565b60006020820190508181036000830152610fca81610f8e565b9050919050565b7f6974656d20697320616c726561647920736f6c64000000000000000000000000600082015250565b6000611007601483610e45565b915061101282610fd1565b602082019050919050565b6000602082019050818103600083015261103681610ffa565b9050919050565b7f6e6f7420456e6f7567682046756e647300000000000000000000000000000000600082015250565b6000611073601083610e45565b915061107e8261103d565b602082019050919050565b600060208201905081810360008301526110a281611066565b9050919050565b6000819050919050565b60006110ce6110c96110c484610c8b565b6110a9565b610c8b565b9050919050565b60006110e0826110b3565b9050919050565b60006110f2826110d5565b9050919050565b611102816110e7565b82525050565b600060608201905061111d60008301866110f9565b61112a6020830185610cbd565b6111376040830184610c7c565b949350505050565b60006060820190506111546000830186610c7c565b6111616020830185610cbd565b61116e6040830184610c7c565b94935050505056fea26469706673582212206d95b659ed0e30217dcb74be1de2c4e4a8e60e29ce1d2df84a4d0e78867adcc864736f6c63430008090033",
			"opcodes": "PUSH1 0x80 PUSH1 0x40 MSTORE CALLVALUE DUP1 ISZERO PUSH2 0x10 JUMPI PUSH1 0x0 DUP1 REVERT JUMPDEST POP PUSH2 0x11AC DUP1 PUSH2 0x20 PUSH1 0x0 CODECOPY PUSH1 0x0 RETURN INVALID PUSH1 0x80 PUSH1 0x40 MSTORE PUSH1 0x4 CALLDATASIZE LT PUSH2 0x34 JUMPI PUSH1 0x0 CALLDATALOAD PUSH1 0xE0 SHR DUP1 PUSH4 0x92D0AFC EQ PUSH2 0x39 JUMPI DUP1 PUSH4 0x452407E2 EQ PUSH2 0x7B JUMPI DUP1 PUSH4 0xE7FB74C7 EQ PUSH2 0xB8 JUMPI JUMPDEST PUSH1 0x0 DUP1 REVERT JUMPDEST CALLVALUE DUP1 ISZERO PUSH2 0x45 JUMPI PUSH1 0x0 DUP1 REVERT JUMPDEST POP PUSH2 0x60 PUSH1 0x4 DUP1 CALLDATASIZE SUB DUP2 ADD SWAP1 PUSH2 0x5B SWAP2 SWAP1 PUSH2 0xC4F JUMP JUMPDEST PUSH2 0xD4 JUMP JUMPDEST PUSH1 0x40 MLOAD PUSH2 0x72 SWAP7 SWAP6 SWAP5 SWAP4 SWAP3 SWAP2 SWAP1 PUSH2 0xD08 JUMP JUMPDEST PUSH1 0x40 MLOAD DUP1 SWAP2 SUB SWAP1 RETURN JUMPDEST CALLVALUE DUP1 ISZERO PUSH2 0x87 JUMPI PUSH1 0x0 DUP1 REVERT JUMPDEST POP PUSH2 0xA2 PUSH1 0x4 DUP1 CALLDATASIZE SUB DUP2 ADD SWAP1 PUSH2 0x9D SWAP2 SWAP1 PUSH2 0xD95 JUMP JUMPDEST PUSH2 0x16D JUMP JUMPDEST PUSH1 0x40 MLOAD PUSH2 0xAF SWAP2 SWAP1 PUSH2 0xDE8 JUMP JUMPDEST PUSH1 0x40 MLOAD DUP1 SWAP2 SUB SWAP1 RETURN JUMPDEST PUSH2 0xD2 PUSH1 0x4 DUP1 CALLDATASIZE SUB DUP2 ADD SWAP1 PUSH2 0xCD SWAP2 SWAP1 PUSH2 0xC4F JUMP JUMPDEST PUSH2 0x5EA JUMP JUMPDEST STOP JUMPDEST PUSH1 0x0 DUP2 DUP2 SLOAD DUP2 LT PUSH2 0xE4 JUMPI PUSH1 0x0 DUP1 REVERT JUMPDEST SWAP1 PUSH1 0x0 MSTORE PUSH1 0x20 PUSH1 0x0 KECCAK256 SWAP1 PUSH1 0x6 MUL ADD PUSH1 0x0 SWAP2 POP SWAP1 POP DUP1 PUSH1 0x0 ADD SLOAD SWAP1 DUP1 PUSH1 0x1 ADD PUSH1 0x0 SWAP1 SLOAD SWAP1 PUSH2 0x100 EXP SWAP1 DIV PUSH20 0xFFFFFFFFFFFFFFFFFFFFFFFFFFFFFFFFFFFFFFFF AND SWAP1 DUP1 PUSH1 0x2 ADD SLOAD SWAP1 DUP1 PUSH1 0x3 ADD PUSH1 0x0 SWAP1 SLOAD SWAP1 PUSH2 0x100 EXP SWAP1 DIV PUSH20 0xFFFFFFFFFFFFFFFFFFFFFFFFFFFFFFFFFFFFFFFF AND SWAP1 DUP1 PUSH1 0x4 ADD SLOAD SWAP1 DUP1 PUSH1 0x5 ADD PUSH1 0x0 SWAP1 SLOAD SWAP1 PUSH2 0x100 EXP SWAP1 DIV PUSH1 0xFF AND SWAP1 POP DUP7 JUMP JUMPDEST PUSH1 0x0 DUP3 DUP5 PUSH1 0x0 DUP3 SWAP1 POP CALLER PUSH20 0xFFFFFFFFFFFFFFFFFFFFFFFFFFFFFFFFFFFFFFFF AND DUP2 PUSH20 0xFFFFFFFFFFFFFFFFFFFFFFFFFFFFFFFFFFFFFFFF AND PUSH4 0x6352211E DUP5 PUSH1 0x40 MLOAD DUP3 PUSH4 0xFFFFFFFF AND PUSH1 0xE0 SHL DUP2 MSTORE PUSH1 0x4 ADD PUSH2 0x1C6 SWAP2 SWAP1 PUSH2 0xDE8 JUMP JUMPDEST PUSH1 0x20 PUSH1 0x40 MLOAD DUP1 DUP4 SUB DUP2 DUP7 DUP1 EXTCODESIZE ISZERO DUP1 ISZERO PUSH2 0x1DE JUMPI PUSH1 0x0 DUP1 REVERT JUMPDEST POP GAS STATICCALL ISZERO DUP1 ISZERO PUSH2 0x1F2 JUMPI RETURNDATASIZE PUSH1 0x0 DUP1 RETURNDATACOPY RETURNDATASIZE PUSH1 0x0 REVERT JUMPDEST POP POP POP POP PUSH1 0x40 MLOAD RETURNDATASIZE PUSH1 0x1F NOT PUSH1 0x1F DUP3 ADD AND DUP3 ADD DUP1 PUSH1 0x40 MSTORE POP DUP2 ADD SWAP1 PUSH2 0x216 SWAP2 SWAP1 PUSH2 0xE18 JUMP JUMPDEST PUSH20 0xFFFFFFFFFFFFFFFFFFFFFFFFFFFFFFFFFFFFFFFF AND EQ PUSH2 0x236 JUMPI PUSH1 0x0 DUP1 REVERT JUMPDEST DUP6 DUP8 PUSH1 0x0 DUP3 SWAP1 POP ADDRESS PUSH20 0xFFFFFFFFFFFFFFFFFFFFFFFFFFFFFFFFFFFFFFFF AND DUP2 PUSH20 0xFFFFFFFFFFFFFFFFFFFFFFFFFFFFFFFFFFFFFFFF AND PUSH4 0x81812FC DUP5 PUSH1 0x40 MLOAD DUP3 PUSH4 0xFFFFFFFF AND PUSH1 0xE0 SHL DUP2 MSTORE PUSH1 0x4 ADD PUSH2 0x28D SWAP2 SWAP1 PUSH2 0xDE8 JUMP JUMPDEST PUSH1 0x20 PUSH1 0x40 MLOAD DUP1 DUP4 SUB DUP2 DUP7 DUP1 EXTCODESIZE ISZERO DUP1 ISZERO PUSH2 0x2A5 JUMPI PUSH1 0x0 DUP1 REVERT JUMPDEST POP GAS STATICCALL ISZERO DUP1 ISZERO PUSH2 0x2B9 JUMPI RETURNDATASIZE PUSH1 0x0 DUP1 RETURNDATACOPY RETURNDATASIZE PUSH1 0x0 REVERT JUMPDEST POP POP POP POP PUSH1 0x40 MLOAD RETURNDATASIZE PUSH1 0x1F NOT PUSH1 0x1F DUP3 ADD AND DUP3 ADD DUP1 PUSH1 0x40 MSTORE POP DUP2 ADD SWAP1 PUSH2 0x2DD SWAP2 SWAP1 PUSH2 0xE18 JUMP JUMPDEST PUSH20 0xFFFFFFFFFFFFFFFFFFFFFFFFFFFFFFFFFFFFFFFF AND EQ PUSH2 0x2FD JUMPI PUSH1 0x0 DUP1 REVERT JUMPDEST PUSH1 0x0 ISZERO ISZERO PUSH1 0x1 PUSH1 0x0 DUP12 PUSH20 0xFFFFFFFFFFFFFFFFFFFFFFFFFFFFFFFFFFFFFFFF AND PUSH20 0xFFFFFFFFFFFFFFFFFFFFFFFFFFFFFFFFFFFFFFFF AND DUP2 MSTORE PUSH1 0x20 ADD SWAP1 DUP2 MSTORE PUSH1 0x20 ADD PUSH1 0x0 KECCAK256 PUSH1 0x0 DUP13 DUP2 MSTORE PUSH1 0x20 ADD SWAP1 DUP2 MSTORE PUSH1 0x20 ADD PUSH1 0x0 KECCAK256 PUSH1 0x0 SWAP1 SLOAD SWAP1 PUSH2 0x100 EXP SWAP1 DIV PUSH1 0xFF AND ISZERO ISZERO EQ PUSH2 0x3A1 JUMPI PUSH1 0x40 MLOAD PUSH32 0x8C379A000000000000000000000000000000000000000000000000000000000 DUP2 MSTORE PUSH1 0x4 ADD PUSH2 0x398 SWAP1 PUSH2 0xEA2 JUMP JUMPDEST PUSH1 0x40 MLOAD DUP1 SWAP2 SUB SWAP1 REVERT JUMPDEST PUSH1 0x0 DUP1 DUP1 SLOAD SWAP1 POP SWAP1 POP PUSH1 0x0 PUSH1 0x40 MLOAD DUP1 PUSH1 0xC0 ADD PUSH1 0x40 MSTORE DUP1 DUP4 DUP2 MSTORE PUSH1 0x20 ADD DUP13 PUSH20 0xFFFFFFFFFFFFFFFFFFFFFFFFFFFFFFFFFFFFFFFF AND DUP2 MSTORE PUSH1 0x20 ADD DUP14 DUP2 MSTORE PUSH1 0x20 ADD CALLER PUSH20 0xFFFFFFFFFFFFFFFFFFFFFFFFFFFFFFFFFFFFFFFF AND DUP2 MSTORE PUSH1 0x20 ADD DUP12 DUP2 MSTORE PUSH1 0x20 ADD PUSH1 0x0 ISZERO ISZERO DUP2 MSTORE POP SWAP1 DUP1 PUSH1 0x1 DUP2 SLOAD ADD DUP1 DUP3 SSTORE DUP1 SWAP2 POP POP PUSH1 0x1 SWAP1 SUB SWAP1 PUSH1 0x0 MSTORE PUSH1 0x20 PUSH1 0x0 KECCAK256 SWAP1 PUSH1 0x6 MUL ADD PUSH1 0x0 SWAP1 SWAP2 SWAP1 SWAP2 SWAP1 SWAP2 POP PUSH1 0x0 DUP3 ADD MLOAD DUP2 PUSH1 0x0 ADD SSTORE PUSH1 0x20 DUP3 ADD MLOAD DUP2 PUSH1 0x1 ADD PUSH1 0x0 PUSH2 0x100 EXP DUP2 SLOAD DUP2 PUSH20 0xFFFFFFFFFFFFFFFFFFFFFFFFFFFFFFFFFFFFFFFF MUL NOT AND SWAP1 DUP4 PUSH20 0xFFFFFFFFFFFFFFFFFFFFFFFFFFFFFFFFFFFFFFFF AND MUL OR SWAP1 SSTORE POP PUSH1 0x40 DUP3 ADD MLOAD DUP2 PUSH1 0x2 ADD SSTORE PUSH1 0x60 DUP3 ADD MLOAD DUP2 PUSH1 0x3 ADD PUSH1 0x0 PUSH2 0x100 EXP DUP2 SLOAD DUP2 PUSH20 0xFFFFFFFFFFFFFFFFFFFFFFFFFFFFFFFFFFFFFFFF MUL NOT AND SWAP1 DUP4 PUSH20 0xFFFFFFFFFFFFFFFFFFFFFFFFFFFFFFFFFFFFFFFF AND MUL OR SWAP1 SSTORE POP PUSH1 0x80 DUP3 ADD MLOAD DUP2 PUSH1 0x4 ADD SSTORE PUSH1 0xA0 DUP3 ADD MLOAD DUP2 PUSH1 0x5 ADD PUSH1 0x0 PUSH2 0x100 EXP DUP2 SLOAD DUP2 PUSH1 0xFF MUL NOT AND SWAP1 DUP4 ISZERO ISZERO MUL OR SWAP1 SSTORE POP POP POP PUSH1 0x1 DUP1 PUSH1 0x0 DUP13 PUSH20 0xFFFFFFFFFFFFFFFFFFFFFFFFFFFFFFFFFFFFFFFF AND PUSH20 0xFFFFFFFFFFFFFFFFFFFFFFFFFFFFFFFFFFFFFFFF AND DUP2 MSTORE PUSH1 0x20 ADD SWAP1 DUP2 MSTORE PUSH1 0x20 ADD PUSH1 0x0 KECCAK256 PUSH1 0x0 DUP14 DUP2 MSTORE PUSH1 0x20 ADD SWAP1 DUP2 MSTORE PUSH1 0x20 ADD PUSH1 0x0 KECCAK256 PUSH1 0x0 PUSH2 0x100 EXP DUP2 SLOAD DUP2 PUSH1 0xFF MUL NOT AND SWAP1 DUP4 ISZERO ISZERO MUL OR SWAP1 SSTORE POP DUP1 PUSH1 0x0 DUP3 DUP2 SLOAD DUP2 LT PUSH2 0x57C JUMPI PUSH2 0x57B PUSH2 0xEC2 JUMP JUMPDEST JUMPDEST SWAP1 PUSH1 0x0 MSTORE PUSH1 0x20 PUSH1 0x0 KECCAK256 SWAP1 PUSH1 0x6 MUL ADD PUSH1 0x0 ADD SLOAD EQ PUSH2 0x59C JUMPI PUSH2 0x59B PUSH2 0xEF1 JUMP JUMPDEST JUMPDEST PUSH32 0xD3742413E0092C98517699ED9F8567218C740A5A265A7A986D9430D597937522 DUP2 DUP13 DUP13 DUP13 PUSH1 0x40 MLOAD PUSH2 0x5D1 SWAP5 SWAP4 SWAP3 SWAP2 SWAP1 PUSH2 0xF20 JUMP JUMPDEST PUSH1 0x40 MLOAD DUP1 SWAP2 SUB SWAP1 LOG1 DUP1 SWAP8 POP POP POP POP POP POP POP POP SWAP4 SWAP3 POP POP POP JUMP JUMPDEST DUP1 PUSH1 0x0 DUP1 SLOAD SWAP1 POP DUP2 LT DUP1 ISZERO PUSH2 0x623 JUMPI POP DUP1 PUSH1 0x0 DUP3 DUP2 SLOAD DUP2 LT PUSH2 0x60F JUMPI PUSH2 0x60E PUSH2 0xEC2 JUMP JUMPDEST JUMPDEST SWAP1 PUSH1 0x0 MSTORE PUSH1 0x20 PUSH1 0x0 KECCAK256 SWAP1 PUSH1 0x6 MUL ADD PUSH1 0x0 ADD SLOAD EQ JUMPDEST PUSH2 0x662 JUMPI PUSH1 0x40 MLOAD PUSH32 0x8C379A000000000000000000000000000000000000000000000000000000000 DUP2 MSTORE PUSH1 0x4 ADD PUSH2 0x659 SWAP1 PUSH2 0xFB1 JUMP JUMPDEST PUSH1 0x40 MLOAD DUP1 SWAP2 SUB SWAP1 REVERT JUMPDEST DUP2 PUSH1 0x0 ISZERO ISZERO PUSH1 0x0 DUP3 DUP2 SLOAD DUP2 LT PUSH2 0x67B JUMPI PUSH2 0x67A PUSH2 0xEC2 JUMP JUMPDEST JUMPDEST SWAP1 PUSH1 0x0 MSTORE PUSH1 0x20 PUSH1 0x0 KECCAK256 SWAP1 PUSH1 0x6 MUL ADD PUSH1 0x5 ADD PUSH1 0x0 SWAP1 SLOAD SWAP1 PUSH2 0x100 EXP SWAP1 DIV PUSH1 0xFF AND ISZERO ISZERO EQ PUSH2 0x6DC JUMPI PUSH1 0x40 MLOAD PUSH32 0x8C379A000000000000000000000000000000000000000000000000000000000 DUP2 MSTORE PUSH1 0x4 ADD PUSH2 0x6D3 SWAP1 PUSH2 0x101D JUMP JUMPDEST PUSH1 0x40 MLOAD DUP1 SWAP2 SUB SWAP1 REVERT JUMPDEST PUSH1 0x0 DUP4 DUP2 SLOAD DUP2 LT PUSH2 0x6F0 JUMPI PUSH2 0x6EF PUSH2 0xEC2 JUMP JUMPDEST JUMPDEST SWAP1 PUSH1 0x0 MSTORE PUSH1 0x20 PUSH1 0x0 KECCAK256 SWAP1 PUSH1 0x6 MUL ADD PUSH1 0x1 ADD PUSH1 0x0 SWAP1 SLOAD SWAP1 PUSH2 0x100 EXP SWAP1 DIV PUSH20 0xFFFFFFFFFFFFFFFFFFFFFFFFFFFFFFFFFFFFFFFF AND PUSH1 0x0 DUP5 DUP2 SLOAD DUP2 LT PUSH2 0x736 JUMPI PUSH2 0x735 PUSH2 0xEC2 JUMP JUMPDEST JUMPDEST SWAP1 PUSH1 0x0 MSTORE PUSH1 0x20 PUSH1 0x0 KECCAK256 SWAP1 PUSH1 0x6 MUL ADD PUSH1 0x2 ADD SLOAD PUSH1 0x0 DUP3 SWAP1 POP ADDRESS PUSH20 0xFFFFFFFFFFFFFFFFFFFFFFFFFFFFFFFFFFFFFFFF AND DUP2 PUSH20 0xFFFFFFFFFFFFFFFFFFFFFFFFFFFFFFFFFFFFFFFF AND PUSH4 0x81812FC DUP5 PUSH1 0x40 MLOAD DUP3 PUSH4 0xFFFFFFFF AND PUSH1 0xE0 SHL DUP2 MSTORE PUSH1 0x4 ADD PUSH2 0x79D SWAP2 SWAP1 PUSH2 0xDE8 JUMP JUMPDEST PUSH1 0x20 PUSH1 0x40 MLOAD DUP1 DUP4 SUB DUP2 DUP7 DUP1 EXTCODESIZE ISZERO DUP1 ISZERO PUSH2 0x7B5 JUMPI PUSH1 0x0 DUP1 REVERT JUMPDEST POP GAS STATICCALL ISZERO DUP1 ISZERO PUSH2 0x7C9 JUMPI RETURNDATASIZE PUSH1 0x0 DUP1 RETURNDATACOPY RETURNDATASIZE PUSH1 0x0 REVERT JUMPDEST POP POP POP POP PUSH1 0x40 MLOAD RETURNDATASIZE PUSH1 0x1F NOT PUSH1 0x1F DUP3 ADD AND DUP3 ADD DUP1 PUSH1 0x40 MSTORE POP DUP2 ADD SWAP1 PUSH2 0x7ED SWAP2 SWAP1 PUSH2 0xE18 JUMP JUMPDEST PUSH20 0xFFFFFFFFFFFFFFFFFFFFFFFFFFFFFFFFFFFFFFFF AND EQ PUSH2 0x80D JUMPI PUSH1 0x0 DUP1 REVERT JUMPDEST PUSH1 0x0 DUP7 DUP2 SLOAD DUP2 LT PUSH2 0x821 JUMPI PUSH2 0x820 PUSH2 0xEC2 JUMP JUMPDEST JUMPDEST SWAP1 PUSH1 0x0 MSTORE PUSH1 0x20 PUSH1 0x0 KECCAK256 SWAP1 PUSH1 0x6 MUL ADD PUSH1 0x4 ADD SLOAD CALLVALUE LT ISZERO PUSH2 0x875 JUMPI PUSH1 0x40 MLOAD PUSH32 0x8C379A000000000000000000000000000000000000000000000000000000000 DUP2 MSTORE PUSH1 0x4 ADD PUSH2 0x86C SWAP1 PUSH2 0x1089 JUMP JUMPDEST PUSH1 0x40 MLOAD DUP1 SWAP2 SUB SWAP1 REVERT JUMPDEST PUSH1 0x0 DUP7 DUP2 SLOAD DUP2 LT PUSH2 0x889 JUMPI PUSH2 0x888 PUSH2 0xEC2 JUMP JUMPDEST JUMPDEST SWAP1 PUSH1 0x0 MSTORE PUSH1 0x20 PUSH1 0x0 KECCAK256 SWAP1 PUSH1 0x6 MUL ADD PUSH1 0x3 ADD PUSH1 0x0 SWAP1 SLOAD SWAP1 PUSH2 0x100 EXP SWAP1 DIV PUSH20 0xFFFFFFFFFFFFFFFFFFFFFFFFFFFFFFFFFFFFFFFF AND PUSH20 0xFFFFFFFFFFFFFFFFFFFFFFFFFFFFFFFFFFFFFFFF AND CALLER PUSH20 0xFFFFFFFFFFFFFFFFFFFFFFFFFFFFFFFFFFFFFFFF AND EQ ISZERO PUSH2 0x8F3 JUMPI PUSH1 0x0 DUP1 REVERT JUMPDEST PUSH1 0x1 PUSH1 0x0 DUP8 DUP2 SLOAD DUP2 LT PUSH2 0x909 JUMPI PUSH2 0x908 PUSH2 0xEC2 JUMP JUMPDEST JUMPDEST SWAP1 PUSH1 0x0 MSTORE PUSH1 0x20 PUSH1 0x0 KECCAK256 SWAP1 PUSH1 0x6 MUL ADD PUSH1 0x5 ADD PUSH1 0x0 PUSH2 0x100 EXP DUP2 SLOAD DUP2 PUSH1 0xFF MUL NOT AND SWAP1 DUP4 ISZERO ISZERO MUL OR SWAP1 SSTORE POP PUSH1 0x0 PUSH1 0x1 PUSH1 0x0 DUP1 DUP10 DUP2 SLOAD DUP2 LT PUSH2 0x94A JUMPI PUSH2 0x949 PUSH2 0xEC2 JUMP JUMPDEST JUMPDEST SWAP1 PUSH1 0x0 MSTORE PUSH1 0x20 PUSH1 0x0 KECCAK256 SWAP1 PUSH1 0x6 MUL ADD PUSH1 0x1 ADD PUSH1 0x0 SWAP1 SLOAD SWAP1 PUSH2 0x100 EXP SWAP1 DIV PUSH20 0xFFFFFFFFFFFFFFFFFFFFFFFFFFFFFFFFFFFFFFFF AND PUSH20 0xFFFFFFFFFFFFFFFFFFFFFFFFFFFFFFFFFFFFFFFF AND PUSH20 0xFFFFFFFFFFFFFFFFFFFFFFFFFFFFFFFFFFFFFFFF AND DUP2 MSTORE PUSH1 0x20 ADD SWAP1 DUP2 MSTORE PUSH1 0x20 ADD PUSH1 0x0 KECCAK256 PUSH1 0x0 DUP1 DUP10 DUP2 SLOAD DUP2 LT PUSH2 0x9CB JUMPI PUSH2 0x9CA PUSH2 0xEC2 JUMP JUMPDEST JUMPDEST SWAP1 PUSH1 0x0 MSTORE PUSH1 0x20 PUSH1 0x0 KECCAK256 SWAP1 PUSH1 0x6 MUL ADD PUSH1 0x2 ADD SLOAD DUP2 MSTORE PUSH1 0x20 ADD SWAP1 DUP2 MSTORE PUSH1 0x20 ADD PUSH1 0x0 KECCAK256 PUSH1 0x0 PUSH2 0x100 EXP DUP2 SLOAD DUP2 PUSH1 0xFF MUL NOT AND SWAP1 DUP4 ISZERO ISZERO MUL OR SWAP1 SSTORE POP PUSH1 0x0 DUP7 DUP2 SLOAD DUP2 LT PUSH2 0xA16 JUMPI PUSH2 0xA15 PUSH2 0xEC2 JUMP JUMPDEST JUMPDEST SWAP1 PUSH1 0x0 MSTORE PUSH1 0x20 PUSH1 0x0 KECCAK256 SWAP1 PUSH1 0x6 MUL ADD PUSH1 0x1 ADD PUSH1 0x0 SWAP1 SLOAD SWAP1 PUSH2 0x100 EXP SWAP1 DIV PUSH20 0xFFFFFFFFFFFFFFFFFFFFFFFFFFFFFFFFFFFFFFFF AND PUSH20 0xFFFFFFFFFFFFFFFFFFFFFFFFFFFFFFFFFFFFFFFF AND PUSH4 0x42842E0E PUSH1 0x0 DUP9 DUP2 SLOAD DUP2 LT PUSH2 0xA77 JUMPI PUSH2 0xA76 PUSH2 0xEC2 JUMP JUMPDEST JUMPDEST SWAP1 PUSH1 0x0 MSTORE PUSH1 0x20 PUSH1 0x0 KECCAK256 SWAP1 PUSH1 0x6 MUL ADD PUSH1 0x3 ADD PUSH1 0x0 SWAP1 SLOAD SWAP1 PUSH2 0x100 EXP SWAP1 DIV PUSH20 0xFFFFFFFFFFFFFFFFFFFFFFFFFFFFFFFFFFFFFFFF AND CALLER PUSH1 0x0 DUP11 DUP2 SLOAD DUP2 LT PUSH2 0xABE JUMPI PUSH2 0xABD PUSH2 0xEC2 JUMP JUMPDEST JUMPDEST SWAP1 PUSH1 0x0 MSTORE PUSH1 0x20 PUSH1 0x0 KECCAK256 SWAP1 PUSH1 0x6 MUL ADD PUSH1 0x2 ADD SLOAD PUSH1 0x40 MLOAD DUP5 PUSH4 0xFFFFFFFF AND PUSH1 0xE0 SHL DUP2 MSTORE PUSH1 0x4 ADD PUSH2 0xAEE SWAP4 SWAP3 SWAP2 SWAP1 PUSH2 0x1108 JUMP JUMPDEST PUSH1 0x0 PUSH1 0x40 MLOAD DUP1 DUP4 SUB DUP2 PUSH1 0x0 DUP8 DUP1 EXTCODESIZE ISZERO DUP1 ISZERO PUSH2 0xB08 JUMPI PUSH1 0x0 DUP1 REVERT JUMPDEST POP GAS CALL ISZERO DUP1 ISZERO PUSH2 0xB1C JUMPI RETURNDATASIZE PUSH1 0x0 DUP1 RETURNDATACOPY RETURNDATASIZE PUSH1 0x0 REVERT JUMPDEST POP POP POP POP PUSH1 0x0 DUP7 DUP2 SLOAD DUP2 LT PUSH2 0xB34 JUMPI PUSH2 0xB33 PUSH2 0xEC2 JUMP JUMPDEST JUMPDEST SWAP1 PUSH1 0x0 MSTORE PUSH1 0x20 PUSH1 0x0 KECCAK256 SWAP1 PUSH1 0x6 MUL ADD PUSH1 0x3 ADD PUSH1 0x0 SWAP1 SLOAD SWAP1 PUSH2 0x100 EXP SWAP1 DIV PUSH20 0xFFFFFFFFFFFFFFFFFFFFFFFFFFFFFFFFFFFFFFFF AND PUSH20 0xFFFFFFFFFFFFFFFFFFFFFFFFFFFFFFFFFFFFFFFF AND PUSH2 0x8FC CALLVALUE SWAP1 DUP2 ISZERO MUL SWAP1 PUSH1 0x40 MLOAD PUSH1 0x0 PUSH1 0x40 MLOAD DUP1 DUP4 SUB DUP2 DUP6 DUP9 DUP9 CALL SWAP4 POP POP POP POP ISZERO DUP1 ISZERO PUSH2 0xBAB JUMPI RETURNDATASIZE PUSH1 0x0 DUP1 RETURNDATACOPY RETURNDATASIZE PUSH1 0x0 REVERT JUMPDEST POP PUSH32 0x8164C6F8917E418C49813E4586897C7067DE5A886AA1BEA980CD11FA57D48264 DUP7 CALLER PUSH1 0x0 DUP10 DUP2 SLOAD DUP2 LT PUSH2 0xBE3 JUMPI PUSH2 0xBE2 PUSH2 0xEC2 JUMP JUMPDEST JUMPDEST SWAP1 PUSH1 0x0 MSTORE PUSH1 0x20 PUSH1 0x0 KECCAK256 SWAP1 PUSH1 0x6 MUL ADD PUSH1 0x4 ADD SLOAD PUSH1 0x40 MLOAD PUSH2 0xC04 SWAP4 SWAP3 SWAP2 SWAP1 PUSH2 0x113F JUMP JUMPDEST PUSH1 0x40 MLOAD DUP1 SWAP2 SUB SWAP1 LOG1 POP POP POP POP POP POP JUMP JUMPDEST PUSH1 0x0 DUP1 REVERT JUMPDEST PUSH1 0x0 DUP2 SWAP1 POP SWAP2 SWAP1 POP JUMP JUMPDEST PUSH2 0xC2C DUP2 PUSH2 0xC19 JUMP JUMPDEST DUP2 EQ PUSH2 0xC37 JUMPI PUSH1 0x0 DUP1 REVERT JUMPDEST POP JUMP JUMPDEST PUSH1 0x0 DUP2 CALLDATALOAD SWAP1 POP PUSH2 0xC49 DUP2 PUSH2 0xC23 JUMP JUMPDEST SWAP3 SWAP2 POP POP JUMP JUMPDEST PUSH1 0x0 PUSH1 0x20 DUP3 DUP5 SUB SLT ISZERO PUSH2 0xC65 JUMPI PUSH2 0xC64 PUSH2 0xC14 JUMP JUMPDEST JUMPDEST PUSH1 0x0 PUSH2 0xC73 DUP5 DUP3 DUP6 ADD PUSH2 0xC3A JUMP JUMPDEST SWAP2 POP POP SWAP3 SWAP2 POP POP JUMP JUMPDEST PUSH2 0xC85 DUP2 PUSH2 0xC19 JUMP JUMPDEST DUP3 MSTORE POP POP JUMP JUMPDEST PUSH1 0x0 PUSH20 0xFFFFFFFFFFFFFFFFFFFFFFFFFFFFFFFFFFFFFFFF DUP3 AND SWAP1 POP SWAP2 SWAP1 POP JUMP JUMPDEST PUSH1 0x0 PUSH2 0xCB6 DUP3 PUSH2 0xC8B JUMP JUMPDEST SWAP1 POP SWAP2 SWAP1 POP JUMP JUMPDEST PUSH2 0xCC6 DUP2 PUSH2 0xCAB JUMP JUMPDEST DUP3 MSTORE POP POP JUMP JUMPDEST PUSH1 0x0 PUSH2 0xCD7 DUP3 PUSH2 0xC8B JUMP JUMPDEST SWAP1 POP SWAP2 SWAP1 POP JUMP JUMPDEST PUSH2 0xCE7 DUP2 PUSH2 0xCCC JUMP JUMPDEST DUP3 MSTORE POP POP JUMP JUMPDEST PUSH1 0x0 DUP2 ISZERO ISZERO SWAP1 POP SWAP2 SWAP1 POP JUMP JUMPDEST PUSH2 0xD02 DUP2 PUSH2 0xCED JUMP JUMPDEST DUP3 MSTORE POP POP JUMP JUMPDEST PUSH1 0x0 PUSH1 0xC0 DUP3 ADD SWAP1 POP PUSH2 0xD1D PUSH1 0x0 DUP4 ADD DUP10 PUSH2 0xC7C JUMP JUMPDEST PUSH2 0xD2A PUSH1 0x20 DUP4 ADD DUP9 PUSH2 0xCBD JUMP JUMPDEST PUSH2 0xD37 PUSH1 0x40 DUP4 ADD DUP8 PUSH2 0xC7C JUMP JUMPDEST PUSH2 0xD44 PUSH1 0x60 DUP4 ADD DUP7 PUSH2 0xCDE JUMP JUMPDEST PUSH2 0xD51 PUSH1 0x80 DUP4 ADD DUP6 PUSH2 0xC7C JUMP JUMPDEST PUSH2 0xD5E PUSH1 0xA0 DUP4 ADD DUP5 PUSH2 0xCF9 JUMP JUMPDEST SWAP8 SWAP7 POP POP POP POP POP POP POP JUMP JUMPDEST PUSH2 0xD72 DUP2 PUSH2 0xCAB JUMP JUMPDEST DUP2 EQ PUSH2 0xD7D JUMPI PUSH1 0x0 DUP1 REVERT JUMPDEST POP JUMP JUMPDEST PUSH1 0x0 DUP2 CALLDATALOAD SWAP1 POP PUSH2 0xD8F DUP2 PUSH2 0xD69 JUMP JUMPDEST SWAP3 SWAP2 POP POP JUMP JUMPDEST PUSH1 0x0 DUP1 PUSH1 0x0 PUSH1 0x60 DUP5 DUP7 SUB SLT ISZERO PUSH2 0xDAE JUMPI PUSH2 0xDAD PUSH2 0xC14 JUMP JUMPDEST JUMPDEST PUSH1 0x0 PUSH2 0xDBC DUP7 DUP3 DUP8 ADD PUSH2 0xC3A JUMP JUMPDEST SWAP4 POP POP PUSH1 0x20 PUSH2 0xDCD DUP7 DUP3 DUP8 ADD PUSH2 0xD80 JUMP JUMPDEST SWAP3 POP POP PUSH1 0x40 PUSH2 0xDDE DUP7 DUP3 DUP8 ADD PUSH2 0xC3A JUMP JUMPDEST SWAP2 POP POP SWAP3 POP SWAP3 POP SWAP3 JUMP JUMPDEST PUSH1 0x0 PUSH1 0x20 DUP3 ADD SWAP1 POP PUSH2 0xDFD PUSH1 0x0 DUP4 ADD DUP5 PUSH2 0xC7C JUMP JUMPDEST SWAP3 SWAP2 POP POP JUMP JUMPDEST PUSH1 0x0 DUP2 MLOAD SWAP1 POP PUSH2 0xE12 DUP2 PUSH2 0xD69 JUMP JUMPDEST SWAP3 SWAP2 POP POP JUMP JUMPDEST PUSH1 0x0 PUSH1 0x20 DUP3 DUP5 SUB SLT ISZERO PUSH2 0xE2E JUMPI PUSH2 0xE2D PUSH2 0xC14 JUMP JUMPDEST JUMPDEST PUSH1 0x0 PUSH2 0xE3C DUP5 DUP3 DUP6 ADD PUSH2 0xE03 JUMP JUMPDEST SWAP2 POP POP SWAP3 SWAP2 POP POP JUMP JUMPDEST PUSH1 0x0 DUP3 DUP3 MSTORE PUSH1 0x20 DUP3 ADD SWAP1 POP SWAP3 SWAP2 POP POP JUMP JUMPDEST PUSH32 0x6954656D20697320416C726561647920757020666F722053616C650000000000 PUSH1 0x0 DUP3 ADD MSTORE POP JUMP JUMPDEST PUSH1 0x0 PUSH2 0xE8C PUSH1 0x1B DUP4 PUSH2 0xE45 JUMP JUMPDEST SWAP2 POP PUSH2 0xE97 DUP3 PUSH2 0xE56 JUMP JUMPDEST PUSH1 0x20 DUP3 ADD SWAP1 POP SWAP2 SWAP1 POP JUMP JUMPDEST PUSH1 0x0 PUSH1 0x20 DUP3 ADD SWAP1 POP DUP2 DUP2 SUB PUSH1 0x0 DUP4 ADD MSTORE PUSH2 0xEBB DUP2 PUSH2 0xE7F JUMP JUMPDEST SWAP1 POP SWAP2 SWAP1 POP JUMP JUMPDEST PUSH32 0x4E487B7100000000000000000000000000000000000000000000000000000000 PUSH1 0x0 MSTORE PUSH1 0x32 PUSH1 0x4 MSTORE PUSH1 0x24 PUSH1 0x0 REVERT JUMPDEST PUSH32 0x4E487B7100000000000000000000000000000000000000000000000000000000 PUSH1 0x0 MSTORE PUSH1 0x1 PUSH1 0x4 MSTORE PUSH1 0x24 PUSH1 0x0 REVERT JUMPDEST PUSH1 0x0 PUSH1 0x80 DUP3 ADD SWAP1 POP PUSH2 0xF35 PUSH1 0x0 DUP4 ADD DUP8 PUSH2 0xC7C JUMP JUMPDEST PUSH2 0xF42 PUSH1 0x20 DUP4 ADD DUP7 PUSH2 0xC7C JUMP JUMPDEST PUSH2 0xF4F PUSH1 0x40 DUP4 ADD DUP6 PUSH2 0xCBD JUMP JUMPDEST PUSH2 0xF5C PUSH1 0x60 DUP4 ADD DUP5 PUSH2 0xC7C JUMP JUMPDEST SWAP6 SWAP5 POP POP POP POP POP JUMP JUMPDEST PUSH32 0x436F756C64204E6F742046696E64204974656D73000000000000000000000000 PUSH1 0x0 DUP3 ADD MSTORE POP JUMP JUMPDEST PUSH1 0x0 PUSH2 0xF9B PUSH1 0x14 DUP4 PUSH2 0xE45 JUMP JUMPDEST SWAP2 POP PUSH2 0xFA6 DUP3 PUSH2 0xF65 JUMP JUMPDEST PUSH1 0x20 DUP3 ADD SWAP1 POP SWAP2 SWAP1 POP JUMP JUMPDEST PUSH1 0x0 PUSH1 0x20 DUP3 ADD SWAP1 POP DUP2 DUP2 SUB PUSH1 0x0 DUP4 ADD MSTORE PUSH2 0xFCA DUP2 PUSH2 0xF8E JUMP JUMPDEST SWAP1 POP SWAP2 SWAP1 POP JUMP JUMPDEST PUSH32 0x6974656D20697320616C726561647920736F6C64000000000000000000000000 PUSH1 0x0 DUP3 ADD MSTORE POP JUMP JUMPDEST PUSH1 0x0 PUSH2 0x1007 PUSH1 0x14 DUP4 PUSH2 0xE45 JUMP JUMPDEST SWAP2 POP PUSH2 0x1012 DUP3 PUSH2 0xFD1 JUMP JUMPDEST PUSH1 0x20 DUP3 ADD SWAP1 POP SWAP2 SWAP1 POP JUMP JUMPDEST PUSH1 0x0 PUSH1 0x20 DUP3 ADD SWAP1 POP DUP2 DUP2 SUB PUSH1 0x0 DUP4 ADD MSTORE PUSH2 0x1036 DUP2 PUSH2 0xFFA JUMP JUMPDEST SWAP1 POP SWAP2 SWAP1 POP JUMP JUMPDEST PUSH32 0x6E6F7420456E6F7567682046756E647300000000000000000000000000000000 PUSH1 0x0 DUP3 ADD MSTORE POP JUMP JUMPDEST PUSH1 0x0 PUSH2 0x1073 PUSH1 0x10 DUP4 PUSH2 0xE45 JUMP JUMPDEST SWAP2 POP PUSH2 0x107E DUP3 PUSH2 0x103D JUMP JUMPDEST PUSH1 0x20 DUP3 ADD SWAP1 POP SWAP2 SWAP1 POP JUMP JUMPDEST PUSH1 0x0 PUSH1 0x20 DUP3 ADD SWAP1 POP DUP2 DUP2 SUB PUSH1 0x0 DUP4 ADD MSTORE PUSH2 0x10A2 DUP2 PUSH2 0x1066 JUMP JUMPDEST SWAP1 POP SWAP2 SWAP1 POP JUMP JUMPDEST PUSH1 0x0 DUP2 SWAP1 POP SWAP2 SWAP1 POP JUMP JUMPDEST PUSH1 0x0 PUSH2 0x10CE PUSH2 0x10C9 PUSH2 0x10C4 DUP5 PUSH2 0xC8B JUMP JUMPDEST PUSH2 0x10A9 JUMP JUMPDEST PUSH2 0xC8B JUMP JUMPDEST SWAP1 POP SWAP2 SWAP1 POP JUMP JUMPDEST PUSH1 0x0 PUSH2 0x10E0 DUP3 PUSH2 0x10B3 JUMP JUMPDEST SWAP1 POP SWAP2 SWAP1 POP JUMP JUMPDEST PUSH1 0x0 PUSH2 0x10F2 DUP3 PUSH2 0x10D5 JUMP JUMPDEST SWAP1 POP SWAP2 SWAP1 POP JUMP JUMPDEST PUSH2 0x1102 DUP2 PUSH2 0x10E7 JUMP JUMPDEST DUP3 MSTORE POP POP JUMP JUMPDEST PUSH1 0x0 PUSH1 0x60 DUP3 ADD SWAP1 POP PUSH2 0x111D PUSH1 0x0 DUP4 ADD DUP7 PUSH2 0x10F9 JUMP JUMPDEST PUSH2 0x112A PUSH1 0x20 DUP4 ADD DUP6 PUSH2 0xCBD JUMP JUMPDEST PUSH2 0x1137 PUSH1 0x40 DUP4 ADD DUP5 PUSH2 0xC7C JUMP JUMPDEST SWAP5 SWAP4 POP POP POP POP JUMP JUMPDEST PUSH1 0x0 PUSH1 0x60 DUP3 ADD SWAP1 POP PUSH2 0x1154 PUSH1 0x0 DUP4 ADD DUP7 PUSH2 0xC7C JUMP JUMPDEST PUSH2 0x1161 PUSH1 0x20 DUP4 ADD DUP6 PUSH2 0xCBD JUMP JUMPDEST PUSH2 0x116E PUSH1 0x40 DUP4 ADD DUP5 PUSH2 0xC7C JUMP JUMPDEST SWAP5 SWAP4 POP POP POP POP JUMP INVALID LOG2 PUSH5 0x6970667358 0x22 SLT KECCAK256 PUSH14 0x95B659ED0E30217DCB74BE1DE2C4 0xE4 0xA8 0xE6 0xE 0x29 0xCE SAR 0x2D 0xF8 0x4A 0x4D 0xE PUSH25 0x867ADCC864736F6C6343000809003300000000000000000000 "
		},
		"gasEstimates": {
			"creation": {
				"codeDepositCost": "904800",
				"executionCost": "942",
				"totalCost": "905742"
			},
			"external": {
				"addItemToMaket(uint256,address,uint256)": "infinite",
				"buyItem(uint256)": "infinite",
				"itemsForSale(uint256)": "infinite"
			}
		},
		"methodIdentifiers": {
			"addItemToMaket(uint256,address,uint256)": "452407e2",
			"buyItem(uint256)": "e7fb74c7",
			"itemsForSale(uint256)": "092d0afc"
		}
	},
	"abi": [
		{
			"anonymous": false,
			"inputs": [
				{
					"indexed": false,
					"internalType": "uint256",
					"name": "id",
					"type": "uint256"
				},
				{
					"indexed": false,
					"internalType": "uint256",
					"name": "tokenId",
					"type": "uint256"
				},
				{
					"indexed": false,
					"internalType": "address",
					"name": "tokenAddress",
					"type": "address"
				},
				{
					"indexed": false,
					"internalType": "uint256",
					"name": "askingPrice",
					"type": "uint256"
				}
			],
			"name": "itemAdded",
			"type": "event"
		},
		{
			"anonymous": false,
			"inputs": [
				{
					"indexed": false,
					"internalType": "uint256",
					"name": "id",
					"type": "uint256"
				},
				{
					"indexed": false,
					"internalType": "address",
					"name": "buyer",
					"type": "address"
				},
				{
					"indexed": false,
					"internalType": "uint256",
					"name": "askingPrice",
					"type": "uint256"
				}
			],
			"name": "itemSold",
			"type": "event"
		},
		{
			"inputs": [
				{
					"internalType": "uint256",
					"name": "tokenId",
					"type": "uint256"
				},
				{
					"internalType": "address",
					"name": "tokenAddress",
					"type": "address"
				},
				{
					"internalType": "uint256",
					"name": "askingPrice",
					"type": "uint256"
				}
			],
			"name": "addItemToMaket",
			"outputs": [
				{
					"internalType": "uint256",
					"name": "",
					"type": "uint256"
				}
			],
			"stateMutability": "nonpayable",
			"type": "function"
		},
		{
			"inputs": [
				{
					"internalType": "uint256",
					"name": "id",
					"type": "uint256"
				}
			],
			"name": "buyItem",
			"outputs": [],
			"stateMutability": "payable",
			"type": "function"
		},
		{
			"inputs": [
				{
					"internalType": "uint256",
					"name": "",
					"type": "uint256"
				}
			],
			"name": "itemsForSale",
			"outputs": [
				{
					"internalType": "uint256",
					"name": "id",
					"type": "uint256"
				},
				{
					"internalType": "address",
					"name": "tokenAddress",
					"type": "address"
				},
				{
					"internalType": "uint256",
					"name": "tokenId",
					"type": "uint256"
				},
				{
					"internalType": "address payable",
					"name": "seller",
					"type": "address"
				},
				{
					"internalType": "uint256",
					"name": "askingPrice",
					"type": "uint256"
				},
				{
					"internalType": "bool",
					"name": "isSold",
					"type": "bool"
				}
			],
			"stateMutability": "view",
			"type": "function"
		}
	]
}