{
	"contracts/MorarableMarketContract.sol": {
		"MorarableMarketContract": {
			"abi": [
				{
					"anonymous": false,
					"inputs": [
						{
							"indexed": false,
							"internalType": "uint256",
							"name": "id",
							"type": "uint256"
						},
						{
							"indexed": false,
							"internalType": "uint256",
							"name": "tokenId",
							"type": "uint256"
						},
						{
							"indexed": false,
							"internalType": "address",
							"name": "tokenAddress",
							"type": "address"
						},
						{
							"indexed": false,
							"internalType": "uint256",
							"name": "askingPrice",
							"type": "uint256"
						}
					],
					"name": "itemAdded",
					"type": "event"
				},
				{
					"anonymous": false,
					"inputs": [
						{
							"indexed": false,
							"internalType": "uint256",
							"name": "id",
							"type": "uint256"
						},
						{
							"indexed": false,
							"internalType": "address",
							"name": "buyer",
							"type": "address"
						},
						{
							"indexed": false,
							"internalType": "uint256",
							"name": "askingPrice",
							"type": "uint256"
						}
					],
					"name": "itemSold",
					"type": "event"
				},
				{
					"inputs": [
						{
							"internalType": "uint256",
							"name": "tokenId",
							"type": "uint256"
						},
						{
							"internalType": "address",
							"name": "tokenAddress",
							"type": "address"
						},
						{
							"internalType": "uint256",
							"name": "askingPrice",
							"type": "uint256"
						}
					],
					"name": "addItemToMaket",
					"outputs": [
						{
							"internalType": "uint256",
							"name": "",
							"type": "uint256"
						}
					],
					"stateMutability": "nonpayable",
					"type": "function"
				},
				{
					"inputs": [
						{
							"internalType": "uint256",
							"name": "id",
							"type": "uint256"
						}
					],
					"name": "buyItem",
					"outputs": [],
					"stateMutability": "payable",
					"type": "function"
				},
				{
					"inputs": [
						{
							"internalType": "uint256",
							"name": "",
							"type": "uint256"
						}
					],
					"name": "itemsForSale",
					"outputs": [
						{
							"internalType": "uint256",
							"name": "id",
							"type": "uint256"
						},
						{
							"internalType": "address",
							"name": "tokenAddress",
							"type": "address"
						},
						{
							"internalType": "uint256",
							"name": "tokenId",
							"type": "uint256"
						},
						{
							"internalType": "address payable",
							"name": "seller",
							"type": "address"
						},
						{
							"internalType": "uint256",
							"name": "askingPrice",
							"type": "uint256"
						},
						{
							"internalType": "bool",
							"name": "isSold",
							"type": "bool"
						}
					],
					"stateMutability": "view",
					"type": "function"
				}
			],
			"devdoc": {
				"kind": "dev",
				"methods": {},
				"version": 1
			},
			"evm": {
				"assembly": "    /* \"contracts/MorarableMarketContract.sol\":122:2702  contract MorarableMarketContract {... */\n  mstore(0x40, 0x80)\n  callvalue\n  dup1\n  iszero\n  tag_1\n  jumpi\n  0x00\n  dup1\n  revert\ntag_1:\n  pop\n  dataSize(sub_0)\n  dup1\n  dataOffset(sub_0)\n  0x00\n  codecopy\n  0x00\n  return\nstop\n\nsub_0: assembly {\n        /* \"contracts/MorarableMarketContract.sol\":122:2702  contract MorarableMarketContract {... */\n      mstore(0x40, 0x80)\n      jumpi(tag_1, lt(calldatasize, 0x04))\n      shr(0xe0, calldataload(0x00))\n      dup1\n      0x092d0afc\n      eq\n      tag_2\n      jumpi\n      dup1\n      0x452407e2\n      eq\n      tag_3\n      jumpi\n      dup1\n      0xe7fb74c7\n      eq\n      tag_4\n      jumpi\n    tag_1:\n      0x00\n      dup1\n      revert\n        /* \"contracts/MorarableMarketContract.sol\":361:394  AuctionItem[] public itemsForSale */\n    tag_2:\n      callvalue\n      dup1\n      iszero\n      tag_5\n      jumpi\n      0x00\n      dup1\n      revert\n    tag_5:\n      pop\n      tag_6\n      0x04\n      dup1\n      calldatasize\n      sub\n      dup2\n      add\n      swap1\n      tag_7\n      swap2\n      swap1\n      tag_8\n      jump\t// in\n    tag_7:\n      tag_9\n      jump\t// in\n    tag_6:\n      mload(0x40)\n      tag_10\n      swap7\n      swap6\n      swap5\n      swap4\n      swap3\n      swap2\n      swap1\n      tag_11\n      jump\t// in\n    tag_10:\n      mload(0x40)\n      dup1\n      swap2\n      sub\n      swap1\n      return\n        /* \"contracts/MorarableMarketContract.sol\":1347:1999  function addItemToMaket(uint256 tokenId,address tokenAddress,uint256 askingPrice) OnlyItemOwner(tokenAddress,tokenId) HasTransferApproval(tokenAddress,tokenId) external returns (uint256){... */\n    tag_3:\n      callvalue\n      dup1\n      iszero\n      tag_12\n      jumpi\n      0x00\n      dup1\n      revert\n    tag_12:\n      pop\n      tag_13\n      0x04\n      dup1\n      calldatasize\n      sub\n      dup2\n      add\n      swap1\n      tag_14\n      swap2\n      swap1\n      tag_15\n      jump\t// in\n    tag_14:\n      tag_16\n      jump\t// in\n    tag_13:\n      mload(0x40)\n      tag_17\n      swap2\n      swap1\n      tag_18\n      jump\t// in\n    tag_17:\n      mload(0x40)\n      dup1\n      swap2\n      sub\n      swap1\n      return\n        /* \"contracts/MorarableMarketContract.sol\":2007:2689  function buyItem(uint256 id ) payable external ItemExists(id) IsForSale(id) HasTransferApproval(itemsForSale[id].tokenAddress, itemsForSale[id].tokenId){... */\n    tag_4:\n      tag_19\n      0x04\n      dup1\n      calldatasize\n      sub\n      dup2\n      add\n      swap1\n      tag_20\n      swap2\n      swap1\n      tag_8\n      jump\t// in\n    tag_20:\n      tag_21\n      jump\t// in\n    tag_19:\n      stop\n        /* \"contracts/MorarableMarketContract.sol\":361:394  AuctionItem[] public itemsForSale */\n    tag_9:\n      0x00\n      dup2\n      dup2\n      sload\n      dup2\n      lt\n      tag_22\n      jumpi\n      0x00\n      dup1\n      revert\n    tag_22:\n      swap1\n      0x00\n      mstore\n      keccak256(0x00, 0x20)\n      swap1\n      0x06\n      mul\n      add\n      0x00\n      swap2\n      pop\n      swap1\n      pop\n      dup1\n      0x00\n      add\n      sload\n      swap1\n      dup1\n      0x01\n      add\n      0x00\n      swap1\n      sload\n      swap1\n      0x0100\n      exp\n      swap1\n      div\n      0xffffffffffffffffffffffffffffffffffffffff\n      and\n      swap1\n      dup1\n      0x02\n      add\n      sload\n      swap1\n      dup1\n      0x03\n      add\n      0x00\n      swap1\n      sload\n      swap1\n      0x0100\n      exp\n      swap1\n      div\n      0xffffffffffffffffffffffffffffffffffffffff\n      and\n      swap1\n      dup1\n      0x04\n      add\n      sload\n      swap1\n      dup1\n      0x05\n      add\n      0x00\n      swap1\n      sload\n      swap1\n      0x0100\n      exp\n      swap1\n      div\n      0xff\n      and\n      swap1\n      pop\n      dup7\n      jump\t// out\n        /* \"contracts/MorarableMarketContract.sol\":1347:1999  function addItemToMaket(uint256 tokenId,address tokenAddress,uint256 askingPrice) OnlyItemOwner(tokenAddress,tokenId) HasTransferApproval(tokenAddress,tokenId) external returns (uint256){... */\n    tag_16:\n        /* \"contracts/MorarableMarketContract.sol\":1525:1532  uint256 */\n      0x00\n        /* \"contracts/MorarableMarketContract.sol\":1443:1455  tokenAddress */\n      dup3\n        /* \"contracts/MorarableMarketContract.sol\":1456:1463  tokenId */\n      dup5\n        /* \"contracts/MorarableMarketContract.sol\":701:722  IERC721 tokenContract */\n      0x00\n        /* \"contracts/MorarableMarketContract.sol\":733:745  tokenAddress */\n      dup3\n        /* \"contracts/MorarableMarketContract.sol\":701:746  IERC721 tokenContract = IERC721(tokenAddress) */\n      swap1\n      pop\n        /* \"contracts/MorarableMarketContract.sol\":798:808  msg.sender */\n      caller\n        /* \"contracts/MorarableMarketContract.sol\":765:808  tokenContract.ownerOf(tokenId)== msg.sender */\n      0xffffffffffffffffffffffffffffffffffffffff\n      and\n        /* \"contracts/MorarableMarketContract.sol\":765:778  tokenContract */\n      dup2\n        /* \"contracts/MorarableMarketContract.sol\":765:786  tokenContract.ownerOf */\n      0xffffffffffffffffffffffffffffffffffffffff\n      and\n      0x6352211e\n        /* \"contracts/MorarableMarketContract.sol\":787:794  tokenId */\n      dup5\n        /* \"contracts/MorarableMarketContract.sol\":765:795  tokenContract.ownerOf(tokenId) */\n      mload(0x40)\n      dup3\n      0xffffffff\n      and\n      0xe0\n      shl\n      dup2\n      mstore\n      0x04\n      add\n      tag_25\n      swap2\n      swap1\n      tag_18\n      jump\t// in\n    tag_25:\n      0x20\n      mload(0x40)\n      dup1\n      dup4\n      sub\n      dup2\n      dup7\n      dup1\n      extcodesize\n      iszero\n      dup1\n      iszero\n      tag_26\n      jumpi\n      0x00\n      dup1\n      revert\n    tag_26:\n      pop\n      gas\n      staticcall\n      iszero\n      dup1\n      iszero\n      tag_28\n      jumpi\n      returndatasize\n      0x00\n      dup1\n      returndatacopy\n      revert(0x00, returndatasize)\n    tag_28:\n      pop\n      pop\n      pop\n      pop\n      mload(0x40)\n      returndatasize\n      not(0x1f)\n      0x1f\n      dup3\n      add\n      and\n      dup3\n      add\n      dup1\n      0x40\n      mstore\n      pop\n      dup2\n      add\n      swap1\n      tag_29\n      swap2\n      swap1\n      tag_30\n      jump\t// in\n    tag_29:\n        /* \"contracts/MorarableMarketContract.sol\":765:808  tokenContract.ownerOf(tokenId)== msg.sender */\n      0xffffffffffffffffffffffffffffffffffffffff\n      and\n      eq\n        /* \"contracts/MorarableMarketContract.sol\":757:809  require(tokenContract.ownerOf(tokenId)== msg.sender) */\n      tag_31\n      jumpi\n      0x00\n      dup1\n      revert\n    tag_31:\n        /* \"contracts/MorarableMarketContract.sol\":1485:1497  tokenAddress */\n      dup6\n        /* \"contracts/MorarableMarketContract.sol\":1498:1505  tokenId */\n      dup8\n        /* \"contracts/MorarableMarketContract.sol\":914:935  IERC721 tokenContract */\n      0x00\n        /* \"contracts/MorarableMarketContract.sol\":946:958  tokenAddress */\n      dup3\n        /* \"contracts/MorarableMarketContract.sol\":914:959  IERC721 tokenContract = IERC721(tokenAddress) */\n      swap1\n      pop\n        /* \"contracts/MorarableMarketContract.sol\":1023:1027  this */\n      address\n        /* \"contracts/MorarableMarketContract.sol\":978:1028  tokenContract.getApproved(tokenId)== address(this) */\n      0xffffffffffffffffffffffffffffffffffffffff\n      and\n        /* \"contracts/MorarableMarketContract.sol\":978:991  tokenContract */\n      dup2\n        /* \"contracts/MorarableMarketContract.sol\":978:1003  tokenContract.getApproved */\n      0xffffffffffffffffffffffffffffffffffffffff\n      and\n      0x081812fc\n        /* \"contracts/MorarableMarketContract.sol\":1004:1011  tokenId */\n      dup5\n        /* \"contracts/MorarableMarketContract.sol\":978:1012  tokenContract.getApproved(tokenId) */\n      mload(0x40)\n      dup3\n      0xffffffff\n      and\n      0xe0\n      shl\n      dup2\n      mstore\n      0x04\n      add\n      tag_33\n      swap2\n      swap1\n      tag_18\n      jump\t// in\n    tag_33:\n      0x20\n      mload(0x40)\n      dup1\n      dup4\n      sub\n      dup2\n      dup7\n      dup1\n      extcodesize\n      iszero\n      dup1\n      iszero\n      tag_34\n      jumpi\n      0x00\n      dup1\n      revert\n    tag_34:\n      pop\n      gas\n      staticcall\n      iszero\n      dup1\n      iszero\n      tag_36\n      jumpi\n      returndatasize\n      0x00\n      dup1\n      returndatacopy\n      revert(0x00, returndatasize)\n    tag_36:\n      pop\n      pop\n      pop\n      pop\n      mload(0x40)\n      returndatasize\n      not(0x1f)\n      0x1f\n      dup3\n      add\n      and\n      dup3\n      add\n      dup1\n      0x40\n      mstore\n      pop\n      dup2\n      add\n      swap1\n      tag_37\n      swap2\n      swap1\n      tag_30\n      jump\t// in\n    tag_37:\n        /* \"contracts/MorarableMarketContract.sol\":978:1028  tokenContract.getApproved(tokenId)== address(this) */\n      0xffffffffffffffffffffffffffffffffffffffff\n      and\n      eq\n        /* \"contracts/MorarableMarketContract.sol\":970:1029  require(tokenContract.getApproved(tokenId)== address(this)) */\n      tag_38\n      jumpi\n      0x00\n      dup1\n      revert\n    tag_38:\n        /* \"contracts/MorarableMarketContract.sol\":1588:1593  false */\n      0x00\n        /* \"contracts/MorarableMarketContract.sol\":1552:1593  activeItems[tokenAddress][tokenId]==false */\n      iszero\n      iszero\n        /* \"contracts/MorarableMarketContract.sol\":1552:1563  activeItems */\n      0x01\n        /* \"contracts/MorarableMarketContract.sol\":1552:1577  activeItems[tokenAddress] */\n      0x00\n        /* \"contracts/MorarableMarketContract.sol\":1564:1576  tokenAddress */\n      dup12\n        /* \"contracts/MorarableMarketContract.sol\":1552:1577  activeItems[tokenAddress] */\n      0xffffffffffffffffffffffffffffffffffffffff\n      and\n      0xffffffffffffffffffffffffffffffffffffffff\n      and\n      dup2\n      mstore\n      0x20\n      add\n      swap1\n      dup2\n      mstore\n      0x20\n      add\n      0x00\n      keccak256\n        /* \"contracts/MorarableMarketContract.sol\":1552:1586  activeItems[tokenAddress][tokenId] */\n      0x00\n        /* \"contracts/MorarableMarketContract.sol\":1578:1585  tokenId */\n      dup13\n        /* \"contracts/MorarableMarketContract.sol\":1552:1586  activeItems[tokenAddress][tokenId] */\n      dup2\n      mstore\n      0x20\n      add\n      swap1\n      dup2\n      mstore\n      0x20\n      add\n      0x00\n      keccak256\n      0x00\n      swap1\n      sload\n      swap1\n      0x0100\n      exp\n      swap1\n      div\n      0xff\n      and\n        /* \"contracts/MorarableMarketContract.sol\":1552:1593  activeItems[tokenAddress][tokenId]==false */\n      iszero\n      iszero\n      eq\n        /* \"contracts/MorarableMarketContract.sol\":1544:1624  require(activeItems[tokenAddress][tokenId]==false,\"iTem is Already up for Sale\") */\n      tag_40\n      jumpi\n      mload(0x40)\n      0x08c379a000000000000000000000000000000000000000000000000000000000\n      dup2\n      mstore\n      0x04\n      add\n      tag_41\n      swap1\n      tag_42\n      jump\t// in\n    tag_41:\n      mload(0x40)\n      dup1\n      swap2\n      sub\n      swap1\n      revert\n    tag_40:\n        /* \"contracts/MorarableMarketContract.sol\":1635:1652  uint256 newItemId */\n      0x00\n        /* \"contracts/MorarableMarketContract.sol\":1653:1665  itemsForSale */\n      dup1\n        /* \"contracts/MorarableMarketContract.sol\":1653:1672  itemsForSale.length */\n      dup1\n      sload\n      swap1\n      pop\n        /* \"contracts/MorarableMarketContract.sol\":1635:1672  uint256 newItemId=itemsForSale.length */\n      swap1\n      pop\n        /* \"contracts/MorarableMarketContract.sol\":1683:1695  itemsForSale */\n      0x00\n        /* \"contracts/MorarableMarketContract.sol\":1701:1783  AuctionItem(newItemId,tokenAddress,tokenId,payable(msg.sender),askingPrice,false ) */\n      mload(0x40)\n      dup1\n      0xc0\n      add\n      0x40\n      mstore\n      dup1\n        /* \"contracts/MorarableMarketContract.sol\":1713:1722  newItemId */\n      dup4\n        /* \"contracts/MorarableMarketContract.sol\":1701:1783  AuctionItem(newItemId,tokenAddress,tokenId,payable(msg.sender),askingPrice,false ) */\n      dup2\n      mstore\n      0x20\n      add\n        /* \"contracts/MorarableMarketContract.sol\":1723:1735  tokenAddress */\n      dup13\n        /* \"contracts/MorarableMarketContract.sol\":1701:1783  AuctionItem(newItemId,tokenAddress,tokenId,payable(msg.sender),askingPrice,false ) */\n      0xffffffffffffffffffffffffffffffffffffffff\n      and\n      dup2\n      mstore\n      0x20\n      add\n        /* \"contracts/MorarableMarketContract.sol\":1736:1743  tokenId */\n      dup14\n        /* \"contracts/MorarableMarketContract.sol\":1701:1783  AuctionItem(newItemId,tokenAddress,tokenId,payable(msg.sender),askingPrice,false ) */\n      dup2\n      mstore\n      0x20\n      add\n        /* \"contracts/MorarableMarketContract.sol\":1752:1762  msg.sender */\n      caller\n        /* \"contracts/MorarableMarketContract.sol\":1701:1783  AuctionItem(newItemId,tokenAddress,tokenId,payable(msg.sender),askingPrice,false ) */\n      0xffffffffffffffffffffffffffffffffffffffff\n      and\n      dup2\n      mstore\n      0x20\n      add\n        /* \"contracts/MorarableMarketContract.sol\":1764:1775  askingPrice */\n      dup12\n        /* \"contracts/MorarableMarketContract.sol\":1701:1783  AuctionItem(newItemId,tokenAddress,tokenId,payable(msg.sender),askingPrice,false ) */\n      dup2\n      mstore\n      0x20\n      add\n        /* \"contracts/MorarableMarketContract.sol\":1776:1781  false */\n      0x00\n        /* \"contracts/MorarableMarketContract.sol\":1701:1783  AuctionItem(newItemId,tokenAddress,tokenId,payable(msg.sender),askingPrice,false ) */\n      iszero\n      iszero\n      dup2\n      mstore\n      pop\n        /* \"contracts/MorarableMarketContract.sol\":1683:1784  itemsForSale.push(AuctionItem(newItemId,tokenAddress,tokenId,payable(msg.sender),askingPrice,false )) */\n      swap1\n      dup1\n      0x01\n      dup2\n      sload\n      add\n      dup1\n      dup3\n      sstore\n      dup1\n      swap2\n      pop\n      pop\n      0x01\n      swap1\n      sub\n      swap1\n      0x00\n      mstore\n      keccak256(0x00, 0x20)\n      swap1\n      0x06\n      mul\n      add\n      0x00\n      swap1\n      swap2\n      swap1\n      swap2\n      swap1\n      swap2\n      pop\n      0x00\n      dup3\n      add\n      mload\n      dup2\n      0x00\n      add\n      sstore\n      0x20\n      dup3\n      add\n      mload\n      dup2\n      0x01\n      add\n      exp(0x0100, 0x00)\n      dup2\n      sload\n      dup2\n      0xffffffffffffffffffffffffffffffffffffffff\n      mul\n      not\n      and\n      swap1\n      dup4\n      0xffffffffffffffffffffffffffffffffffffffff\n      and\n      mul\n      or\n      swap1\n      sstore\n      pop\n      0x40\n      dup3\n      add\n      mload\n      dup2\n      0x02\n      add\n      sstore\n      0x60\n      dup3\n      add\n      mload\n      dup2\n      0x03\n      add\n      exp(0x0100, 0x00)\n      dup2\n      sload\n      dup2\n      0xffffffffffffffffffffffffffffffffffffffff\n      mul\n      not\n      and\n      swap1\n      dup4\n      0xffffffffffffffffffffffffffffffffffffffff\n      and\n      mul\n      or\n      swap1\n      sstore\n      pop\n      0x80\n      dup3\n      add\n      mload\n      dup2\n      0x04\n      add\n      sstore\n      0xa0\n      dup3\n      add\n      mload\n      dup2\n      0x05\n      add\n      exp(0x0100, 0x00)\n      dup2\n      sload\n      dup2\n      0xff\n      mul\n      not\n      and\n      swap1\n      dup4\n      iszero\n      iszero\n      mul\n      or\n      swap1\n      sstore\n      pop\n      pop\n      pop\n        /* \"contracts/MorarableMarketContract.sol\":1830:1834  true */\n      0x01\n        /* \"contracts/MorarableMarketContract.sol\":1795:1806  activeItems */\n      dup1\n        /* \"contracts/MorarableMarketContract.sol\":1795:1820  activeItems[tokenAddress] */\n      0x00\n        /* \"contracts/MorarableMarketContract.sol\":1807:1819  tokenAddress */\n      dup13\n        /* \"contracts/MorarableMarketContract.sol\":1795:1820  activeItems[tokenAddress] */\n      0xffffffffffffffffffffffffffffffffffffffff\n      and\n      0xffffffffffffffffffffffffffffffffffffffff\n      and\n      dup2\n      mstore\n      0x20\n      add\n      swap1\n      dup2\n      mstore\n      0x20\n      add\n      0x00\n      keccak256\n        /* \"contracts/MorarableMarketContract.sol\":1795:1829  activeItems[tokenAddress][tokenId] */\n      0x00\n        /* \"contracts/MorarableMarketContract.sol\":1821:1828  tokenId */\n      dup14\n        /* \"contracts/MorarableMarketContract.sol\":1795:1829  activeItems[tokenAddress][tokenId] */\n      dup2\n      mstore\n      0x20\n      add\n      swap1\n      dup2\n      mstore\n      0x20\n      add\n      0x00\n      keccak256\n      0x00\n        /* \"contracts/MorarableMarketContract.sol\":1795:1834  activeItems[tokenAddress][tokenId]=true */\n      0x0100\n      exp\n      dup2\n      sload\n      dup2\n      0xff\n      mul\n      not\n      and\n      swap1\n      dup4\n      iszero\n      iszero\n      mul\n      or\n      swap1\n      sstore\n      pop\n        /* \"contracts/MorarableMarketContract.sol\":1880:1889  newItemId */\n      dup1\n        /* \"contracts/MorarableMarketContract.sol\":1852:1864  itemsForSale */\n      0x00\n        /* \"contracts/MorarableMarketContract.sol\":1865:1874  newItemId */\n      dup3\n        /* \"contracts/MorarableMarketContract.sol\":1852:1875  itemsForSale[newItemId] */\n      dup2\n      sload\n      dup2\n      lt\n      tag_44\n      jumpi\n      tag_45\n      tag_46\n      jump\t// in\n    tag_45:\n    tag_44:\n      swap1\n      0x00\n      mstore\n      keccak256(0x00, 0x20)\n      swap1\n      0x06\n      mul\n      add\n        /* \"contracts/MorarableMarketContract.sol\":1852:1878  itemsForSale[newItemId].id */\n      0x00\n      add\n      sload\n        /* \"contracts/MorarableMarketContract.sol\":1852:1889  itemsForSale[newItemId].id==newItemId */\n      eq\n        /* \"contracts/MorarableMarketContract.sol\":1845:1890  assert(itemsForSale[newItemId].id==newItemId) */\n      tag_48\n      jumpi\n      tag_49\n      tag_50\n      jump\t// in\n    tag_49:\n    tag_48:\n        /* \"contracts/MorarableMarketContract.sol\":1906:1962  itemAdded( newItemId, tokenId,tokenAddress, askingPrice) */\n      0xd3742413e0092c98517699ed9f8567218c740a5a265a7a986d9430d597937522\n        /* \"contracts/MorarableMarketContract.sol\":1917:1926  newItemId */\n      dup2\n        /* \"contracts/MorarableMarketContract.sol\":1928:1935  tokenId */\n      dup13\n        /* \"contracts/MorarableMarketContract.sol\":1936:1948  tokenAddress */\n      dup13\n        /* \"contracts/MorarableMarketContract.sol\":1950:1961  askingPrice */\n      dup13\n        /* \"contracts/MorarableMarketContract.sol\":1906:1962  itemAdded( newItemId, tokenId,tokenAddress, askingPrice) */\n      mload(0x40)\n      tag_51\n      swap5\n      swap4\n      swap3\n      swap2\n      swap1\n      tag_52\n      jump\t// in\n    tag_51:\n      mload(0x40)\n      dup1\n      swap2\n      sub\n      swap1\n      log1\n        /* \"contracts/MorarableMarketContract.sol\":1980:1989  newItemId */\n      dup1\n        /* \"contracts/MorarableMarketContract.sol\":1973:1989  return newItemId */\n      swap8\n      pop\n      pop\n        /* \"contracts/MorarableMarketContract.sol\":903:1049  {... */\n      pop\n        /* \"contracts/MorarableMarketContract.sol\":820:821  _ */\n      pop\n      pop\n        /* \"contracts/MorarableMarketContract.sol\":690:829  {... */\n      pop\n        /* \"contracts/MorarableMarketContract.sol\":1347:1999  function addItemToMaket(uint256 tokenId,address tokenAddress,uint256 askingPrice) OnlyItemOwner(tokenAddress,tokenId) HasTransferApproval(tokenAddress,tokenId) external returns (uint256){... */\n      pop\n      pop\n      swap4\n      swap3\n      pop\n      pop\n      pop\n      jump\t// out\n        /* \"contracts/MorarableMarketContract.sol\":2007:2689  function buyItem(uint256 id ) payable external ItemExists(id) IsForSale(id) HasTransferApproval(itemsForSale[id].tokenAddress, itemsForSale[id].tokenId){... */\n    tag_21:\n        /* \"contracts/MorarableMarketContract.sol\":2065:2067  id */\n      dup1\n        /* \"contracts/MorarableMarketContract.sol\":1113:1125  itemsForSale */\n      0x00\n        /* \"contracts/MorarableMarketContract.sol\":1113:1132  itemsForSale.length */\n      dup1\n      sload\n      swap1\n      pop\n        /* \"contracts/MorarableMarketContract.sol\":1108:1110  id */\n      dup2\n        /* \"contracts/MorarableMarketContract.sol\":1108:1132  id < itemsForSale.length */\n      lt\n        /* \"contracts/MorarableMarketContract.sol\":1108:1159  id < itemsForSale.length && itemsForSale[id].id==id */\n      dup1\n      iszero\n      tag_54\n      jumpi\n      pop\n        /* \"contracts/MorarableMarketContract.sol\":1157:1159  id */\n      dup1\n        /* \"contracts/MorarableMarketContract.sol\":1136:1148  itemsForSale */\n      0x00\n        /* \"contracts/MorarableMarketContract.sol\":1149:1151  id */\n      dup3\n        /* \"contracts/MorarableMarketContract.sol\":1136:1152  itemsForSale[id] */\n      dup2\n      sload\n      dup2\n      lt\n      tag_55\n      jumpi\n      tag_56\n      tag_46\n      jump\t// in\n    tag_56:\n    tag_55:\n      swap1\n      0x00\n      mstore\n      keccak256(0x00, 0x20)\n      swap1\n      0x06\n      mul\n      add\n        /* \"contracts/MorarableMarketContract.sol\":1136:1155  itemsForSale[id].id */\n      0x00\n      add\n      sload\n        /* \"contracts/MorarableMarketContract.sol\":1136:1159  itemsForSale[id].id==id */\n      eq\n        /* \"contracts/MorarableMarketContract.sol\":1108:1159  id < itemsForSale.length && itemsForSale[id].id==id */\n    tag_54:\n        /* \"contracts/MorarableMarketContract.sol\":1100:1184  require(id < itemsForSale.length && itemsForSale[id].id==id, \"Could Not Find Items\") */\n      tag_58\n      jumpi\n      mload(0x40)\n      0x08c379a000000000000000000000000000000000000000000000000000000000\n      dup2\n      mstore\n      0x04\n      add\n      tag_59\n      swap1\n      tag_60\n      jump\t// in\n    tag_59:\n      mload(0x40)\n      dup1\n      swap2\n      sub\n      swap1\n      revert\n    tag_58:\n        /* \"contracts/MorarableMarketContract.sol\":2079:2081  id */\n      dup2\n        /* \"contracts/MorarableMarketContract.sol\":1286:1291  false */\n      0x00\n        /* \"contracts/MorarableMarketContract.sol\":1261:1291  itemsForSale[id].isSold==false */\n      iszero\n      iszero\n        /* \"contracts/MorarableMarketContract.sol\":1261:1273  itemsForSale */\n      0x00\n        /* \"contracts/MorarableMarketContract.sol\":1274:1276  id */\n      dup3\n        /* \"contracts/MorarableMarketContract.sol\":1261:1277  itemsForSale[id] */\n      dup2\n      sload\n      dup2\n      lt\n      tag_62\n      jumpi\n      tag_63\n      tag_46\n      jump\t// in\n    tag_63:\n    tag_62:\n      swap1\n      0x00\n      mstore\n      keccak256(0x00, 0x20)\n      swap1\n      0x06\n      mul\n      add\n        /* \"contracts/MorarableMarketContract.sol\":1261:1284  itemsForSale[id].isSold */\n      0x05\n      add\n      0x00\n      swap1\n      sload\n      swap1\n      0x0100\n      exp\n      swap1\n      div\n      0xff\n      and\n        /* \"contracts/MorarableMarketContract.sol\":1261:1291  itemsForSale[id].isSold==false */\n      iszero\n      iszero\n      eq\n        /* \"contracts/MorarableMarketContract.sol\":1253:1317  require(itemsForSale[id].isSold==false , \"item is already sold\") */\n      tag_65\n      jumpi\n      mload(0x40)\n      0x08c379a000000000000000000000000000000000000000000000000000000000\n      dup2\n      mstore\n      0x04\n      add\n      tag_66\n      swap1\n      tag_67\n      jump\t// in\n    tag_66:\n      mload(0x40)\n      dup1\n      swap2\n      sub\n      swap1\n      revert\n    tag_65:\n        /* \"contracts/MorarableMarketContract.sol\":2103:2115  itemsForSale */\n      0x00\n        /* \"contracts/MorarableMarketContract.sol\":2116:2118  id */\n      dup4\n        /* \"contracts/MorarableMarketContract.sol\":2103:2119  itemsForSale[id] */\n      dup2\n      sload\n      dup2\n      lt\n      tag_68\n      jumpi\n      tag_69\n      tag_46\n      jump\t// in\n    tag_69:\n    tag_68:\n      swap1\n      0x00\n      mstore\n      keccak256(0x00, 0x20)\n      swap1\n      0x06\n      mul\n      add\n        /* \"contracts/MorarableMarketContract.sol\":2103:2132  itemsForSale[id].tokenAddress */\n      0x01\n      add\n      0x00\n      swap1\n      sload\n      swap1\n      0x0100\n      exp\n      swap1\n      div\n      0xffffffffffffffffffffffffffffffffffffffff\n      and\n        /* \"contracts/MorarableMarketContract.sol\":2134:2146  itemsForSale */\n      0x00\n        /* \"contracts/MorarableMarketContract.sol\":2147:2149  id */\n      dup5\n        /* \"contracts/MorarableMarketContract.sol\":2134:2150  itemsForSale[id] */\n      dup2\n      sload\n      dup2\n      lt\n      tag_71\n      jumpi\n      tag_72\n      tag_46\n      jump\t// in\n    tag_72:\n    tag_71:\n      swap1\n      0x00\n      mstore\n      keccak256(0x00, 0x20)\n      swap1\n      0x06\n      mul\n      add\n        /* \"contracts/MorarableMarketContract.sol\":2134:2158  itemsForSale[id].tokenId */\n      0x02\n      add\n      sload\n        /* \"contracts/MorarableMarketContract.sol\":914:935  IERC721 tokenContract */\n      0x00\n        /* \"contracts/MorarableMarketContract.sol\":946:958  tokenAddress */\n      dup3\n        /* \"contracts/MorarableMarketContract.sol\":914:959  IERC721 tokenContract = IERC721(tokenAddress) */\n      swap1\n      pop\n        /* \"contracts/MorarableMarketContract.sol\":1023:1027  this */\n      address\n        /* \"contracts/MorarableMarketContract.sol\":978:1028  tokenContract.getApproved(tokenId)== address(this) */\n      0xffffffffffffffffffffffffffffffffffffffff\n      and\n        /* \"contracts/MorarableMarketContract.sol\":978:991  tokenContract */\n      dup2\n        /* \"contracts/MorarableMarketContract.sol\":978:1003  tokenContract.getApproved */\n      0xffffffffffffffffffffffffffffffffffffffff\n      and\n      0x081812fc\n        /* \"contracts/MorarableMarketContract.sol\":1004:1011  tokenId */\n      dup5\n        /* \"contracts/MorarableMarketContract.sol\":978:1012  tokenContract.getApproved(tokenId) */\n      mload(0x40)\n      dup3\n      0xffffffff\n      and\n      0xe0\n      shl\n      dup2\n      mstore\n      0x04\n      add\n      tag_75\n      swap2\n      swap1\n      tag_18\n      jump\t// in\n    tag_75:\n      0x20\n      mload(0x40)\n      dup1\n      dup4\n      sub\n      dup2\n      dup7\n      dup1\n      extcodesize\n      iszero\n      dup1\n      iszero\n      tag_76\n      jumpi\n      0x00\n      dup1\n      revert\n    tag_76:\n      pop\n      gas\n      staticcall\n      iszero\n      dup1\n      iszero\n      tag_78\n      jumpi\n      returndatasize\n      0x00\n      dup1\n      returndatacopy\n      revert(0x00, returndatasize)\n    tag_78:\n      pop\n      pop\n      pop\n      pop\n      mload(0x40)\n      returndatasize\n      not(0x1f)\n      0x1f\n      dup3\n      add\n      and\n      dup3\n      add\n      dup1\n      0x40\n      mstore\n      pop\n      dup2\n      add\n      swap1\n      tag_79\n      swap2\n      swap1\n      tag_30\n      jump\t// in\n    tag_79:\n        /* \"contracts/MorarableMarketContract.sol\":978:1028  tokenContract.getApproved(tokenId)== address(this) */\n      0xffffffffffffffffffffffffffffffffffffffff\n      and\n      eq\n        /* \"contracts/MorarableMarketContract.sol\":970:1029  require(tokenContract.getApproved(tokenId)== address(this)) */\n      tag_80\n      jumpi\n      0x00\n      dup1\n      revert\n    tag_80:\n        /* \"contracts/MorarableMarketContract.sol\":2192:2204  itemsForSale */\n      0x00\n        /* \"contracts/MorarableMarketContract.sol\":2205:2207  id */\n      dup7\n        /* \"contracts/MorarableMarketContract.sol\":2192:2208  itemsForSale[id] */\n      dup2\n      sload\n      dup2\n      lt\n      tag_82\n      jumpi\n      tag_83\n      tag_46\n      jump\t// in\n    tag_83:\n    tag_82:\n      swap1\n      0x00\n      mstore\n      keccak256(0x00, 0x20)\n      swap1\n      0x06\n      mul\n      add\n        /* \"contracts/MorarableMarketContract.sol\":2192:2220  itemsForSale[id].askingPrice */\n      0x04\n      add\n      sload\n        /* \"contracts/MorarableMarketContract.sol\":2180:2189  msg.value */\n      callvalue\n        /* \"contracts/MorarableMarketContract.sol\":2180:2220  msg.value >=itemsForSale[id].askingPrice */\n      lt\n      iszero\n        /* \"contracts/MorarableMarketContract.sol\":2172:2241  require(msg.value >=itemsForSale[id].askingPrice, \"not Enough Funds\") */\n      tag_85\n      jumpi\n      mload(0x40)\n      0x08c379a000000000000000000000000000000000000000000000000000000000\n      dup2\n      mstore\n      0x04\n      add\n      tag_86\n      swap1\n      tag_87\n      jump\t// in\n    tag_86:\n      mload(0x40)\n      dup1\n      swap2\n      sub\n      swap1\n      revert\n    tag_85:\n        /* \"contracts/MorarableMarketContract.sol\":2274:2286  itemsForSale */\n      0x00\n        /* \"contracts/MorarableMarketContract.sol\":2287:2289  id */\n      dup7\n        /* \"contracts/MorarableMarketContract.sol\":2274:2290  itemsForSale[id] */\n      dup2\n      sload\n      dup2\n      lt\n      tag_88\n      jumpi\n      tag_89\n      tag_46\n      jump\t// in\n    tag_89:\n    tag_88:\n      swap1\n      0x00\n      mstore\n      keccak256(0x00, 0x20)\n      swap1\n      0x06\n      mul\n      add\n        /* \"contracts/MorarableMarketContract.sol\":2274:2297  itemsForSale[id].seller */\n      0x03\n      add\n      0x00\n      swap1\n      sload\n      swap1\n      0x0100\n      exp\n      swap1\n      div\n      0xffffffffffffffffffffffffffffffffffffffff\n      and\n        /* \"contracts/MorarableMarketContract.sol\":2260:2297  msg.sender != itemsForSale[id].seller */\n      0xffffffffffffffffffffffffffffffffffffffff\n      and\n        /* \"contracts/MorarableMarketContract.sol\":2260:2270  msg.sender */\n      caller\n        /* \"contracts/MorarableMarketContract.sol\":2260:2297  msg.sender != itemsForSale[id].seller */\n      0xffffffffffffffffffffffffffffffffffffffff\n      and\n      eq\n      iszero\n        /* \"contracts/MorarableMarketContract.sol\":2252:2298  require(msg.sender != itemsForSale[id].seller) */\n      tag_91\n      jumpi\n      0x00\n      dup1\n      revert\n    tag_91:\n        /* \"contracts/MorarableMarketContract.sol\":2335:2339  true */\n      0x01\n        /* \"contracts/MorarableMarketContract.sol\":2311:2323  itemsForSale */\n      0x00\n        /* \"contracts/MorarableMarketContract.sol\":2324:2326  id */\n      dup8\n        /* \"contracts/MorarableMarketContract.sol\":2311:2327  itemsForSale[id] */\n      dup2\n      sload\n      dup2\n      lt\n      tag_92\n      jumpi\n      tag_93\n      tag_46\n      jump\t// in\n    tag_93:\n    tag_92:\n      swap1\n      0x00\n      mstore\n      keccak256(0x00, 0x20)\n      swap1\n      0x06\n      mul\n      add\n        /* \"contracts/MorarableMarketContract.sol\":2311:2334  itemsForSale[id].isSold */\n      0x05\n      add\n      0x00\n        /* \"contracts/MorarableMarketContract.sol\":2311:2339  itemsForSale[id].isSold=true */\n      0x0100\n      exp\n      dup2\n      sload\n      dup2\n      0xff\n      mul\n      not\n      and\n      swap1\n      dup4\n      iszero\n      iszero\n      mul\n      or\n      swap1\n      sstore\n      pop\n        /* \"contracts/MorarableMarketContract.sol\":2420:2425  false */\n      0x00\n        /* \"contracts/MorarableMarketContract.sol\":2350:2361  activeItems */\n      0x01\n        /* \"contracts/MorarableMarketContract.sol\":2350:2392  activeItems[itemsForSale[id].tokenAddress] */\n      0x00\n        /* \"contracts/MorarableMarketContract.sol\":2362:2374  itemsForSale */\n      dup1\n        /* \"contracts/MorarableMarketContract.sol\":2375:2377  id */\n      dup10\n        /* \"contracts/MorarableMarketContract.sol\":2362:2378  itemsForSale[id] */\n      dup2\n      sload\n      dup2\n      lt\n      tag_95\n      jumpi\n      tag_96\n      tag_46\n      jump\t// in\n    tag_96:\n    tag_95:\n      swap1\n      0x00\n      mstore\n      keccak256(0x00, 0x20)\n      swap1\n      0x06\n      mul\n      add\n        /* \"contracts/MorarableMarketContract.sol\":2362:2391  itemsForSale[id].tokenAddress */\n      0x01\n      add\n      0x00\n      swap1\n      sload\n      swap1\n      0x0100\n      exp\n      swap1\n      div\n      0xffffffffffffffffffffffffffffffffffffffff\n      and\n        /* \"contracts/MorarableMarketContract.sol\":2350:2392  activeItems[itemsForSale[id].tokenAddress] */\n      0xffffffffffffffffffffffffffffffffffffffff\n      and\n      0xffffffffffffffffffffffffffffffffffffffff\n      and\n      dup2\n      mstore\n      0x20\n      add\n      swap1\n      dup2\n      mstore\n      0x20\n      add\n      0x00\n      keccak256\n        /* \"contracts/MorarableMarketContract.sol\":2350:2419  activeItems[itemsForSale[id].tokenAddress][ itemsForSale[id].tokenId] */\n      0x00\n        /* \"contracts/MorarableMarketContract.sol\":2394:2406  itemsForSale */\n      dup1\n        /* \"contracts/MorarableMarketContract.sol\":2407:2409  id */\n      dup10\n        /* \"contracts/MorarableMarketContract.sol\":2394:2410  itemsForSale[id] */\n      dup2\n      sload\n      dup2\n      lt\n      tag_98\n      jumpi\n      tag_99\n      tag_46\n      jump\t// in\n    tag_99:\n    tag_98:\n      swap1\n      0x00\n      mstore\n      keccak256(0x00, 0x20)\n      swap1\n      0x06\n      mul\n      add\n        /* \"contracts/MorarableMarketContract.sol\":2394:2418  itemsForSale[id].tokenId */\n      0x02\n      add\n      sload\n        /* \"contracts/MorarableMarketContract.sol\":2350:2419  activeItems[itemsForSale[id].tokenAddress][ itemsForSale[id].tokenId] */\n      dup2\n      mstore\n      0x20\n      add\n      swap1\n      dup2\n      mstore\n      0x20\n      add\n      0x00\n      keccak256\n      0x00\n        /* \"contracts/MorarableMarketContract.sol\":2350:2425  activeItems[itemsForSale[id].tokenAddress][ itemsForSale[id].tokenId]=false */\n      0x0100\n      exp\n      dup2\n      sload\n      dup2\n      0xff\n      mul\n      not\n      and\n      swap1\n      dup4\n      iszero\n      iszero\n      mul\n      or\n      swap1\n      sstore\n      pop\n        /* \"contracts/MorarableMarketContract.sol\":2448:2460  itemsForSale */\n      0x00\n        /* \"contracts/MorarableMarketContract.sol\":2461:2463  id */\n      dup7\n        /* \"contracts/MorarableMarketContract.sol\":2448:2464  itemsForSale[id] */\n      dup2\n      sload\n      dup2\n      lt\n      tag_101\n      jumpi\n      tag_102\n      tag_46\n      jump\t// in\n    tag_102:\n    tag_101:\n      swap1\n      0x00\n      mstore\n      keccak256(0x00, 0x20)\n      swap1\n      0x06\n      mul\n      add\n        /* \"contracts/MorarableMarketContract.sol\":2448:2477  itemsForSale[id].tokenAddress */\n      0x01\n      add\n      0x00\n      swap1\n      sload\n      swap1\n      0x0100\n      exp\n      swap1\n      div\n      0xffffffffffffffffffffffffffffffffffffffff\n      and\n        /* \"contracts/MorarableMarketContract.sol\":2440:2495  IERC721(itemsForSale[id].tokenAddress).safeTransferFrom */\n      0xffffffffffffffffffffffffffffffffffffffff\n      and\n      0x42842e0e\n        /* \"contracts/MorarableMarketContract.sol\":2496:2508  itemsForSale */\n      0x00\n        /* \"contracts/MorarableMarketContract.sol\":2509:2511  id */\n      dup9\n        /* \"contracts/MorarableMarketContract.sol\":2496:2512  itemsForSale[id] */\n      dup2\n      sload\n      dup2\n      lt\n      tag_104\n      jumpi\n      tag_105\n      tag_46\n      jump\t// in\n    tag_105:\n    tag_104:\n      swap1\n      0x00\n      mstore\n      keccak256(0x00, 0x20)\n      swap1\n      0x06\n      mul\n      add\n        /* \"contracts/MorarableMarketContract.sol\":2496:2519  itemsForSale[id].seller */\n      0x03\n      add\n      0x00\n      swap1\n      sload\n      swap1\n      0x0100\n      exp\n      swap1\n      div\n      0xffffffffffffffffffffffffffffffffffffffff\n      and\n        /* \"contracts/MorarableMarketContract.sol\":2521:2531  msg.sender */\n      caller\n        /* \"contracts/MorarableMarketContract.sol\":2533:2545  itemsForSale */\n      0x00\n        /* \"contracts/MorarableMarketContract.sol\":2546:2548  id */\n      dup11\n        /* \"contracts/MorarableMarketContract.sol\":2533:2549  itemsForSale[id] */\n      dup2\n      sload\n      dup2\n      lt\n      tag_107\n      jumpi\n      tag_108\n      tag_46\n      jump\t// in\n    tag_108:\n    tag_107:\n      swap1\n      0x00\n      mstore\n      keccak256(0x00, 0x20)\n      swap1\n      0x06\n      mul\n      add\n        /* \"contracts/MorarableMarketContract.sol\":2533:2557  itemsForSale[id].tokenId */\n      0x02\n      add\n      sload\n        /* \"contracts/MorarableMarketContract.sol\":2440:2558  IERC721(itemsForSale[id].tokenAddress).safeTransferFrom(itemsForSale[id].seller, msg.sender, itemsForSale[id].tokenId) */\n      mload(0x40)\n      dup5\n      0xffffffff\n      and\n      0xe0\n      shl\n      dup2\n      mstore\n      0x04\n      add\n      tag_110\n      swap4\n      swap3\n      swap2\n      swap1\n      tag_111\n      jump\t// in\n    tag_110:\n      0x00\n      mload(0x40)\n      dup1\n      dup4\n      sub\n      dup2\n      0x00\n      dup8\n      dup1\n      extcodesize\n      iszero\n      dup1\n      iszero\n      tag_112\n      jumpi\n      0x00\n      dup1\n      revert\n    tag_112:\n      pop\n      gas\n      call\n      iszero\n      dup1\n      iszero\n      tag_114\n      jumpi\n      returndatasize\n      0x00\n      dup1\n      returndatacopy\n      revert(0x00, returndatasize)\n    tag_114:\n      pop\n      pop\n      pop\n      pop\n        /* \"contracts/MorarableMarketContract.sol\":2569:2581  itemsForSale */\n      0x00\n        /* \"contracts/MorarableMarketContract.sol\":2582:2584  id */\n      dup7\n        /* \"contracts/MorarableMarketContract.sol\":2569:2585  itemsForSale[id] */\n      dup2\n      sload\n      dup2\n      lt\n      tag_115\n      jumpi\n      tag_116\n      tag_46\n      jump\t// in\n    tag_116:\n    tag_115:\n      swap1\n      0x00\n      mstore\n      keccak256(0x00, 0x20)\n      swap1\n      0x06\n      mul\n      add\n        /* \"contracts/MorarableMarketContract.sol\":2569:2592  itemsForSale[id].seller */\n      0x03\n      add\n      0x00\n      swap1\n      sload\n      swap1\n      0x0100\n      exp\n      swap1\n      div\n      0xffffffffffffffffffffffffffffffffffffffff\n      and\n        /* \"contracts/MorarableMarketContract.sol\":2569:2601  itemsForSale[id].seller.transfer */\n      0xffffffffffffffffffffffffffffffffffffffff\n      and\n        /* \"contracts/MorarableMarketContract.sol\":2569:2612  itemsForSale[id].seller.transfer(msg.value) */\n      0x08fc\n        /* \"contracts/MorarableMarketContract.sol\":2602:2611  msg.value */\n      callvalue\n        /* \"contracts/MorarableMarketContract.sol\":2569:2612  itemsForSale[id].seller.transfer(msg.value) */\n      swap1\n      dup2\n      iszero\n      mul\n      swap1\n      mload(0x40)\n      0x00\n      mload(0x40)\n      dup1\n      dup4\n      sub\n      dup2\n      dup6\n      dup9\n      dup9\n      call\n      swap4\n      pop\n      pop\n      pop\n      pop\n      iszero\n      dup1\n      iszero\n      tag_119\n      jumpi\n      returndatasize\n      0x00\n      dup1\n      returndatacopy\n      revert(0x00, returndatasize)\n    tag_119:\n      pop\n        /* \"contracts/MorarableMarketContract.sol\":2628:2681  itemSold(id,msg.sender, itemsForSale[id].askingPrice) */\n      0x8164c6f8917e418c49813e4586897c7067de5a886aa1bea980cd11fa57d48264\n        /* \"contracts/MorarableMarketContract.sol\":2637:2639  id */\n      dup7\n        /* \"contracts/MorarableMarketContract.sol\":2640:2650  msg.sender */\n      caller\n        /* \"contracts/MorarableMarketContract.sol\":2652:2664  itemsForSale */\n      0x00\n        /* \"contracts/MorarableMarketContract.sol\":2665:2667  id */\n      dup10\n        /* \"contracts/MorarableMarketContract.sol\":2652:2668  itemsForSale[id] */\n      dup2\n      sload\n      dup2\n      lt\n      tag_120\n      jumpi\n      tag_121\n      tag_46\n      jump\t// in\n    tag_121:\n    tag_120:\n      swap1\n      0x00\n      mstore\n      keccak256(0x00, 0x20)\n      swap1\n      0x06\n      mul\n      add\n        /* \"contracts/MorarableMarketContract.sol\":2652:2680  itemsForSale[id].askingPrice */\n      0x04\n      add\n      sload\n        /* \"contracts/MorarableMarketContract.sol\":2628:2681  itemSold(id,msg.sender, itemsForSale[id].askingPrice) */\n      mload(0x40)\n      tag_123\n      swap4\n      swap3\n      swap2\n      swap1\n      tag_124\n      jump\t// in\n    tag_123:\n      mload(0x40)\n      dup1\n      swap2\n      sub\n      swap1\n      log1\n        /* \"contracts/MorarableMarketContract.sol\":903:1049  {... */\n      pop\n        /* \"contracts/MorarableMarketContract.sol\":1328:1329  _ */\n      pop\n      pop\n        /* \"contracts/MorarableMarketContract.sol\":1195:1196  _ */\n      pop\n        /* \"contracts/MorarableMarketContract.sol\":2007:2689  function buyItem(uint256 id ) payable external ItemExists(id) IsForSale(id) HasTransferApproval(itemsForSale[id].tokenAddress, itemsForSale[id].tokenId){... */\n      pop\n      pop\n      jump\t// out\n        /* \"#utility.yul\":88:205   */\n    tag_126:\n        /* \"#utility.yul\":197:198   */\n      0x00\n        /* \"#utility.yul\":194:195   */\n      dup1\n        /* \"#utility.yul\":187:199   */\n      revert\n        /* \"#utility.yul\":334:411   */\n    tag_128:\n        /* \"#utility.yul\":371:378   */\n      0x00\n        /* \"#utility.yul\":400:405   */\n      dup2\n        /* \"#utility.yul\":389:405   */\n      swap1\n      pop\n        /* \"#utility.yul\":334:411   */\n      swap2\n      swap1\n      pop\n      jump\t// out\n        /* \"#utility.yul\":417:539   */\n    tag_129:\n        /* \"#utility.yul\":490:514   */\n      tag_162\n        /* \"#utility.yul\":508:513   */\n      dup2\n        /* \"#utility.yul\":490:514   */\n      tag_128\n      jump\t// in\n    tag_162:\n        /* \"#utility.yul\":483:488   */\n      dup2\n        /* \"#utility.yul\":480:515   */\n      eq\n        /* \"#utility.yul\":470:533   */\n      tag_163\n      jumpi\n        /* \"#utility.yul\":529:530   */\n      0x00\n        /* \"#utility.yul\":526:527   */\n      dup1\n        /* \"#utility.yul\":519:531   */\n      revert\n        /* \"#utility.yul\":470:533   */\n    tag_163:\n        /* \"#utility.yul\":417:539   */\n      pop\n      jump\t// out\n        /* \"#utility.yul\":545:684   */\n    tag_130:\n        /* \"#utility.yul\":591:596   */\n      0x00\n        /* \"#utility.yul\":629:635   */\n      dup2\n        /* \"#utility.yul\":616:636   */\n      calldataload\n        /* \"#utility.yul\":607:636   */\n      swap1\n      pop\n        /* \"#utility.yul\":645:678   */\n      tag_165\n        /* \"#utility.yul\":672:677   */\n      dup2\n        /* \"#utility.yul\":645:678   */\n      tag_129\n      jump\t// in\n    tag_165:\n        /* \"#utility.yul\":545:684   */\n      swap3\n      swap2\n      pop\n      pop\n      jump\t// out\n        /* \"#utility.yul\":690:1019   */\n    tag_8:\n        /* \"#utility.yul\":749:755   */\n      0x00\n        /* \"#utility.yul\":798:800   */\n      0x20\n        /* \"#utility.yul\":786:795   */\n      dup3\n        /* \"#utility.yul\":777:784   */\n      dup5\n        /* \"#utility.yul\":773:796   */\n      sub\n        /* \"#utility.yul\":769:801   */\n      slt\n        /* \"#utility.yul\":766:885   */\n      iszero\n      tag_167\n      jumpi\n        /* \"#utility.yul\":804:883   */\n      tag_168\n      tag_126\n      jump\t// in\n    tag_168:\n        /* \"#utility.yul\":766:885   */\n    tag_167:\n        /* \"#utility.yul\":924:925   */\n      0x00\n        /* \"#utility.yul\":949:1002   */\n      tag_169\n        /* \"#utility.yul\":994:1001   */\n      dup5\n        /* \"#utility.yul\":985:991   */\n      dup3\n        /* \"#utility.yul\":974:983   */\n      dup6\n        /* \"#utility.yul\":970:992   */\n      add\n        /* \"#utility.yul\":949:1002   */\n      tag_130\n      jump\t// in\n    tag_169:\n        /* \"#utility.yul\":939:1002   */\n      swap2\n      pop\n        /* \"#utility.yul\":895:1012   */\n      pop\n        /* \"#utility.yul\":690:1019   */\n      swap3\n      swap2\n      pop\n      pop\n      jump\t// out\n        /* \"#utility.yul\":1025:1143   */\n    tag_131:\n        /* \"#utility.yul\":1112:1136   */\n      tag_171\n        /* \"#utility.yul\":1130:1135   */\n      dup2\n        /* \"#utility.yul\":1112:1136   */\n      tag_128\n      jump\t// in\n    tag_171:\n        /* \"#utility.yul\":1107:1110   */\n      dup3\n        /* \"#utility.yul\":1100:1137   */\n      mstore\n        /* \"#utility.yul\":1025:1143   */\n      pop\n      pop\n      jump\t// out\n        /* \"#utility.yul\":1149:1275   */\n    tag_132:\n        /* \"#utility.yul\":1186:1193   */\n      0x00\n        /* \"#utility.yul\":1226:1268   */\n      0xffffffffffffffffffffffffffffffffffffffff\n        /* \"#utility.yul\":1219:1224   */\n      dup3\n        /* \"#utility.yul\":1215:1269   */\n      and\n        /* \"#utility.yul\":1204:1269   */\n      swap1\n      pop\n        /* \"#utility.yul\":1149:1275   */\n      swap2\n      swap1\n      pop\n      jump\t// out\n        /* \"#utility.yul\":1281:1377   */\n    tag_133:\n        /* \"#utility.yul\":1318:1325   */\n      0x00\n        /* \"#utility.yul\":1347:1371   */\n      tag_174\n        /* \"#utility.yul\":1365:1370   */\n      dup3\n        /* \"#utility.yul\":1347:1371   */\n      tag_132\n      jump\t// in\n    tag_174:\n        /* \"#utility.yul\":1336:1371   */\n      swap1\n      pop\n        /* \"#utility.yul\":1281:1377   */\n      swap2\n      swap1\n      pop\n      jump\t// out\n        /* \"#utility.yul\":1383:1501   */\n    tag_134:\n        /* \"#utility.yul\":1470:1494   */\n      tag_176\n        /* \"#utility.yul\":1488:1493   */\n      dup2\n        /* \"#utility.yul\":1470:1494   */\n      tag_133\n      jump\t// in\n    tag_176:\n        /* \"#utility.yul\":1465:1468   */\n      dup3\n        /* \"#utility.yul\":1458:1495   */\n      mstore\n        /* \"#utility.yul\":1383:1501   */\n      pop\n      pop\n      jump\t// out\n        /* \"#utility.yul\":1507:1611   */\n    tag_135:\n        /* \"#utility.yul\":1552:1559   */\n      0x00\n        /* \"#utility.yul\":1581:1605   */\n      tag_178\n        /* \"#utility.yul\":1599:1604   */\n      dup3\n        /* \"#utility.yul\":1581:1605   */\n      tag_132\n      jump\t// in\n    tag_178:\n        /* \"#utility.yul\":1570:1605   */\n      swap1\n      pop\n        /* \"#utility.yul\":1507:1611   */\n      swap2\n      swap1\n      pop\n      jump\t// out\n        /* \"#utility.yul\":1617:1759   */\n    tag_136:\n        /* \"#utility.yul\":1720:1752   */\n      tag_180\n        /* \"#utility.yul\":1746:1751   */\n      dup2\n        /* \"#utility.yul\":1720:1752   */\n      tag_135\n      jump\t// in\n    tag_180:\n        /* \"#utility.yul\":1715:1718   */\n      dup3\n        /* \"#utility.yul\":1708:1753   */\n      mstore\n        /* \"#utility.yul\":1617:1759   */\n      pop\n      pop\n      jump\t// out\n        /* \"#utility.yul\":1765:1855   */\n    tag_137:\n        /* \"#utility.yul\":1799:1806   */\n      0x00\n        /* \"#utility.yul\":1842:1847   */\n      dup2\n        /* \"#utility.yul\":1835:1848   */\n      iszero\n        /* \"#utility.yul\":1828:1849   */\n      iszero\n        /* \"#utility.yul\":1817:1849   */\n      swap1\n      pop\n        /* \"#utility.yul\":1765:1855   */\n      swap2\n      swap1\n      pop\n      jump\t// out\n        /* \"#utility.yul\":1861:1970   */\n    tag_138:\n        /* \"#utility.yul\":1942:1963   */\n      tag_183\n        /* \"#utility.yul\":1957:1962   */\n      dup2\n        /* \"#utility.yul\":1942:1963   */\n      tag_137\n      jump\t// in\n    tag_183:\n        /* \"#utility.yul\":1937:1940   */\n      dup3\n        /* \"#utility.yul\":1930:1964   */\n      mstore\n        /* \"#utility.yul\":1861:1970   */\n      pop\n      pop\n      jump\t// out\n        /* \"#utility.yul\":1976:2771   */\n    tag_11:\n        /* \"#utility.yul\":2219:2223   */\n      0x00\n        /* \"#utility.yul\":2257:2260   */\n      0xc0\n        /* \"#utility.yul\":2246:2255   */\n      dup3\n        /* \"#utility.yul\":2242:2261   */\n      add\n        /* \"#utility.yul\":2234:2261   */\n      swap1\n      pop\n        /* \"#utility.yul\":2271:2342   */\n      tag_185\n        /* \"#utility.yul\":2339:2340   */\n      0x00\n        /* \"#utility.yul\":2328:2337   */\n      dup4\n        /* \"#utility.yul\":2324:2341   */\n      add\n        /* \"#utility.yul\":2315:2321   */\n      dup10\n        /* \"#utility.yul\":2271:2342   */\n      tag_131\n      jump\t// in\n    tag_185:\n        /* \"#utility.yul\":2352:2424   */\n      tag_186\n        /* \"#utility.yul\":2420:2422   */\n      0x20\n        /* \"#utility.yul\":2409:2418   */\n      dup4\n        /* \"#utility.yul\":2405:2423   */\n      add\n        /* \"#utility.yul\":2396:2402   */\n      dup9\n        /* \"#utility.yul\":2352:2424   */\n      tag_134\n      jump\t// in\n    tag_186:\n        /* \"#utility.yul\":2434:2506   */\n      tag_187\n        /* \"#utility.yul\":2502:2504   */\n      0x40\n        /* \"#utility.yul\":2491:2500   */\n      dup4\n        /* \"#utility.yul\":2487:2505   */\n      add\n        /* \"#utility.yul\":2478:2484   */\n      dup8\n        /* \"#utility.yul\":2434:2506   */\n      tag_131\n      jump\t// in\n    tag_187:\n        /* \"#utility.yul\":2516:2604   */\n      tag_188\n        /* \"#utility.yul\":2600:2602   */\n      0x60\n        /* \"#utility.yul\":2589:2598   */\n      dup4\n        /* \"#utility.yul\":2585:2603   */\n      add\n        /* \"#utility.yul\":2576:2582   */\n      dup7\n        /* \"#utility.yul\":2516:2604   */\n      tag_136\n      jump\t// in\n    tag_188:\n        /* \"#utility.yul\":2614:2687   */\n      tag_189\n        /* \"#utility.yul\":2682:2685   */\n      0x80\n        /* \"#utility.yul\":2671:2680   */\n      dup4\n        /* \"#utility.yul\":2667:2686   */\n      add\n        /* \"#utility.yul\":2658:2664   */\n      dup6\n        /* \"#utility.yul\":2614:2687   */\n      tag_131\n      jump\t// in\n    tag_189:\n        /* \"#utility.yul\":2697:2764   */\n      tag_190\n        /* \"#utility.yul\":2759:2762   */\n      0xa0\n        /* \"#utility.yul\":2748:2757   */\n      dup4\n        /* \"#utility.yul\":2744:2763   */\n      add\n        /* \"#utility.yul\":2735:2741   */\n      dup5\n        /* \"#utility.yul\":2697:2764   */\n      tag_138\n      jump\t// in\n    tag_190:\n        /* \"#utility.yul\":1976:2771   */\n      swap8\n      swap7\n      pop\n      pop\n      pop\n      pop\n      pop\n      pop\n      pop\n      jump\t// out\n        /* \"#utility.yul\":2777:2899   */\n    tag_139:\n        /* \"#utility.yul\":2850:2874   */\n      tag_192\n        /* \"#utility.yul\":2868:2873   */\n      dup2\n        /* \"#utility.yul\":2850:2874   */\n      tag_133\n      jump\t// in\n    tag_192:\n        /* \"#utility.yul\":2843:2848   */\n      dup2\n        /* \"#utility.yul\":2840:2875   */\n      eq\n        /* \"#utility.yul\":2830:2893   */\n      tag_193\n      jumpi\n        /* \"#utility.yul\":2889:2890   */\n      0x00\n        /* \"#utility.yul\":2886:2887   */\n      dup1\n        /* \"#utility.yul\":2879:2891   */\n      revert\n        /* \"#utility.yul\":2830:2893   */\n    tag_193:\n        /* \"#utility.yul\":2777:2899   */\n      pop\n      jump\t// out\n        /* \"#utility.yul\":2905:3044   */\n    tag_140:\n        /* \"#utility.yul\":2951:2956   */\n      0x00\n        /* \"#utility.yul\":2989:2995   */\n      dup2\n        /* \"#utility.yul\":2976:2996   */\n      calldataload\n        /* \"#utility.yul\":2967:2996   */\n      swap1\n      pop\n        /* \"#utility.yul\":3005:3038   */\n      tag_195\n        /* \"#utility.yul\":3032:3037   */\n      dup2\n        /* \"#utility.yul\":3005:3038   */\n      tag_139\n      jump\t// in\n    tag_195:\n        /* \"#utility.yul\":2905:3044   */\n      swap3\n      swap2\n      pop\n      pop\n      jump\t// out\n        /* \"#utility.yul\":3050:3669   */\n    tag_15:\n        /* \"#utility.yul\":3127:3133   */\n      0x00\n        /* \"#utility.yul\":3135:3141   */\n      dup1\n        /* \"#utility.yul\":3143:3149   */\n      0x00\n        /* \"#utility.yul\":3192:3194   */\n      0x60\n        /* \"#utility.yul\":3180:3189   */\n      dup5\n        /* \"#utility.yul\":3171:3178   */\n      dup7\n        /* \"#utility.yul\":3167:3190   */\n      sub\n        /* \"#utility.yul\":3163:3195   */\n      slt\n        /* \"#utility.yul\":3160:3279   */\n      iszero\n      tag_197\n      jumpi\n        /* \"#utility.yul\":3198:3277   */\n      tag_198\n      tag_126\n      jump\t// in\n    tag_198:\n        /* \"#utility.yul\":3160:3279   */\n    tag_197:\n        /* \"#utility.yul\":3318:3319   */\n      0x00\n        /* \"#utility.yul\":3343:3396   */\n      tag_199\n        /* \"#utility.yul\":3388:3395   */\n      dup7\n        /* \"#utility.yul\":3379:3385   */\n      dup3\n        /* \"#utility.yul\":3368:3377   */\n      dup8\n        /* \"#utility.yul\":3364:3386   */\n      add\n        /* \"#utility.yul\":3343:3396   */\n      tag_130\n      jump\t// in\n    tag_199:\n        /* \"#utility.yul\":3333:3396   */\n      swap4\n      pop\n        /* \"#utility.yul\":3289:3406   */\n      pop\n        /* \"#utility.yul\":3445:3447   */\n      0x20\n        /* \"#utility.yul\":3471:3524   */\n      tag_200\n        /* \"#utility.yul\":3516:3523   */\n      dup7\n        /* \"#utility.yul\":3507:3513   */\n      dup3\n        /* \"#utility.yul\":3496:3505   */\n      dup8\n        /* \"#utility.yul\":3492:3514   */\n      add\n        /* \"#utility.yul\":3471:3524   */\n      tag_140\n      jump\t// in\n    tag_200:\n        /* \"#utility.yul\":3461:3524   */\n      swap3\n      pop\n        /* \"#utility.yul\":3416:3534   */\n      pop\n        /* \"#utility.yul\":3573:3575   */\n      0x40\n        /* \"#utility.yul\":3599:3652   */\n      tag_201\n        /* \"#utility.yul\":3644:3651   */\n      dup7\n        /* \"#utility.yul\":3635:3641   */\n      dup3\n        /* \"#utility.yul\":3624:3633   */\n      dup8\n        /* \"#utility.yul\":3620:3642   */\n      add\n        /* \"#utility.yul\":3599:3652   */\n      tag_130\n      jump\t// in\n    tag_201:\n        /* \"#utility.yul\":3589:3652   */\n      swap2\n      pop\n        /* \"#utility.yul\":3544:3662   */\n      pop\n        /* \"#utility.yul\":3050:3669   */\n      swap3\n      pop\n      swap3\n      pop\n      swap3\n      jump\t// out\n        /* \"#utility.yul\":3675:3897   */\n    tag_18:\n        /* \"#utility.yul\":3768:3772   */\n      0x00\n        /* \"#utility.yul\":3806:3808   */\n      0x20\n        /* \"#utility.yul\":3795:3804   */\n      dup3\n        /* \"#utility.yul\":3791:3809   */\n      add\n        /* \"#utility.yul\":3783:3809   */\n      swap1\n      pop\n        /* \"#utility.yul\":3819:3890   */\n      tag_203\n        /* \"#utility.yul\":3887:3888   */\n      0x00\n        /* \"#utility.yul\":3876:3885   */\n      dup4\n        /* \"#utility.yul\":3872:3889   */\n      add\n        /* \"#utility.yul\":3863:3869   */\n      dup5\n        /* \"#utility.yul\":3819:3890   */\n      tag_131\n      jump\t// in\n    tag_203:\n        /* \"#utility.yul\":3675:3897   */\n      swap3\n      swap2\n      pop\n      pop\n      jump\t// out\n        /* \"#utility.yul\":3903:4046   */\n    tag_141:\n        /* \"#utility.yul\":3960:3965   */\n      0x00\n        /* \"#utility.yul\":3991:3997   */\n      dup2\n        /* \"#utility.yul\":3985:3998   */\n      mload\n        /* \"#utility.yul\":3976:3998   */\n      swap1\n      pop\n        /* \"#utility.yul\":4007:4040   */\n      tag_205\n        /* \"#utility.yul\":4034:4039   */\n      dup2\n        /* \"#utility.yul\":4007:4040   */\n      tag_139\n      jump\t// in\n    tag_205:\n        /* \"#utility.yul\":3903:4046   */\n      swap3\n      swap2\n      pop\n      pop\n      jump\t// out\n        /* \"#utility.yul\":4052:4403   */\n    tag_30:\n        /* \"#utility.yul\":4122:4128   */\n      0x00\n        /* \"#utility.yul\":4171:4173   */\n      0x20\n        /* \"#utility.yul\":4159:4168   */\n      dup3\n        /* \"#utility.yul\":4150:4157   */\n      dup5\n        /* \"#utility.yul\":4146:4169   */\n      sub\n        /* \"#utility.yul\":4142:4174   */\n      slt\n        /* \"#utility.yul\":4139:4258   */\n      iszero\n      tag_207\n      jumpi\n        /* \"#utility.yul\":4177:4256   */\n      tag_208\n      tag_126\n      jump\t// in\n    tag_208:\n        /* \"#utility.yul\":4139:4258   */\n    tag_207:\n        /* \"#utility.yul\":4297:4298   */\n      0x00\n        /* \"#utility.yul\":4322:4386   */\n      tag_209\n        /* \"#utility.yul\":4378:4385   */\n      dup5\n        /* \"#utility.yul\":4369:4375   */\n      dup3\n        /* \"#utility.yul\":4358:4367   */\n      dup6\n        /* \"#utility.yul\":4354:4376   */\n      add\n        /* \"#utility.yul\":4322:4386   */\n      tag_141\n      jump\t// in\n    tag_209:\n        /* \"#utility.yul\":4312:4386   */\n      swap2\n      pop\n        /* \"#utility.yul\":4268:4396   */\n      pop\n        /* \"#utility.yul\":4052:4403   */\n      swap3\n      swap2\n      pop\n      pop\n      jump\t// out\n        /* \"#utility.yul\":4409:4578   */\n    tag_142:\n        /* \"#utility.yul\":4493:4504   */\n      0x00\n        /* \"#utility.yul\":4527:4533   */\n      dup3\n        /* \"#utility.yul\":4522:4525   */\n      dup3\n        /* \"#utility.yul\":4515:4534   */\n      mstore\n        /* \"#utility.yul\":4567:4571   */\n      0x20\n        /* \"#utility.yul\":4562:4565   */\n      dup3\n        /* \"#utility.yul\":4558:4572   */\n      add\n        /* \"#utility.yul\":4543:4572   */\n      swap1\n      pop\n        /* \"#utility.yul\":4409:4578   */\n      swap3\n      swap2\n      pop\n      pop\n      jump\t// out\n        /* \"#utility.yul\":4584:4761   */\n    tag_143:\n        /* \"#utility.yul\":4724:4753   */\n      0x6954656d20697320416c726561647920757020666f722053616c650000000000\n        /* \"#utility.yul\":4720:4721   */\n      0x00\n        /* \"#utility.yul\":4712:4718   */\n      dup3\n        /* \"#utility.yul\":4708:4722   */\n      add\n        /* \"#utility.yul\":4701:4754   */\n      mstore\n        /* \"#utility.yul\":4584:4761   */\n      pop\n      jump\t// out\n        /* \"#utility.yul\":4767:5133   */\n    tag_144:\n        /* \"#utility.yul\":4909:4912   */\n      0x00\n        /* \"#utility.yul\":4930:4997   */\n      tag_213\n        /* \"#utility.yul\":4994:4996   */\n      0x1b\n        /* \"#utility.yul\":4989:4992   */\n      dup4\n        /* \"#utility.yul\":4930:4997   */\n      tag_142\n      jump\t// in\n    tag_213:\n        /* \"#utility.yul\":4923:4997   */\n      swap2\n      pop\n        /* \"#utility.yul\":5006:5099   */\n      tag_214\n        /* \"#utility.yul\":5095:5098   */\n      dup3\n        /* \"#utility.yul\":5006:5099   */\n      tag_143\n      jump\t// in\n    tag_214:\n        /* \"#utility.yul\":5124:5126   */\n      0x20\n        /* \"#utility.yul\":5119:5122   */\n      dup3\n        /* \"#utility.yul\":5115:5127   */\n      add\n        /* \"#utility.yul\":5108:5127   */\n      swap1\n      pop\n        /* \"#utility.yul\":4767:5133   */\n      swap2\n      swap1\n      pop\n      jump\t// out\n        /* \"#utility.yul\":5139:5558   */\n    tag_42:\n        /* \"#utility.yul\":5305:5309   */\n      0x00\n        /* \"#utility.yul\":5343:5345   */\n      0x20\n        /* \"#utility.yul\":5332:5341   */\n      dup3\n        /* \"#utility.yul\":5328:5346   */\n      add\n        /* \"#utility.yul\":5320:5346   */\n      swap1\n      pop\n        /* \"#utility.yul\":5392:5401   */\n      dup2\n        /* \"#utility.yul\":5386:5390   */\n      dup2\n        /* \"#utility.yul\":5382:5402   */\n      sub\n        /* \"#utility.yul\":5378:5379   */\n      0x00\n        /* \"#utility.yul\":5367:5376   */\n      dup4\n        /* \"#utility.yul\":5363:5380   */\n      add\n        /* \"#utility.yul\":5356:5403   */\n      mstore\n        /* \"#utility.yul\":5420:5551   */\n      tag_216\n        /* \"#utility.yul\":5546:5550   */\n      dup2\n        /* \"#utility.yul\":5420:5551   */\n      tag_144\n      jump\t// in\n    tag_216:\n        /* \"#utility.yul\":5412:5551   */\n      swap1\n      pop\n        /* \"#utility.yul\":5139:5558   */\n      swap2\n      swap1\n      pop\n      jump\t// out\n        /* \"#utility.yul\":5564:5744   */\n    tag_46:\n        /* \"#utility.yul\":5612:5689   */\n      0x4e487b7100000000000000000000000000000000000000000000000000000000\n        /* \"#utility.yul\":5609:5610   */\n      0x00\n        /* \"#utility.yul\":5602:5690   */\n      mstore\n        /* \"#utility.yul\":5709:5713   */\n      0x32\n        /* \"#utility.yul\":5706:5707   */\n      0x04\n        /* \"#utility.yul\":5699:5714   */\n      mstore\n        /* \"#utility.yul\":5733:5737   */\n      0x24\n        /* \"#utility.yul\":5730:5731   */\n      0x00\n        /* \"#utility.yul\":5723:5738   */\n      revert\n        /* \"#utility.yul\":5750:5930   */\n    tag_50:\n        /* \"#utility.yul\":5798:5875   */\n      0x4e487b7100000000000000000000000000000000000000000000000000000000\n        /* \"#utility.yul\":5795:5796   */\n      0x00\n        /* \"#utility.yul\":5788:5876   */\n      mstore\n        /* \"#utility.yul\":5895:5899   */\n      0x01\n        /* \"#utility.yul\":5892:5893   */\n      0x04\n        /* \"#utility.yul\":5885:5900   */\n      mstore\n        /* \"#utility.yul\":5919:5923   */\n      0x24\n        /* \"#utility.yul\":5916:5917   */\n      0x00\n        /* \"#utility.yul\":5909:5924   */\n      revert\n        /* \"#utility.yul\":5936:6489   */\n    tag_52:\n        /* \"#utility.yul\":6113:6117   */\n      0x00\n        /* \"#utility.yul\":6151:6154   */\n      0x80\n        /* \"#utility.yul\":6140:6149   */\n      dup3\n        /* \"#utility.yul\":6136:6155   */\n      add\n        /* \"#utility.yul\":6128:6155   */\n      swap1\n      pop\n        /* \"#utility.yul\":6165:6236   */\n      tag_220\n        /* \"#utility.yul\":6233:6234   */\n      0x00\n        /* \"#utility.yul\":6222:6231   */\n      dup4\n        /* \"#utility.yul\":6218:6235   */\n      add\n        /* \"#utility.yul\":6209:6215   */\n      dup8\n        /* \"#utility.yul\":6165:6236   */\n      tag_131\n      jump\t// in\n    tag_220:\n        /* \"#utility.yul\":6246:6318   */\n      tag_221\n        /* \"#utility.yul\":6314:6316   */\n      0x20\n        /* \"#utility.yul\":6303:6312   */\n      dup4\n        /* \"#utility.yul\":6299:6317   */\n      add\n        /* \"#utility.yul\":6290:6296   */\n      dup7\n        /* \"#utility.yul\":6246:6318   */\n      tag_131\n      jump\t// in\n    tag_221:\n        /* \"#utility.yul\":6328:6400   */\n      tag_222\n        /* \"#utility.yul\":6396:6398   */\n      0x40\n        /* \"#utility.yul\":6385:6394   */\n      dup4\n        /* \"#utility.yul\":6381:6399   */\n      add\n        /* \"#utility.yul\":6372:6378   */\n      dup6\n        /* \"#utility.yul\":6328:6400   */\n      tag_134\n      jump\t// in\n    tag_222:\n        /* \"#utility.yul\":6410:6482   */\n      tag_223\n        /* \"#utility.yul\":6478:6480   */\n      0x60\n        /* \"#utility.yul\":6467:6476   */\n      dup4\n        /* \"#utility.yul\":6463:6481   */\n      add\n        /* \"#utility.yul\":6454:6460   */\n      dup5\n        /* \"#utility.yul\":6410:6482   */\n      tag_131\n      jump\t// in\n    tag_223:\n        /* \"#utility.yul\":5936:6489   */\n      swap6\n      swap5\n      pop\n      pop\n      pop\n      pop\n      pop\n      jump\t// out\n        /* \"#utility.yul\":6495:6665   */\n    tag_145:\n        /* \"#utility.yul\":6635:6657   */\n      0x436f756c64204e6f742046696e64204974656d73000000000000000000000000\n        /* \"#utility.yul\":6631:6632   */\n      0x00\n        /* \"#utility.yul\":6623:6629   */\n      dup3\n        /* \"#utility.yul\":6619:6633   */\n      add\n        /* \"#utility.yul\":6612:6658   */\n      mstore\n        /* \"#utility.yul\":6495:6665   */\n      pop\n      jump\t// out\n        /* \"#utility.yul\":6671:7037   */\n    tag_146:\n        /* \"#utility.yul\":6813:6816   */\n      0x00\n        /* \"#utility.yul\":6834:6901   */\n      tag_226\n        /* \"#utility.yul\":6898:6900   */\n      0x14\n        /* \"#utility.yul\":6893:6896   */\n      dup4\n        /* \"#utility.yul\":6834:6901   */\n      tag_142\n      jump\t// in\n    tag_226:\n        /* \"#utility.yul\":6827:6901   */\n      swap2\n      pop\n        /* \"#utility.yul\":6910:7003   */\n      tag_227\n        /* \"#utility.yul\":6999:7002   */\n      dup3\n        /* \"#utility.yul\":6910:7003   */\n      tag_145\n      jump\t// in\n    tag_227:\n        /* \"#utility.yul\":7028:7030   */\n      0x20\n        /* \"#utility.yul\":7023:7026   */\n      dup3\n        /* \"#utility.yul\":7019:7031   */\n      add\n        /* \"#utility.yul\":7012:7031   */\n      swap1\n      pop\n        /* \"#utility.yul\":6671:7037   */\n      swap2\n      swap1\n      pop\n      jump\t// out\n        /* \"#utility.yul\":7043:7462   */\n    tag_60:\n        /* \"#utility.yul\":7209:7213   */\n      0x00\n        /* \"#utility.yul\":7247:7249   */\n      0x20\n        /* \"#utility.yul\":7236:7245   */\n      dup3\n        /* \"#utility.yul\":7232:7250   */\n      add\n        /* \"#utility.yul\":7224:7250   */\n      swap1\n      pop\n        /* \"#utility.yul\":7296:7305   */\n      dup2\n        /* \"#utility.yul\":7290:7294   */\n      dup2\n        /* \"#utility.yul\":7286:7306   */\n      sub\n        /* \"#utility.yul\":7282:7283   */\n      0x00\n        /* \"#utility.yul\":7271:7280   */\n      dup4\n        /* \"#utility.yul\":7267:7284   */\n      add\n        /* \"#utility.yul\":7260:7307   */\n      mstore\n        /* \"#utility.yul\":7324:7455   */\n      tag_229\n        /* \"#utility.yul\":7450:7454   */\n      dup2\n        /* \"#utility.yul\":7324:7455   */\n      tag_146\n      jump\t// in\n    tag_229:\n        /* \"#utility.yul\":7316:7455   */\n      swap1\n      pop\n        /* \"#utility.yul\":7043:7462   */\n      swap2\n      swap1\n      pop\n      jump\t// out\n        /* \"#utility.yul\":7468:7638   */\n    tag_147:\n        /* \"#utility.yul\":7608:7630   */\n      0x6974656d20697320616c726561647920736f6c64000000000000000000000000\n        /* \"#utility.yul\":7604:7605   */\n      0x00\n        /* \"#utility.yul\":7596:7602   */\n      dup3\n        /* \"#utility.yul\":7592:7606   */\n      add\n        /* \"#utility.yul\":7585:7631   */\n      mstore\n        /* \"#utility.yul\":7468:7638   */\n      pop\n      jump\t// out\n        /* \"#utility.yul\":7644:8010   */\n    tag_148:\n        /* \"#utility.yul\":7786:7789   */\n      0x00\n        /* \"#utility.yul\":7807:7874   */\n      tag_232\n        /* \"#utility.yul\":7871:7873   */\n      0x14\n        /* \"#utility.yul\":7866:7869   */\n      dup4\n        /* \"#utility.yul\":7807:7874   */\n      tag_142\n      jump\t// in\n    tag_232:\n        /* \"#utility.yul\":7800:7874   */\n      swap2\n      pop\n        /* \"#utility.yul\":7883:7976   */\n      tag_233\n        /* \"#utility.yul\":7972:7975   */\n      dup3\n        /* \"#utility.yul\":7883:7976   */\n      tag_147\n      jump\t// in\n    tag_233:\n        /* \"#utility.yul\":8001:8003   */\n      0x20\n        /* \"#utility.yul\":7996:7999   */\n      dup3\n        /* \"#utility.yul\":7992:8004   */\n      add\n        /* \"#utility.yul\":7985:8004   */\n      swap1\n      pop\n        /* \"#utility.yul\":7644:8010   */\n      swap2\n      swap1\n      pop\n      jump\t// out\n        /* \"#utility.yul\":8016:8435   */\n    tag_67:\n        /* \"#utility.yul\":8182:8186   */\n      0x00\n        /* \"#utility.yul\":8220:8222   */\n      0x20\n        /* \"#utility.yul\":8209:8218   */\n      dup3\n        /* \"#utility.yul\":8205:8223   */\n      add\n        /* \"#utility.yul\":8197:8223   */\n      swap1\n      pop\n        /* \"#utility.yul\":8269:8278   */\n      dup2\n        /* \"#utility.yul\":8263:8267   */\n      dup2\n        /* \"#utility.yul\":8259:8279   */\n      sub\n        /* \"#utility.yul\":8255:8256   */\n      0x00\n        /* \"#utility.yul\":8244:8253   */\n      dup4\n        /* \"#utility.yul\":8240:8257   */\n      add\n        /* \"#utility.yul\":8233:8280   */\n      mstore\n        /* \"#utility.yul\":8297:8428   */\n      tag_235\n        /* \"#utility.yul\":8423:8427   */\n      dup2\n        /* \"#utility.yul\":8297:8428   */\n      tag_148\n      jump\t// in\n    tag_235:\n        /* \"#utility.yul\":8289:8428   */\n      swap1\n      pop\n        /* \"#utility.yul\":8016:8435   */\n      swap2\n      swap1\n      pop\n      jump\t// out\n        /* \"#utility.yul\":8441:8607   */\n    tag_149:\n        /* \"#utility.yul\":8581:8599   */\n      0x6e6f7420456e6f7567682046756e647300000000000000000000000000000000\n        /* \"#utility.yul\":8577:8578   */\n      0x00\n        /* \"#utility.yul\":8569:8575   */\n      dup3\n        /* \"#utility.yul\":8565:8579   */\n      add\n        /* \"#utility.yul\":8558:8600   */\n      mstore\n        /* \"#utility.yul\":8441:8607   */\n      pop\n      jump\t// out\n        /* \"#utility.yul\":8613:8979   */\n    tag_150:\n        /* \"#utility.yul\":8755:8758   */\n      0x00\n        /* \"#utility.yul\":8776:8843   */\n      tag_238\n        /* \"#utility.yul\":8840:8842   */\n      0x10\n        /* \"#utility.yul\":8835:8838   */\n      dup4\n        /* \"#utility.yul\":8776:8843   */\n      tag_142\n      jump\t// in\n    tag_238:\n        /* \"#utility.yul\":8769:8843   */\n      swap2\n      pop\n        /* \"#utility.yul\":8852:8945   */\n      tag_239\n        /* \"#utility.yul\":8941:8944   */\n      dup3\n        /* \"#utility.yul\":8852:8945   */\n      tag_149\n      jump\t// in\n    tag_239:\n        /* \"#utility.yul\":8970:8972   */\n      0x20\n        /* \"#utility.yul\":8965:8968   */\n      dup3\n        /* \"#utility.yul\":8961:8973   */\n      add\n        /* \"#utility.yul\":8954:8973   */\n      swap1\n      pop\n        /* \"#utility.yul\":8613:8979   */\n      swap2\n      swap1\n      pop\n      jump\t// out\n        /* \"#utility.yul\":8985:9404   */\n    tag_87:\n        /* \"#utility.yul\":9151:9155   */\n      0x00\n        /* \"#utility.yul\":9189:9191   */\n      0x20\n        /* \"#utility.yul\":9178:9187   */\n      dup3\n        /* \"#utility.yul\":9174:9192   */\n      add\n        /* \"#utility.yul\":9166:9192   */\n      swap1\n      pop\n        /* \"#utility.yul\":9238:9247   */\n      dup2\n        /* \"#utility.yul\":9232:9236   */\n      dup2\n        /* \"#utility.yul\":9228:9248   */\n      sub\n        /* \"#utility.yul\":9224:9225   */\n      0x00\n        /* \"#utility.yul\":9213:9222   */\n      dup4\n        /* \"#utility.yul\":9209:9226   */\n      add\n        /* \"#utility.yul\":9202:9249   */\n      mstore\n        /* \"#utility.yul\":9266:9397   */\n      tag_241\n        /* \"#utility.yul\":9392:9396   */\n      dup2\n        /* \"#utility.yul\":9266:9397   */\n      tag_150\n      jump\t// in\n    tag_241:\n        /* \"#utility.yul\":9258:9397   */\n      swap1\n      pop\n        /* \"#utility.yul\":8985:9404   */\n      swap2\n      swap1\n      pop\n      jump\t// out\n        /* \"#utility.yul\":9410:9470   */\n    tag_151:\n        /* \"#utility.yul\":9438:9441   */\n      0x00\n        /* \"#utility.yul\":9459:9464   */\n      dup2\n        /* \"#utility.yul\":9452:9464   */\n      swap1\n      pop\n        /* \"#utility.yul\":9410:9470   */\n      swap2\n      swap1\n      pop\n      jump\t// out\n        /* \"#utility.yul\":9476:9618   */\n    tag_152:\n        /* \"#utility.yul\":9526:9535   */\n      0x00\n        /* \"#utility.yul\":9559:9612   */\n      tag_244\n        /* \"#utility.yul\":9577:9611   */\n      tag_245\n        /* \"#utility.yul\":9586:9610   */\n      tag_246\n        /* \"#utility.yul\":9604:9609   */\n      dup5\n        /* \"#utility.yul\":9586:9610   */\n      tag_132\n      jump\t// in\n    tag_246:\n        /* \"#utility.yul\":9577:9611   */\n      tag_151\n      jump\t// in\n    tag_245:\n        /* \"#utility.yul\":9559:9612   */\n      tag_132\n      jump\t// in\n    tag_244:\n        /* \"#utility.yul\":9546:9612   */\n      swap1\n      pop\n        /* \"#utility.yul\":9476:9618   */\n      swap2\n      swap1\n      pop\n      jump\t// out\n        /* \"#utility.yul\":9624:9750   */\n    tag_153:\n        /* \"#utility.yul\":9674:9683   */\n      0x00\n        /* \"#utility.yul\":9707:9744   */\n      tag_248\n        /* \"#utility.yul\":9738:9743   */\n      dup3\n        /* \"#utility.yul\":9707:9744   */\n      tag_152\n      jump\t// in\n    tag_248:\n        /* \"#utility.yul\":9694:9744   */\n      swap1\n      pop\n        /* \"#utility.yul\":9624:9750   */\n      swap2\n      swap1\n      pop\n      jump\t// out\n        /* \"#utility.yul\":9756:9890   */\n    tag_154:\n        /* \"#utility.yul\":9814:9823   */\n      0x00\n        /* \"#utility.yul\":9847:9884   */\n      tag_250\n        /* \"#utility.yul\":9878:9883   */\n      dup3\n        /* \"#utility.yul\":9847:9884   */\n      tag_153\n      jump\t// in\n    tag_250:\n        /* \"#utility.yul\":9834:9884   */\n      swap1\n      pop\n        /* \"#utility.yul\":9756:9890   */\n      swap2\n      swap1\n      pop\n      jump\t// out\n        /* \"#utility.yul\":9896:10043   */\n    tag_155:\n        /* \"#utility.yul\":9991:10036   */\n      tag_252\n        /* \"#utility.yul\":10030:10035   */\n      dup2\n        /* \"#utility.yul\":9991:10036   */\n      tag_154\n      jump\t// in\n    tag_252:\n        /* \"#utility.yul\":9986:9989   */\n      dup3\n        /* \"#utility.yul\":9979:10037   */\n      mstore\n        /* \"#utility.yul\":9896:10043   */\n      pop\n      pop\n      jump\t// out\n        /* \"#utility.yul\":10049:10507   */\n    tag_111:\n        /* \"#utility.yul\":10206:10210   */\n      0x00\n        /* \"#utility.yul\":10244:10246   */\n      0x60\n        /* \"#utility.yul\":10233:10242   */\n      dup3\n        /* \"#utility.yul\":10229:10247   */\n      add\n        /* \"#utility.yul\":10221:10247   */\n      swap1\n      pop\n        /* \"#utility.yul\":10257:10336   */\n      tag_254\n        /* \"#utility.yul\":10333:10334   */\n      0x00\n        /* \"#utility.yul\":10322:10331   */\n      dup4\n        /* \"#utility.yul\":10318:10335   */\n      add\n        /* \"#utility.yul\":10309:10315   */\n      dup7\n        /* \"#utility.yul\":10257:10336   */\n      tag_155\n      jump\t// in\n    tag_254:\n        /* \"#utility.yul\":10346:10418   */\n      tag_255\n        /* \"#utility.yul\":10414:10416   */\n      0x20\n        /* \"#utility.yul\":10403:10412   */\n      dup4\n        /* \"#utility.yul\":10399:10417   */\n      add\n        /* \"#utility.yul\":10390:10396   */\n      dup6\n        /* \"#utility.yul\":10346:10418   */\n      tag_134\n      jump\t// in\n    tag_255:\n        /* \"#utility.yul\":10428:10500   */\n      tag_256\n        /* \"#utility.yul\":10496:10498   */\n      0x40\n        /* \"#utility.yul\":10485:10494   */\n      dup4\n        /* \"#utility.yul\":10481:10499   */\n      add\n        /* \"#utility.yul\":10472:10478   */\n      dup5\n        /* \"#utility.yul\":10428:10500   */\n      tag_131\n      jump\t// in\n    tag_256:\n        /* \"#utility.yul\":10049:10507   */\n      swap5\n      swap4\n      pop\n      pop\n      pop\n      pop\n      jump\t// out\n        /* \"#utility.yul\":10513:10955   */\n    tag_124:\n        /* \"#utility.yul\":10662:10666   */\n      0x00\n        /* \"#utility.yul\":10700:10702   */\n      0x60\n        /* \"#utility.yul\":10689:10698   */\n      dup3\n        /* \"#utility.yul\":10685:10703   */\n      add\n        /* \"#utility.yul\":10677:10703   */\n      swap1\n      pop\n        /* \"#utility.yul\":10713:10784   */\n      tag_258\n        /* \"#utility.yul\":10781:10782   */\n      0x00\n        /* \"#utility.yul\":10770:10779   */\n      dup4\n        /* \"#utility.yul\":10766:10783   */\n      add\n        /* \"#utility.yul\":10757:10763   */\n      dup7\n        /* \"#utility.yul\":10713:10784   */\n      tag_131\n      jump\t// in\n    tag_258:\n        /* \"#utility.yul\":10794:10866   */\n      tag_259\n        /* \"#utility.yul\":10862:10864   */\n      0x20\n        /* \"#utility.yul\":10851:10860   */\n      dup4\n        /* \"#utility.yul\":10847:10865   */\n      add\n        /* \"#utility.yul\":10838:10844   */\n      dup6\n        /* \"#utility.yul\":10794:10866   */\n      tag_134\n      jump\t// in\n    tag_259:\n        /* \"#utility.yul\":10876:10948   */\n      tag_260\n        /* \"#utility.yul\":10944:10946   */\n      0x40\n        /* \"#utility.yul\":10933:10942   */\n      dup4\n        /* \"#utility.yul\":10929:10947   */\n      add\n        /* \"#utility.yul\":10920:10926   */\n      dup5\n        /* \"#utility.yul\":10876:10948   */\n      tag_131\n      jump\t// in\n    tag_260:\n        /* \"#utility.yul\":10513:10955   */\n      swap5\n      swap4\n      pop\n      pop\n      pop\n      pop\n      jump\t// out\n\n    auxdata: 0xa26469706673582212206d95b659ed0e30217dcb74be1de2c4e4a8e60e29ce1d2df84a4d0e78867adcc864736f6c63430008090033\n}\n",
				"bytecode": {
					"linkReferences": {},
					"object": "608060405234801561001057600080fd5b506111ac806100206000396000f3fe6080604052600436106100345760003560e01c8063092d0afc14610039578063452407e21461007b578063e7fb74c7146100b8575b600080fd5b34801561004557600080fd5b50610060600480360381019061005b9190610c4f565b6100d4565b60405161007296959493929190610d08565b60405180910390f35b34801561008757600080fd5b506100a2600480360381019061009d9190610d95565b61016d565b6040516100af9190610de8565b60405180910390f35b6100d260048036038101906100cd9190610c4f565b6105ea565b005b600081815481106100e457600080fd5b90600052602060002090600602016000915090508060000154908060010160009054906101000a900473ffffffffffffffffffffffffffffffffffffffff16908060020154908060030160009054906101000a900473ffffffffffffffffffffffffffffffffffffffff16908060040154908060050160009054906101000a900460ff16905086565b6000828460008290503373ffffffffffffffffffffffffffffffffffffffff168173ffffffffffffffffffffffffffffffffffffffff16636352211e846040518263ffffffff1660e01b81526004016101c69190610de8565b60206040518083038186803b1580156101de57600080fd5b505afa1580156101f2573d6000803e3d6000fd5b505050506040513d601f19601f820116820180604052508101906102169190610e18565b73ffffffffffffffffffffffffffffffffffffffff161461023657600080fd5b858760008290503073ffffffffffffffffffffffffffffffffffffffff168173ffffffffffffffffffffffffffffffffffffffff1663081812fc846040518263ffffffff1660e01b815260040161028d9190610de8565b60206040518083038186803b1580156102a557600080fd5b505afa1580156102b9573d6000803e3d6000fd5b505050506040513d601f19601f820116820180604052508101906102dd9190610e18565b73ffffffffffffffffffffffffffffffffffffffff16146102fd57600080fd5b60001515600160008b73ffffffffffffffffffffffffffffffffffffffff1673ffffffffffffffffffffffffffffffffffffffff16815260200190815260200160002060008c815260200190815260200160002060009054906101000a900460ff161515146103a1576040517f08c379a000000000000000000000000000000000000000000000000000000000815260040161039890610ea2565b60405180910390fd5b60008080549050905060006040518060c001604052808381526020018c73ffffffffffffffffffffffffffffffffffffffff1681526020018d81526020013373ffffffffffffffffffffffffffffffffffffffff1681526020018b81526020016000151581525090806001815401808255809150506001900390600052602060002090600602016000909190919091506000820151816000015560208201518160010160006101000a81548173ffffffffffffffffffffffffffffffffffffffff021916908373ffffffffffffffffffffffffffffffffffffffff1602179055506040820151816002015560608201518160030160006101000a81548173ffffffffffffffffffffffffffffffffffffffff021916908373ffffffffffffffffffffffffffffffffffffffff1602179055506080820151816004015560a08201518160050160006101000a81548160ff021916908315150217905550505060018060008c73ffffffffffffffffffffffffffffffffffffffff1673ffffffffffffffffffffffffffffffffffffffff16815260200190815260200160002060008d815260200190815260200160002060006101000a81548160ff021916908315150217905550806000828154811061057c5761057b610ec2565b5b9060005260206000209060060201600001541461059c5761059b610ef1565b5b7fd3742413e0092c98517699ed9f8567218c740a5a265a7a986d9430d597937522818c8c8c6040516105d19493929190610f20565b60405180910390a1809750505050505050509392505050565b80600080549050811080156106235750806000828154811061060f5761060e610ec2565b5b906000526020600020906006020160000154145b610662576040517f08c379a000000000000000000000000000000000000000000000000000000000815260040161065990610fb1565b60405180910390fd5b81600015156000828154811061067b5761067a610ec2565b5b906000526020600020906006020160050160009054906101000a900460ff161515146106dc576040517f08c379a00000000000000000000000000000000000000000000000000000000081526004016106d39061101d565b60405180910390fd5b600083815481106106f0576106ef610ec2565b5b906000526020600020906006020160010160009054906101000a900473ffffffffffffffffffffffffffffffffffffffff166000848154811061073657610735610ec2565b5b90600052602060002090600602016002015460008290503073ffffffffffffffffffffffffffffffffffffffff168173ffffffffffffffffffffffffffffffffffffffff1663081812fc846040518263ffffffff1660e01b815260040161079d9190610de8565b60206040518083038186803b1580156107b557600080fd5b505afa1580156107c9573d6000803e3d6000fd5b505050506040513d601f19601f820116820180604052508101906107ed9190610e18565b73ffffffffffffffffffffffffffffffffffffffff161461080d57600080fd5b6000868154811061082157610820610ec2565b5b906000526020600020906006020160040154341015610875576040517f08c379a000000000000000000000000000000000000000000000000000000000815260040161086c90611089565b60405180910390fd5b6000868154811061088957610888610ec2565b5b906000526020600020906006020160030160009054906101000a900473ffffffffffffffffffffffffffffffffffffffff1673ffffffffffffffffffffffffffffffffffffffff163373ffffffffffffffffffffffffffffffffffffffff1614156108f357600080fd5b60016000878154811061090957610908610ec2565b5b906000526020600020906006020160050160006101000a81548160ff02191690831515021790555060006001600080898154811061094a57610949610ec2565b5b906000526020600020906006020160010160009054906101000a900473ffffffffffffffffffffffffffffffffffffffff1673ffffffffffffffffffffffffffffffffffffffff1673ffffffffffffffffffffffffffffffffffffffff16815260200190815260200160002060008089815481106109cb576109ca610ec2565b5b906000526020600020906006020160020154815260200190815260200160002060006101000a81548160ff02191690831515021790555060008681548110610a1657610a15610ec2565b5b906000526020600020906006020160010160009054906101000a900473ffffffffffffffffffffffffffffffffffffffff1673ffffffffffffffffffffffffffffffffffffffff166342842e0e60008881548110610a7757610a76610ec2565b5b906000526020600020906006020160030160009054906101000a900473ffffffffffffffffffffffffffffffffffffffff163360008a81548110610abe57610abd610ec2565b5b9060005260206000209060060201600201546040518463ffffffff1660e01b8152600401610aee93929190611108565b600060405180830381600087803b158015610b0857600080fd5b505af1158015610b1c573d6000803e3d6000fd5b5050505060008681548110610b3457610b33610ec2565b5b906000526020600020906006020160030160009054906101000a900473ffffffffffffffffffffffffffffffffffffffff1673ffffffffffffffffffffffffffffffffffffffff166108fc349081150290604051600060405180830381858888f19350505050158015610bab573d6000803e3d6000fd5b507f8164c6f8917e418c49813e4586897c7067de5a886aa1bea980cd11fa57d48264863360008981548110610be357610be2610ec2565b5b906000526020600020906006020160040154604051610c049392919061113f565b60405180910390a1505050505050565b600080fd5b6000819050919050565b610c2c81610c19565b8114610c3757600080fd5b50565b600081359050610c4981610c23565b92915050565b600060208284031215610c6557610c64610c14565b5b6000610c7384828501610c3a565b91505092915050565b610c8581610c19565b82525050565b600073ffffffffffffffffffffffffffffffffffffffff82169050919050565b6000610cb682610c8b565b9050919050565b610cc681610cab565b82525050565b6000610cd782610c8b565b9050919050565b610ce781610ccc565b82525050565b60008115159050919050565b610d0281610ced565b82525050565b600060c082019050610d1d6000830189610c7c565b610d2a6020830188610cbd565b610d376040830187610c7c565b610d446060830186610cde565b610d516080830185610c7c565b610d5e60a0830184610cf9565b979650505050505050565b610d7281610cab565b8114610d7d57600080fd5b50565b600081359050610d8f81610d69565b92915050565b600080600060608486031215610dae57610dad610c14565b5b6000610dbc86828701610c3a565b9350506020610dcd86828701610d80565b9250506040610dde86828701610c3a565b9150509250925092565b6000602082019050610dfd6000830184610c7c565b92915050565b600081519050610e1281610d69565b92915050565b600060208284031215610e2e57610e2d610c14565b5b6000610e3c84828501610e03565b91505092915050565b600082825260208201905092915050565b7f6954656d20697320416c726561647920757020666f722053616c650000000000600082015250565b6000610e8c601b83610e45565b9150610e9782610e56565b602082019050919050565b60006020820190508181036000830152610ebb81610e7f565b9050919050565b7f4e487b7100000000000000000000000000000000000000000000000000000000600052603260045260246000fd5b7f4e487b7100000000000000000000000000000000000000000000000000000000600052600160045260246000fd5b6000608082019050610f356000830187610c7c565b610f426020830186610c7c565b610f4f6040830185610cbd565b610f5c6060830184610c7c565b95945050505050565b7f436f756c64204e6f742046696e64204974656d73000000000000000000000000600082015250565b6000610f9b601483610e45565b9150610fa682610f65565b602082019050919050565b60006020820190508181036000830152610fca81610f8e565b9050919050565b7f6974656d20697320616c726561647920736f6c64000000000000000000000000600082015250565b6000611007601483610e45565b915061101282610fd1565b602082019050919050565b6000602082019050818103600083015261103681610ffa565b9050919050565b7f6e6f7420456e6f7567682046756e647300000000000000000000000000000000600082015250565b6000611073601083610e45565b915061107e8261103d565b602082019050919050565b600060208201905081810360008301526110a281611066565b9050919050565b6000819050919050565b60006110ce6110c96110c484610c8b565b6110a9565b610c8b565b9050919050565b60006110e0826110b3565b9050919050565b60006110f2826110d5565b9050919050565b611102816110e7565b82525050565b600060608201905061111d60008301866110f9565b61112a6020830185610cbd565b6111376040830184610c7c565b949350505050565b60006060820190506111546000830186610c7c565b6111616020830185610cbd565b61116e6040830184610c7c565b94935050505056fea26469706673582212206d95b659ed0e30217dcb74be1de2c4e4a8e60e29ce1d2df84a4d0e78867adcc864736f6c63430008090033",
					"opcodes": "PUSH1 0x80 PUSH1 0x40 MSTORE CALLVALUE DUP1 ISZERO PUSH2 0x10 JUMPI PUSH1 0x0 DUP1 REVERT JUMPDEST POP PUSH2 0x11AC DUP1 PUSH2 0x20 PUSH1 0x0 CODECOPY PUSH1 0x0 RETURN INVALID PUSH1 0x80 PUSH1 0x40 MSTORE PUSH1 0x4 CALLDATASIZE LT PUSH2 0x34 JUMPI PUSH1 0x0 CALLDATALOAD PUSH1 0xE0 SHR DUP1 PUSH4 0x92D0AFC EQ PUSH2 0x39 JUMPI DUP1 PUSH4 0x452407E2 EQ PUSH2 0x7B JUMPI DUP1 PUSH4 0xE7FB74C7 EQ PUSH2 0xB8 JUMPI JUMPDEST PUSH1 0x0 DUP1 REVERT JUMPDEST CALLVALUE DUP1 ISZERO PUSH2 0x45 JUMPI PUSH1 0x0 DUP1 REVERT JUMPDEST POP PUSH2 0x60 PUSH1 0x4 DUP1 CALLDATASIZE SUB DUP2 ADD SWAP1 PUSH2 0x5B SWAP2 SWAP1 PUSH2 0xC4F JUMP JUMPDEST PUSH2 0xD4 JUMP JUMPDEST PUSH1 0x40 MLOAD PUSH2 0x72 SWAP7 SWAP6 SWAP5 SWAP4 SWAP3 SWAP2 SWAP1 PUSH2 0xD08 JUMP JUMPDEST PUSH1 0x40 MLOAD DUP1 SWAP2 SUB SWAP1 RETURN JUMPDEST CALLVALUE DUP1 ISZERO PUSH2 0x87 JUMPI PUSH1 0x0 DUP1 REVERT JUMPDEST POP PUSH2 0xA2 PUSH1 0x4 DUP1 CALLDATASIZE SUB DUP2 ADD SWAP1 PUSH2 0x9D SWAP2 SWAP1 PUSH2 0xD95 JUMP JUMPDEST PUSH2 0x16D JUMP JUMPDEST PUSH1 0x40 MLOAD PUSH2 0xAF SWAP2 SWAP1 PUSH2 0xDE8 JUMP JUMPDEST PUSH1 0x40 MLOAD DUP1 SWAP2 SUB SWAP1 RETURN JUMPDEST PUSH2 0xD2 PUSH1 0x4 DUP1 CALLDATASIZE SUB DUP2 ADD SWAP1 PUSH2 0xCD SWAP2 SWAP1 PUSH2 0xC4F JUMP JUMPDEST PUSH2 0x5EA JUMP JUMPDEST STOP JUMPDEST PUSH1 0x0 DUP2 DUP2 SLOAD DUP2 LT PUSH2 0xE4 JUMPI PUSH1 0x0 DUP1 REVERT JUMPDEST SWAP1 PUSH1 0x0 MSTORE PUSH1 0x20 PUSH1 0x0 KECCAK256 SWAP1 PUSH1 0x6 MUL ADD PUSH1 0x0 SWAP2 POP SWAP1 POP DUP1 PUSH1 0x0 ADD SLOAD SWAP1 DUP1 PUSH1 0x1 ADD PUSH1 0x0 SWAP1 SLOAD SWAP1 PUSH2 0x100 EXP SWAP1 DIV PUSH20 0xFFFFFFFFFFFFFFFFFFFFFFFFFFFFFFFFFFFFFFFF AND SWAP1 DUP1 PUSH1 0x2 ADD SLOAD SWAP1 DUP1 PUSH1 0x3 ADD PUSH1 0x0 SWAP1 SLOAD SWAP1 PUSH2 0x100 EXP SWAP1 DIV PUSH20 0xFFFFFFFFFFFFFFFFFFFFFFFFFFFFFFFFFFFFFFFF AND SWAP1 DUP1 PUSH1 0x4 ADD SLOAD SWAP1 DUP1 PUSH1 0x5 ADD PUSH1 0x0 SWAP1 SLOAD SWAP1 PUSH2 0x100 EXP SWAP1 DIV PUSH1 0xFF AND SWAP1 POP DUP7 JUMP JUMPDEST PUSH1 0x0 DUP3 DUP5 PUSH1 0x0 DUP3 SWAP1 POP CALLER PUSH20 0xFFFFFFFFFFFFFFFFFFFFFFFFFFFFFFFFFFFFFFFF AND DUP2 PUSH20 0xFFFFFFFFFFFFFFFFFFFFFFFFFFFFFFFFFFFFFFFF AND PUSH4 0x6352211E DUP5 PUSH1 0x40 MLOAD DUP3 PUSH4 0xFFFFFFFF AND PUSH1 0xE0 SHL DUP2 MSTORE PUSH1 0x4 ADD PUSH2 0x1C6 SWAP2 SWAP1 PUSH2 0xDE8 JUMP JUMPDEST PUSH1 0x20 PUSH1 0x40 MLOAD DUP1 DUP4 SUB DUP2 DUP7 DUP1 EXTCODESIZE ISZERO DUP1 ISZERO PUSH2 0x1DE JUMPI PUSH1 0x0 DUP1 REVERT JUMPDEST POP GAS STATICCALL ISZERO DUP1 ISZERO PUSH2 0x1F2 JUMPI RETURNDATASIZE PUSH1 0x0 DUP1 RETURNDATACOPY RETURNDATASIZE PUSH1 0x0 REVERT JUMPDEST POP POP POP POP PUSH1 0x40 MLOAD RETURNDATASIZE PUSH1 0x1F NOT PUSH1 0x1F DUP3 ADD AND DUP3 ADD DUP1 PUSH1 0x40 MSTORE POP DUP2 ADD SWAP1 PUSH2 0x216 SWAP2 SWAP1 PUSH2 0xE18 JUMP JUMPDEST PUSH20 0xFFFFFFFFFFFFFFFFFFFFFFFFFFFFFFFFFFFFFFFF AND EQ PUSH2 0x236 JUMPI PUSH1 0x0 DUP1 REVERT JUMPDEST DUP6 DUP8 PUSH1 0x0 DUP3 SWAP1 POP ADDRESS PUSH20 0xFFFFFFFFFFFFFFFFFFFFFFFFFFFFFFFFFFFFFFFF AND DUP2 PUSH20 0xFFFFFFFFFFFFFFFFFFFFFFFFFFFFFFFFFFFFFFFF AND PUSH4 0x81812FC DUP5 PUSH1 0x40 MLOAD DUP3 PUSH4 0xFFFFFFFF AND PUSH1 0xE0 SHL DUP2 MSTORE PUSH1 0x4 ADD PUSH2 0x28D SWAP2 SWAP1 PUSH2 0xDE8 JUMP JUMPDEST PUSH1 0x20 PUSH1 0x40 MLOAD DUP1 DUP4 SUB DUP2 DUP7 DUP1 EXTCODESIZE ISZERO DUP1 ISZERO PUSH2 0x2A5 JUMPI PUSH1 0x0 DUP1 REVERT JUMPDEST POP GAS STATICCALL ISZERO DUP1 ISZERO PUSH2 0x2B9 JUMPI RETURNDATASIZE PUSH1 0x0 DUP1 RETURNDATACOPY RETURNDATASIZE PUSH1 0x0 REVERT JUMPDEST POP POP POP POP PUSH1 0x40 MLOAD RETURNDATASIZE PUSH1 0x1F NOT PUSH1 0x1F DUP3 ADD AND DUP3 ADD DUP1 PUSH1 0x40 MSTORE POP DUP2 ADD SWAP1 PUSH2 0x2DD SWAP2 SWAP1 PUSH2 0xE18 JUMP JUMPDEST PUSH20 0xFFFFFFFFFFFFFFFFFFFFFFFFFFFFFFFFFFFFFFFF AND EQ PUSH2 0x2FD JUMPI PUSH1 0x0 DUP1 REVERT JUMPDEST PUSH1 0x0 ISZERO ISZERO PUSH1 0x1 PUSH1 0x0 DUP12 PUSH20 0xFFFFFFFFFFFFFFFFFFFFFFFFFFFFFFFFFFFFFFFF AND PUSH20 0xFFFFFFFFFFFFFFFFFFFFFFFFFFFFFFFFFFFFFFFF AND DUP2 MSTORE PUSH1 0x20 ADD SWAP1 DUP2 MSTORE PUSH1 0x20 ADD PUSH1 0x0 KECCAK256 PUSH1 0x0 DUP13 DUP2 MSTORE PUSH1 0x20 ADD SWAP1 DUP2 MSTORE PUSH1 0x20 ADD PUSH1 0x0 KECCAK256 PUSH1 0x0 SWAP1 SLOAD SWAP1 PUSH2 0x100 EXP SWAP1 DIV PUSH1 0xFF AND ISZERO ISZERO EQ PUSH2 0x3A1 JUMPI PUSH1 0x40 MLOAD PUSH32 0x8C379A000000000000000000000000000000000000000000000000000000000 DUP2 MSTORE PUSH1 0x4 ADD PUSH2 0x398 SWAP1 PUSH2 0xEA2 JUMP JUMPDEST PUSH1 0x40 MLOAD DUP1 SWAP2 SUB SWAP1 REVERT JUMPDEST PUSH1 0x0 DUP1 DUP1 SLOAD SWAP1 POP SWAP1 POP PUSH1 0x0 PUSH1 0x40 MLOAD DUP1 PUSH1 0xC0 ADD PUSH1 0x40 MSTORE DUP1 DUP4 DUP2 MSTORE PUSH1 0x20 ADD DUP13 PUSH20 0xFFFFFFFFFFFFFFFFFFFFFFFFFFFFFFFFFFFFFFFF AND DUP2 MSTORE PUSH1 0x20 ADD DUP14 DUP2 MSTORE PUSH1 0x20 ADD CALLER PUSH20 0xFFFFFFFFFFFFFFFFFFFFFFFFFFFFFFFFFFFFFFFF AND DUP2 MSTORE PUSH1 0x20 ADD DUP12 DUP2 MSTORE PUSH1 0x20 ADD PUSH1 0x0 ISZERO ISZERO DUP2 MSTORE POP SWAP1 DUP1 PUSH1 0x1 DUP2 SLOAD ADD DUP1 DUP3 SSTORE DUP1 SWAP2 POP POP PUSH1 0x1 SWAP1 SUB SWAP1 PUSH1 0x0 MSTORE PUSH1 0x20 PUSH1 0x0 KECCAK256 SWAP1 PUSH1 0x6 MUL ADD PUSH1 0x0 SWAP1 SWAP2 SWAP1 SWAP2 SWAP1 SWAP2 POP PUSH1 0x0 DUP3 ADD MLOAD DUP2 PUSH1 0x0 ADD SSTORE PUSH1 0x20 DUP3 ADD MLOAD DUP2 PUSH1 0x1 ADD PUSH1 0x0 PUSH2 0x100 EXP DUP2 SLOAD DUP2 PUSH20 0xFFFFFFFFFFFFFFFFFFFFFFFFFFFFFFFFFFFFFFFF MUL NOT AND SWAP1 DUP4 PUSH20 0xFFFFFFFFFFFFFFFFFFFFFFFFFFFFFFFFFFFFFFFF AND MUL OR SWAP1 SSTORE POP PUSH1 0x40 DUP3 ADD MLOAD DUP2 PUSH1 0x2 ADD SSTORE PUSH1 0x60 DUP3 ADD MLOAD DUP2 PUSH1 0x3 ADD PUSH1 0x0 PUSH2 0x100 EXP DUP2 SLOAD DUP2 PUSH20 0xFFFFFFFFFFFFFFFFFFFFFFFFFFFFFFFFFFFFFFFF MUL NOT AND SWAP1 DUP4 PUSH20 0xFFFFFFFFFFFFFFFFFFFFFFFFFFFFFFFFFFFFFFFF AND MUL OR SWAP1 SSTORE POP PUSH1 0x80 DUP3 ADD MLOAD DUP2 PUSH1 0x4 ADD SSTORE PUSH1 0xA0 DUP3 ADD MLOAD DUP2 PUSH1 0x5 ADD PUSH1 0x0 PUSH2 0x100 EXP DUP2 SLOAD DUP2 PUSH1 0xFF MUL NOT AND SWAP1 DUP4 ISZERO ISZERO MUL OR SWAP1 SSTORE POP POP POP PUSH1 0x1 DUP1 PUSH1 0x0 DUP13 PUSH20 0xFFFFFFFFFFFFFFFFFFFFFFFFFFFFFFFFFFFFFFFF AND PUSH20 0xFFFFFFFFFFFFFFFFFFFFFFFFFFFFFFFFFFFFFFFF AND DUP2 MSTORE PUSH1 0x20 ADD SWAP1 DUP2 MSTORE PUSH1 0x20 ADD PUSH1 0x0 KECCAK256 PUSH1 0x0 DUP14 DUP2 MSTORE PUSH1 0x20 ADD SWAP1 DUP2 MSTORE PUSH1 0x20 ADD PUSH1 0x0 KECCAK256 PUSH1 0x0 PUSH2 0x100 EXP DUP2 SLOAD DUP2 PUSH1 0xFF MUL NOT AND SWAP1 DUP4 ISZERO ISZERO MUL OR SWAP1 SSTORE POP DUP1 PUSH1 0x0 DUP3 DUP2 SLOAD DUP2 LT PUSH2 0x57C JUMPI PUSH2 0x57B PUSH2 0xEC2 JUMP JUMPDEST JUMPDEST SWAP1 PUSH1 0x0 MSTORE PUSH1 0x20 PUSH1 0x0 KECCAK256 SWAP1 PUSH1 0x6 MUL ADD PUSH1 0x0 ADD SLOAD EQ PUSH2 0x59C JUMPI PUSH2 0x59B PUSH2 0xEF1 JUMP JUMPDEST JUMPDEST PUSH32 0xD3742413E0092C98517699ED9F8567218C740A5A265A7A986D9430D597937522 DUP2 DUP13 DUP13 DUP13 PUSH1 0x40 MLOAD PUSH2 0x5D1 SWAP5 SWAP4 SWAP3 SWAP2 SWAP1 PUSH2 0xF20 JUMP JUMPDEST PUSH1 0x40 MLOAD DUP1 SWAP2 SUB SWAP1 LOG1 DUP1 SWAP8 POP POP POP POP POP POP POP POP SWAP4 SWAP3 POP POP POP JUMP JUMPDEST DUP1 PUSH1 0x0 DUP1 SLOAD SWAP1 POP DUP2 LT DUP1 ISZERO PUSH2 0x623 JUMPI POP DUP1 PUSH1 0x0 DUP3 DUP2 SLOAD DUP2 LT PUSH2 0x60F JUMPI PUSH2 0x60E PUSH2 0xEC2 JUMP JUMPDEST JUMPDEST SWAP1 PUSH1 0x0 MSTORE PUSH1 0x20 PUSH1 0x0 KECCAK256 SWAP1 PUSH1 0x6 MUL ADD PUSH1 0x0 ADD SLOAD EQ JUMPDEST PUSH2 0x662 JUMPI PUSH1 0x40 MLOAD PUSH32 0x8C379A000000000000000000000000000000000000000000000000000000000 DUP2 MSTORE PUSH1 0x4 ADD PUSH2 0x659 SWAP1 PUSH2 0xFB1 JUMP JUMPDEST PUSH1 0x40 MLOAD DUP1 SWAP2 SUB SWAP1 REVERT JUMPDEST DUP2 PUSH1 0x0 ISZERO ISZERO PUSH1 0x0 DUP3 DUP2 SLOAD DUP2 LT PUSH2 0x67B JUMPI PUSH2 0x67A PUSH2 0xEC2 JUMP JUMPDEST JUMPDEST SWAP1 PUSH1 0x0 MSTORE PUSH1 0x20 PUSH1 0x0 KECCAK256 SWAP1 PUSH1 0x6 MUL ADD PUSH1 0x5 ADD PUSH1 0x0 SWAP1 SLOAD SWAP1 PUSH2 0x100 EXP SWAP1 DIV PUSH1 0xFF AND ISZERO ISZERO EQ PUSH2 0x6DC JUMPI PUSH1 0x40 MLOAD PUSH32 0x8C379A000000000000000000000000000000000000000000000000000000000 DUP2 MSTORE PUSH1 0x4 ADD PUSH2 0x6D3 SWAP1 PUSH2 0x101D JUMP JUMPDEST PUSH1 0x40 MLOAD DUP1 SWAP2 SUB SWAP1 REVERT JUMPDEST PUSH1 0x0 DUP4 DUP2 SLOAD DUP2 LT PUSH2 0x6F0 JUMPI PUSH2 0x6EF PUSH2 0xEC2 JUMP JUMPDEST JUMPDEST SWAP1 PUSH1 0x0 MSTORE PUSH1 0x20 PUSH1 0x0 KECCAK256 SWAP1 PUSH1 0x6 MUL ADD PUSH1 0x1 ADD PUSH1 0x0 SWAP1 SLOAD SWAP1 PUSH2 0x100 EXP SWAP1 DIV PUSH20 0xFFFFFFFFFFFFFFFFFFFFFFFFFFFFFFFFFFFFFFFF AND PUSH1 0x0 DUP5 DUP2 SLOAD DUP2 LT PUSH2 0x736 JUMPI PUSH2 0x735 PUSH2 0xEC2 JUMP JUMPDEST JUMPDEST SWAP1 PUSH1 0x0 MSTORE PUSH1 0x20 PUSH1 0x0 KECCAK256 SWAP1 PUSH1 0x6 MUL ADD PUSH1 0x2 ADD SLOAD PUSH1 0x0 DUP3 SWAP1 POP ADDRESS PUSH20 0xFFFFFFFFFFFFFFFFFFFFFFFFFFFFFFFFFFFFFFFF AND DUP2 PUSH20 0xFFFFFFFFFFFFFFFFFFFFFFFFFFFFFFFFFFFFFFFF AND PUSH4 0x81812FC DUP5 PUSH1 0x40 MLOAD DUP3 PUSH4 0xFFFFFFFF AND PUSH1 0xE0 SHL DUP2 MSTORE PUSH1 0x4 ADD PUSH2 0x79D SWAP2 SWAP1 PUSH2 0xDE8 JUMP JUMPDEST PUSH1 0x20 PUSH1 0x40 MLOAD DUP1 DUP4 SUB DUP2 DUP7 DUP1 EXTCODESIZE ISZERO DUP1 ISZERO PUSH2 0x7B5 JUMPI PUSH1 0x0 DUP1 REVERT JUMPDEST POP GAS STATICCALL ISZERO DUP1 ISZERO PUSH2 0x7C9 JUMPI RETURNDATASIZE PUSH1 0x0 DUP1 RETURNDATACOPY RETURNDATASIZE PUSH1 0x0 REVERT JUMPDEST POP POP POP POP PUSH1 0x40 MLOAD RETURNDATASIZE PUSH1 0x1F NOT PUSH1 0x1F DUP3 ADD AND DUP3 ADD DUP1 PUSH1 0x40 MSTORE POP DUP2 ADD SWAP1 PUSH2 0x7ED SWAP2 SWAP1 PUSH2 0xE18 JUMP JUMPDEST PUSH20 0xFFFFFFFFFFFFFFFFFFFFFFFFFFFFFFFFFFFFFFFF AND EQ PUSH2 0x80D JUMPI PUSH1 0x0 DUP1 REVERT JUMPDEST PUSH1 0x0 DUP7 DUP2 SLOAD DUP2 LT PUSH2 0x821 JUMPI PUSH2 0x820 PUSH2 0xEC2 JUMP JUMPDEST JUMPDEST SWAP1 PUSH1 0x0 MSTORE PUSH1 0x20 PUSH1 0x0 KECCAK256 SWAP1 PUSH1 0x6 MUL ADD PUSH1 0x4 ADD SLOAD CALLVALUE LT ISZERO PUSH2 0x875 JUMPI PUSH1 0x40 MLOAD PUSH32 0x8C379A000000000000000000000000000000000000000000000000000000000 DUP2 MSTORE PUSH1 0x4 ADD PUSH2 0x86C SWAP1 PUSH2 0x1089 JUMP JUMPDEST PUSH1 0x40 MLOAD DUP1 SWAP2 SUB SWAP1 REVERT JUMPDEST PUSH1 0x0 DUP7 DUP2 SLOAD DUP2 LT PUSH2 0x889 JUMPI PUSH2 0x888 PUSH2 0xEC2 JUMP JUMPDEST JUMPDEST SWAP1 PUSH1 0x0 MSTORE PUSH1 0x20 PUSH1 0x0 KECCAK256 SWAP1 PUSH1 0x6 MUL ADD PUSH1 0x3 ADD PUSH1 0x0 SWAP1 SLOAD SWAP1 PUSH2 0x100 EXP SWAP1 DIV PUSH20 0xFFFFFFFFFFFFFFFFFFFFFFFFFFFFFFFFFFFFFFFF AND PUSH20 0xFFFFFFFFFFFFFFFFFFFFFFFFFFFFFFFFFFFFFFFF AND CALLER PUSH20 0xFFFFFFFFFFFFFFFFFFFFFFFFFFFFFFFFFFFFFFFF AND EQ ISZERO PUSH2 0x8F3 JUMPI PUSH1 0x0 DUP1 REVERT JUMPDEST PUSH1 0x1 PUSH1 0x0 DUP8 DUP2 SLOAD DUP2 LT PUSH2 0x909 JUMPI PUSH2 0x908 PUSH2 0xEC2 JUMP JUMPDEST JUMPDEST SWAP1 PUSH1 0x0 MSTORE PUSH1 0x20 PUSH1 0x0 KECCAK256 SWAP1 PUSH1 0x6 MUL ADD PUSH1 0x5 ADD PUSH1 0x0 PUSH2 0x100 EXP DUP2 SLOAD DUP2 PUSH1 0xFF MUL NOT AND SWAP1 DUP4 ISZERO ISZERO MUL OR SWAP1 SSTORE POP PUSH1 0x0 PUSH1 0x1 PUSH1 0x0 DUP1 DUP10 DUP2 SLOAD DUP2 LT PUSH2 0x94A JUMPI PUSH2 0x949 PUSH2 0xEC2 JUMP JUMPDEST JUMPDEST SWAP1 PUSH1 0x0 MSTORE PUSH1 0x20 PUSH1 0x0 KECCAK256 SWAP1 PUSH1 0x6 MUL ADD PUSH1 0x1 ADD PUSH1 0x0 SWAP1 SLOAD SWAP1 PUSH2 0x100 EXP SWAP1 DIV PUSH20 0xFFFFFFFFFFFFFFFFFFFFFFFFFFFFFFFFFFFFFFFF AND PUSH20 0xFFFFFFFFFFFFFFFFFFFFFFFFFFFFFFFFFFFFFFFF AND PUSH20 0xFFFFFFFFFFFFFFFFFFFFFFFFFFFFFFFFFFFFFFFF AND DUP2 MSTORE PUSH1 0x20 ADD SWAP1 DUP2 MSTORE PUSH1 0x20 ADD PUSH1 0x0 KECCAK256 PUSH1 0x0 DUP1 DUP10 DUP2 SLOAD DUP2 LT PUSH2 0x9CB JUMPI PUSH2 0x9CA PUSH2 0xEC2 JUMP JUMPDEST JUMPDEST SWAP1 PUSH1 0x0 MSTORE PUSH1 0x20 PUSH1 0x0 KECCAK256 SWAP1 PUSH1 0x6 MUL ADD PUSH1 0x2 ADD SLOAD DUP2 MSTORE PUSH1 0x20 ADD SWAP1 DUP2 MSTORE PUSH1 0x20 ADD PUSH1 0x0 KECCAK256 PUSH1 0x0 PUSH2 0x100 EXP DUP2 SLOAD DUP2 PUSH1 0xFF MUL NOT AND SWAP1 DUP4 ISZERO ISZERO MUL OR SWAP1 SSTORE POP PUSH1 0x0 DUP7 DUP2 SLOAD DUP2 LT PUSH2 0xA16 JUMPI PUSH2 0xA15 PUSH2 0xEC2 JUMP JUMPDEST JUMPDEST SWAP1 PUSH1 0x0 MSTORE PUSH1 0x20 PUSH1 0x0 KECCAK256 SWAP1 PUSH1 0x6 MUL ADD PUSH1 0x1 ADD PUSH1 0x0 SWAP1 SLOAD SWAP1 PUSH2 0x100 EXP SWAP1 DIV PUSH20 0xFFFFFFFFFFFFFFFFFFFFFFFFFFFFFFFFFFFFFFFF AND PUSH20 0xFFFFFFFFFFFFFFFFFFFFFFFFFFFFFFFFFFFFFFFF AND PUSH4 0x42842E0E PUSH1 0x0 DUP9 DUP2 SLOAD DUP2 LT PUSH2 0xA77 JUMPI PUSH2 0xA76 PUSH2 0xEC2 JUMP JUMPDEST JUMPDEST SWAP1 PUSH1 0x0 MSTORE PUSH1 0x20 PUSH1 0x0 KECCAK256 SWAP1 PUSH1 0x6 MUL ADD PUSH1 0x3 ADD PUSH1 0x0 SWAP1 SLOAD SWAP1 PUSH2 0x100 EXP SWAP1 DIV PUSH20 0xFFFFFFFFFFFFFFFFFFFFFFFFFFFFFFFFFFFFFFFF AND CALLER PUSH1 0x0 DUP11 DUP2 SLOAD DUP2 LT PUSH2 0xABE JUMPI PUSH2 0xABD PUSH2 0xEC2 JUMP JUMPDEST JUMPDEST SWAP1 PUSH1 0x0 MSTORE PUSH1 0x20 PUSH1 0x0 KECCAK256 SWAP1 PUSH1 0x6 MUL ADD PUSH1 0x2 ADD SLOAD PUSH1 0x40 MLOAD DUP5 PUSH4 0xFFFFFFFF AND PUSH1 0xE0 SHL DUP2 MSTORE PUSH1 0x4 ADD PUSH2 0xAEE SWAP4 SWAP3 SWAP2 SWAP1 PUSH2 0x1108 JUMP JUMPDEST PUSH1 0x0 PUSH1 0x40 MLOAD DUP1 DUP4 SUB DUP2 PUSH1 0x0 DUP8 DUP1 EXTCODESIZE ISZERO DUP1 ISZERO PUSH2 0xB08 JUMPI PUSH1 0x0 DUP1 REVERT JUMPDEST POP GAS CALL ISZERO DUP1 ISZERO PUSH2 0xB1C JUMPI RETURNDATASIZE PUSH1 0x0 DUP1 RETURNDATACOPY RETURNDATASIZE PUSH1 0x0 REVERT JUMPDEST POP POP POP POP PUSH1 0x0 DUP7 DUP2 SLOAD DUP2 LT PUSH2 0xB34 JUMPI PUSH2 0xB33 PUSH2 0xEC2 JUMP JUMPDEST JUMPDEST SWAP1 PUSH1 0x0 MSTORE PUSH1 0x20 PUSH1 0x0 KECCAK256 SWAP1 PUSH1 0x6 MUL ADD PUSH1 0x3 ADD PUSH1 0x0 SWAP1 SLOAD SWAP1 PUSH2 0x100 EXP SWAP1 DIV PUSH20 0xFFFFFFFFFFFFFFFFFFFFFFFFFFFFFFFFFFFFFFFF AND PUSH20 0xFFFFFFFFFFFFFFFFFFFFFFFFFFFFFFFFFFFFFFFF AND PUSH2 0x8FC CALLVALUE SWAP1 DUP2 ISZERO MUL SWAP1 PUSH1 0x40 MLOAD PUSH1 0x0 PUSH1 0x40 MLOAD DUP1 DUP4 SUB DUP2 DUP6 DUP9 DUP9 CALL SWAP4 POP POP POP POP ISZERO DUP1 ISZERO PUSH2 0xBAB JUMPI RETURNDATASIZE PUSH1 0x0 DUP1 RETURNDATACOPY RETURNDATASIZE PUSH1 0x0 REVERT JUMPDEST POP PUSH32 0x8164C6F8917E418C49813E4586897C7067DE5A886AA1BEA980CD11FA57D48264 DUP7 CALLER PUSH1 0x0 DUP10 DUP2 SLOAD DUP2 LT PUSH2 0xBE3 JUMPI PUSH2 0xBE2 PUSH2 0xEC2 JUMP JUMPDEST JUMPDEST SWAP1 PUSH1 0x0 MSTORE PUSH1 0x20 PUSH1 0x0 KECCAK256 SWAP1 PUSH1 0x6 MUL ADD PUSH1 0x4 ADD SLOAD PUSH1 0x40 MLOAD PUSH2 0xC04 SWAP4 SWAP3 SWAP2 SWAP1 PUSH2 0x113F JUMP JUMPDEST PUSH1 0x40 MLOAD DUP1 SWAP2 SUB SWAP1 LOG1 POP POP POP POP POP POP JUMP JUMPDEST PUSH1 0x0 DUP1 REVERT JUMPDEST PUSH1 0x0 DUP2 SWAP1 POP SWAP2 SWAP1 POP JUMP JUMPDEST PUSH2 0xC2C DUP2 PUSH2 0xC19 JUMP JUMPDEST DUP2 EQ PUSH2 0xC37 JUMPI PUSH1 0x0 DUP1 REVERT JUMPDEST POP JUMP JUMPDEST PUSH1 0x0 DUP2 CALLDATALOAD SWAP1 POP PUSH2 0xC49 DUP2 PUSH2 0xC23 JUMP JUMPDEST SWAP3 SWAP2 POP POP JUMP JUMPDEST PUSH1 0x0 PUSH1 0x20 DUP3 DUP5 SUB SLT ISZERO PUSH2 0xC65 JUMPI PUSH2 0xC64 PUSH2 0xC14 JUMP JUMPDEST JUMPDEST PUSH1 0x0 PUSH2 0xC73 DUP5 DUP3 DUP6 ADD PUSH2 0xC3A JUMP JUMPDEST SWAP2 POP POP SWAP3 SWAP2 POP POP JUMP JUMPDEST PUSH2 0xC85 DUP2 PUSH2 0xC19 JUMP JUMPDEST DUP3 MSTORE POP POP JUMP JUMPDEST PUSH1 0x0 PUSH20 0xFFFFFFFFFFFFFFFFFFFFFFFFFFFFFFFFFFFFFFFF DUP3 AND SWAP1 POP SWAP2 SWAP1 POP JUMP JUMPDEST PUSH1 0x0 PUSH2 0xCB6 DUP3 PUSH2 0xC8B JUMP JUMPDEST SWAP1 POP SWAP2 SWAP1 POP JUMP JUMPDEST PUSH2 0xCC6 DUP2 PUSH2 0xCAB JUMP JUMPDEST DUP3 MSTORE POP POP JUMP JUMPDEST PUSH1 0x0 PUSH2 0xCD7 DUP3 PUSH2 0xC8B JUMP JUMPDEST SWAP1 POP SWAP2 SWAP1 POP JUMP JUMPDEST PUSH2 0xCE7 DUP2 PUSH2 0xCCC JUMP JUMPDEST DUP3 MSTORE POP POP JUMP JUMPDEST PUSH1 0x0 DUP2 ISZERO ISZERO SWAP1 POP SWAP2 SWAP1 POP JUMP JUMPDEST PUSH2 0xD02 DUP2 PUSH2 0xCED JUMP JUMPDEST DUP3 MSTORE POP POP JUMP JUMPDEST PUSH1 0x0 PUSH1 0xC0 DUP3 ADD SWAP1 POP PUSH2 0xD1D PUSH1 0x0 DUP4 ADD DUP10 PUSH2 0xC7C JUMP JUMPDEST PUSH2 0xD2A PUSH1 0x20 DUP4 ADD DUP9 PUSH2 0xCBD JUMP JUMPDEST PUSH2 0xD37 PUSH1 0x40 DUP4 ADD DUP8 PUSH2 0xC7C JUMP JUMPDEST PUSH2 0xD44 PUSH1 0x60 DUP4 ADD DUP7 PUSH2 0xCDE JUMP JUMPDEST PUSH2 0xD51 PUSH1 0x80 DUP4 ADD DUP6 PUSH2 0xC7C JUMP JUMPDEST PUSH2 0xD5E PUSH1 0xA0 DUP4 ADD DUP5 PUSH2 0xCF9 JUMP JUMPDEST SWAP8 SWAP7 POP POP POP POP POP POP POP JUMP JUMPDEST PUSH2 0xD72 DUP2 PUSH2 0xCAB JUMP JUMPDEST DUP2 EQ PUSH2 0xD7D JUMPI PUSH1 0x0 DUP1 REVERT JUMPDEST POP JUMP JUMPDEST PUSH1 0x0 DUP2 CALLDATALOAD SWAP1 POP PUSH2 0xD8F DUP2 PUSH2 0xD69 JUMP JUMPDEST SWAP3 SWAP2 POP POP JUMP JUMPDEST PUSH1 0x0 DUP1 PUSH1 0x0 PUSH1 0x60 DUP5 DUP7 SUB SLT ISZERO PUSH2 0xDAE JUMPI PUSH2 0xDAD PUSH2 0xC14 JUMP JUMPDEST JUMPDEST PUSH1 0x0 PUSH2 0xDBC DUP7 DUP3 DUP8 ADD PUSH2 0xC3A JUMP JUMPDEST SWAP4 POP POP PUSH1 0x20 PUSH2 0xDCD DUP7 DUP3 DUP8 ADD PUSH2 0xD80 JUMP JUMPDEST SWAP3 POP POP PUSH1 0x40 PUSH2 0xDDE DUP7 DUP3 DUP8 ADD PUSH2 0xC3A JUMP JUMPDEST SWAP2 POP POP SWAP3 POP SWAP3 POP SWAP3 JUMP JUMPDEST PUSH1 0x0 PUSH1 0x20 DUP3 ADD SWAP1 POP PUSH2 0xDFD PUSH1 0x0 DUP4 ADD DUP5 PUSH2 0xC7C JUMP JUMPDEST SWAP3 SWAP2 POP POP JUMP JUMPDEST PUSH1 0x0 DUP2 MLOAD SWAP1 POP PUSH2 0xE12 DUP2 PUSH2 0xD69 JUMP JUMPDEST SWAP3 SWAP2 POP POP JUMP JUMPDEST PUSH1 0x0 PUSH1 0x20 DUP3 DUP5 SUB SLT ISZERO PUSH2 0xE2E JUMPI PUSH2 0xE2D PUSH2 0xC14 JUMP JUMPDEST JUMPDEST PUSH1 0x0 PUSH2 0xE3C DUP5 DUP3 DUP6 ADD PUSH2 0xE03 JUMP JUMPDEST SWAP2 POP POP SWAP3 SWAP2 POP POP JUMP JUMPDEST PUSH1 0x0 DUP3 DUP3 MSTORE PUSH1 0x20 DUP3 ADD SWAP1 POP SWAP3 SWAP2 POP POP JUMP JUMPDEST PUSH32 0x6954656D20697320416C726561647920757020666F722053616C650000000000 PUSH1 0x0 DUP3 ADD MSTORE POP JUMP JUMPDEST PUSH1 0x0 PUSH2 0xE8C PUSH1 0x1B DUP4 PUSH2 0xE45 JUMP JUMPDEST SWAP2 POP PUSH2 0xE97 DUP3 PUSH2 0xE56 JUMP JUMPDEST PUSH1 0x20 DUP3 ADD SWAP1 POP SWAP2 SWAP1 POP JUMP JUMPDEST PUSH1 0x0 PUSH1 0x20 DUP3 ADD SWAP1 POP DUP2 DUP2 SUB PUSH1 0x0 DUP4 ADD MSTORE PUSH2 0xEBB DUP2 PUSH2 0xE7F JUMP JUMPDEST SWAP1 POP SWAP2 SWAP1 POP JUMP JUMPDEST PUSH32 0x4E487B7100000000000000000000000000000000000000000000000000000000 PUSH1 0x0 MSTORE PUSH1 0x32 PUSH1 0x4 MSTORE PUSH1 0x24 PUSH1 0x0 REVERT JUMPDEST PUSH32 0x4E487B7100000000000000000000000000000000000000000000000000000000 PUSH1 0x0 MSTORE PUSH1 0x1 PUSH1 0x4 MSTORE PUSH1 0x24 PUSH1 0x0 REVERT JUMPDEST PUSH1 0x0 PUSH1 0x80 DUP3 ADD SWAP1 POP PUSH2 0xF35 PUSH1 0x0 DUP4 ADD DUP8 PUSH2 0xC7C JUMP JUMPDEST PUSH2 0xF42 PUSH1 0x20 DUP4 ADD DUP7 PUSH2 0xC7C JUMP JUMPDEST PUSH2 0xF4F PUSH1 0x40 DUP4 ADD DUP6 PUSH2 0xCBD JUMP JUMPDEST PUSH2 0xF5C PUSH1 0x60 DUP4 ADD DUP5 PUSH2 0xC7C JUMP JUMPDEST SWAP6 SWAP5 POP POP POP POP POP JUMP JUMPDEST PUSH32 0x436F756C64204E6F742046696E64204974656D73000000000000000000000000 PUSH1 0x0 DUP3 ADD MSTORE POP JUMP JUMPDEST PUSH1 0x0 PUSH2 0xF9B PUSH1 0x14 DUP4 PUSH2 0xE45 JUMP JUMPDEST SWAP2 POP PUSH2 0xFA6 DUP3 PUSH2 0xF65 JUMP JUMPDEST PUSH1 0x20 DUP3 ADD SWAP1 POP SWAP2 SWAP1 POP JUMP JUMPDEST PUSH1 0x0 PUSH1 0x20 DUP3 ADD SWAP1 POP DUP2 DUP2 SUB PUSH1 0x0 DUP4 ADD MSTORE PUSH2 0xFCA DUP2 PUSH2 0xF8E JUMP JUMPDEST SWAP1 POP SWAP2 SWAP1 POP JUMP JUMPDEST PUSH32 0x6974656D20697320616C726561647920736F6C64000000000000000000000000 PUSH1 0x0 DUP3 ADD MSTORE POP JUMP JUMPDEST PUSH1 0x0 PUSH2 0x1007 PUSH1 0x14 DUP4 PUSH2 0xE45 JUMP JUMPDEST SWAP2 POP PUSH2 0x1012 DUP3 PUSH2 0xFD1 JUMP JUMPDEST PUSH1 0x20 DUP3 ADD SWAP1 POP SWAP2 SWAP1 POP JUMP JUMPDEST PUSH1 0x0 PUSH1 0x20 DUP3 ADD SWAP1 POP DUP2 DUP2 SUB PUSH1 0x0 DUP4 ADD MSTORE PUSH2 0x1036 DUP2 PUSH2 0xFFA JUMP JUMPDEST SWAP1 POP SWAP2 SWAP1 POP JUMP JUMPDEST PUSH32 0x6E6F7420456E6F7567682046756E647300000000000000000000000000000000 PUSH1 0x0 DUP3 ADD MSTORE POP JUMP JUMPDEST PUSH1 0x0 PUSH2 0x1073 PUSH1 0x10 DUP4 PUSH2 0xE45 JUMP JUMPDEST SWAP2 POP PUSH2 0x107E DUP3 PUSH2 0x103D JUMP JUMPDEST PUSH1 0x20 DUP3 ADD SWAP1 POP SWAP2 SWAP1 POP JUMP JUMPDEST PUSH1 0x0 PUSH1 0x20 DUP3 ADD SWAP1 POP DUP2 DUP2 SUB PUSH1 0x0 DUP4 ADD MSTORE PUSH2 0x10A2 DUP2 PUSH2 0x1066 JUMP JUMPDEST SWAP1 POP SWAP2 SWAP1 POP JUMP JUMPDEST PUSH1 0x0 DUP2 SWAP1 POP SWAP2 SWAP1 POP JUMP JUMPDEST PUSH1 0x0 PUSH2 0x10CE PUSH2 0x10C9 PUSH2 0x10C4 DUP5 PUSH2 0xC8B JUMP JUMPDEST PUSH2 0x10A9 JUMP JUMPDEST PUSH2 0xC8B JUMP JUMPDEST SWAP1 POP SWAP2 SWAP1 POP JUMP JUMPDEST PUSH1 0x0 PUSH2 0x10E0 DUP3 PUSH2 0x10B3 JUMP JUMPDEST SWAP1 POP SWAP2 SWAP1 POP JUMP JUMPDEST PUSH1 0x0 PUSH2 0x10F2 DUP3 PUSH2 0x10D5 JUMP JUMPDEST SWAP1 POP SWAP2 SWAP1 POP JUMP JUMPDEST PUSH2 0x1102 DUP2 PUSH2 0x10E7 JUMP JUMPDEST DUP3 MSTORE POP POP JUMP JUMPDEST PUSH1 0x0 PUSH1 0x60 DUP3 ADD SWAP1 POP PUSH2 0x111D PUSH1 0x0 DUP4 ADD DUP7 PUSH2 0x10F9 JUMP JUMPDEST PUSH2 0x112A PUSH1 0x20 DUP4 ADD DUP6 PUSH2 0xCBD JUMP JUMPDEST PUSH2 0x1137 PUSH1 0x40 DUP4 ADD DUP5 PUSH2 0xC7C JUMP JUMPDEST SWAP5 SWAP4 POP POP POP POP JUMP JUMPDEST PUSH1 0x0 PUSH1 0x60 DUP3 ADD SWAP1 POP PUSH2 0x1154 PUSH1 0x0 DUP4 ADD DUP7 PUSH2 0xC7C JUMP JUMPDEST PUSH2 0x1161 PUSH1 0x20 DUP4 ADD DUP6 PUSH2 0xCBD JUMP JUMPDEST PUSH2 0x116E PUSH1 0x40 DUP4 ADD DUP5 PUSH2 0xC7C JUMP JUMPDEST SWAP5 SWAP4 POP POP POP POP JUMP INVALID LOG2 PUSH5 0x6970667358 0x22 SLT KECCAK256 PUSH14 0x95B659ED0E30217DCB74BE1DE2C4 0xE4 0xA8 0xE6 0xE 0x29 0xCE SAR 0x2D 0xF8 0x4A 0x4D 0xE PUSH25 0x867ADCC864736F6C6343000809003300000000000000000000 "
				},
				"gasEstimates": {
					"creation": {
						"codeDepositCost": "904800",
						"executionCost": "942",
						"totalCost": "905742"
					},
					"external": {
						"addItemToMaket(uint256,address,uint256)": "infinite",
						"buyItem(uint256)": "infinite",
						"itemsForSale(uint256)": "infinite"
					}
				},
				"methodIdentifiers": {
					"addItemToMaket(uint256,address,uint256)": "452407e2",
					"buyItem(uint256)": "e7fb74c7",
					"itemsForSale(uint256)": "092d0afc"
				}
			},
			"storageLayout": {
				"storage": [
					{
						"astId": 147,
						"contract": "contracts/MorarableMarketContract.sol:MorarableMarketContract",
						"label": "itemsForSale",
						"offset": 0,
						"slot": "0",
						"type": "t_array(t_struct(AuctionItem)143_storage)dyn_storage"
					},
					{
						"astId": 153,
						"contract": "contracts/MorarableMarketContract.sol:MorarableMarketContract",
						"label": "activeItems",
						"offset": 0,
						"slot": "1",
						"type": "t_mapping(t_address,t_mapping(t_uint256,t_bool))"
					}
				],
				"types": {
					"t_address": {
						"encoding": "inplace",
						"label": "address",
						"numberOfBytes": "20"
					},
					"t_address_payable": {
						"encoding": "inplace",
						"label": "address payable",
						"numberOfBytes": "20"
					},
					"t_array(t_struct(AuctionItem)143_storage)dyn_storage": {
						"base": "t_struct(AuctionItem)143_storage",
						"encoding": "dynamic_array",
						"label": "struct MorarableMarketContract.AuctionItem[]",
						"numberOfBytes": "32"
					},
					"t_bool": {
						"encoding": "inplace",
						"label": "bool",
						"numberOfBytes": "1"
					},
					"t_mapping(t_address,t_mapping(t_uint256,t_bool))": {
						"encoding": "mapping",
						"key": "t_address",
						"label": "mapping(address => mapping(uint256 => bool))",
						"numberOfBytes": "32",
						"value": "t_mapping(t_uint256,t_bool)"
					},
					"t_mapping(t_uint256,t_bool)": {
						"encoding": "mapping",
						"key": "t_uint256",
						"label": "mapping(uint256 => bool)",
						"numberOfBytes": "32",
						"value": "t_bool"
					},
					"t_struct(AuctionItem)143_storage": {
						"encoding": "inplace",
						"label": "struct MorarableMarketContract.AuctionItem",
						"members": [
							{
								"astId": 132,
								"contract": "contracts/MorarableMarketContract.sol:MorarableMarketContract",
								"label": "id",
								"offset": 0,
								"slot": "0",
								"type": "t_uint256"
							},
							{
								"astId": 134,
								"contract": "contracts/MorarableMarketContract.sol:MorarableMarketContract",
								"label": "tokenAddress",
								"offset": 0,
								"slot": "1",
								"type": "t_address"
							},
							{
								"astId": 136,
								"contract": "contracts/MorarableMarketContract.sol:MorarableMarketContract",
								"label": "tokenId",
								"offset": 0,
								"slot": "2",
								"type": "t_uint256"
							},
							{
								"astId": 138,
								"contract": "contracts/MorarableMarketContract.sol:MorarableMarketContract",
								"label": "seller",
								"offset": 0,
								"slot": "3",
								"type": "t_address_payable"
							},
							{
								"astId": 140,
								"contract": "contracts/MorarableMarketContract.sol:MorarableMarketContract",
								"label": "askingPrice",
								"offset": 0,
								"slot": "4",
								"type": "t_uint256"
							},
							{
								"astId": 142,
								"contract": "contracts/MorarableMarketContract.sol:MorarableMarketContract",
								"label": "isSold",
								"offset": 0,
								"slot": "5",
								"type": "t_bool"
							}
						],
						"numberOfBytes": "192"
					},
					"t_uint256": {
						"encoding": "inplace",
						"label": "uint256",
						"numberOfBytes": "32"
					}
				}
			},
			"userdoc": {
				"kind": "user",
				"methods": {},
				"version": 1
			}
		}
	}
}